{
  "_format": "hh-sol-artifact-1",
  "contractName": "MarketplaceEscrow",
  "sourceName": "contracts/MarketplaceEscrow.sol",
  "abi": [
    {
      "inputs": [
        {
          "internalType": "address",
          "name": "admin",
          "type": "address"
        },
        {
          "internalType": "address",
          "name": "arbiter",
          "type": "address"
        }
      ],
      "stateMutability": "nonpayable",
      "type": "constructor"
    },
    {
      "inputs": [],
      "name": "AccessControlBadConfirmation",
      "type": "error"
    },
    {
      "inputs": [
        {
          "internalType": "address",
          "name": "account",
          "type": "address"
        },
        {
          "internalType": "bytes32",
          "name": "neededRole",
          "type": "bytes32"
        }
      ],
      "name": "AccessControlUnauthorizedAccount",
      "type": "error"
    },
    {
      "inputs": [],
      "name": "InvalidAmount",
      "type": "error"
    },
    {
      "inputs": [],
      "name": "InvalidDeadline",
      "type": "error"
    },
    {
      "inputs": [],
      "name": "InvalidState",
      "type": "error"
    },
    {
      "inputs": [],
      "name": "ReentrancyGuardReentrantCall",
      "type": "error"
    },
    {
      "inputs": [
        {
          "internalType": "address",
          "name": "token",
          "type": "address"
        }
      ],
      "name": "SafeERC20FailedOperation",
      "type": "error"
    },
    {
      "inputs": [],
      "name": "Unauthorized",
      "type": "error"
    },
    {
      "inputs": [],
      "name": "ZeroAddress",
      "type": "error"
    },
    {
      "inputs": [],
      "name": "ZeroAmount",
      "type": "error"
    },
    {
      "anonymous": false,
      "inputs": [
        {
          "indexed": true,
          "internalType": "uint256",
          "name": "dealId",
          "type": "uint256"
        }
      ],
      "name": "DisputeRaised",
      "type": "event"
    },
    {
      "anonymous": false,
      "inputs": [
        {
          "indexed": true,
          "internalType": "uint256",
          "name": "dealId",
          "type": "uint256"
        },
        {
          "indexed": false,
          "internalType": "uint256",
          "name": "sellerAmount",
          "type": "uint256"
        },
        {
          "indexed": false,
          "internalType": "uint256",
          "name": "buyerAmount",
          "type": "uint256"
        }
      ],
      "name": "DisputeResolved",
      "type": "event"
    },
    {
      "anonymous": false,
      "inputs": [
        {
          "indexed": true,
          "internalType": "uint256",
          "name": "dealId",
          "type": "uint256"
        },
        {
          "indexed": true,
          "internalType": "address",
          "name": "buyer",
          "type": "address"
        },
        {
          "indexed": true,
          "internalType": "address",
          "name": "seller",
          "type": "address"
        },
        {
          "indexed": false,
          "internalType": "address",
          "name": "token",
          "type": "address"
        },
        {
          "indexed": false,
          "internalType": "uint256",
          "name": "amount",
          "type": "uint256"
        }
      ],
      "name": "EscrowCreated",
      "type": "event"
    },
    {
      "anonymous": false,
      "inputs": [
        {
          "indexed": true,
          "internalType": "uint256",
          "name": "dealId",
          "type": "uint256"
        }
      ],
      "name": "EscrowRefunded",
      "type": "event"
    },
    {
      "anonymous": false,
      "inputs": [
        {
          "indexed": true,
          "internalType": "uint256",
          "name": "dealId",
          "type": "uint256"
        }
      ],
      "name": "EscrowReleased",
      "type": "event"
    },
    {
      "anonymous": false,
      "inputs": [
        {
          "indexed": true,
          "internalType": "bytes32",
          "name": "role",
          "type": "bytes32"
        },
        {
          "indexed": true,
          "internalType": "bytes32",
          "name": "previousAdminRole",
          "type": "bytes32"
        },
        {
          "indexed": true,
          "internalType": "bytes32",
          "name": "newAdminRole",
          "type": "bytes32"
        }
      ],
      "name": "RoleAdminChanged",
      "type": "event"
    },
    {
      "anonymous": false,
      "inputs": [
        {
          "indexed": true,
          "internalType": "bytes32",
          "name": "role",
          "type": "bytes32"
        },
        {
          "indexed": true,
          "internalType": "address",
          "name": "account",
          "type": "address"
        },
        {
          "indexed": true,
          "internalType": "address",
          "name": "sender",
          "type": "address"
        }
      ],
      "name": "RoleGranted",
      "type": "event"
    },
    {
      "anonymous": false,
      "inputs": [
        {
          "indexed": true,
          "internalType": "bytes32",
          "name": "role",
          "type": "bytes32"
        },
        {
          "indexed": true,
          "internalType": "address",
          "name": "account",
          "type": "address"
        },
        {
          "indexed": true,
          "internalType": "address",
          "name": "sender",
          "type": "address"
        }
      ],
      "name": "RoleRevoked",
      "type": "event"
    },
    {
      "inputs": [],
      "name": "ARBITER_ROLE",
      "outputs": [
        {
          "internalType": "bytes32",
          "name": "",
          "type": "bytes32"
        }
      ],
      "stateMutability": "view",
      "type": "function"
    },
    {
      "inputs": [],
      "name": "DEFAULT_ADMIN_ROLE",
      "outputs": [
        {
          "internalType": "bytes32",
          "name": "",
          "type": "bytes32"
        }
      ],
      "stateMutability": "view",
      "type": "function"
    },
    {
      "inputs": [
        {
          "internalType": "address",
          "name": "seller",
          "type": "address"
        },
        {
          "internalType": "address",
          "name": "token",
          "type": "address"
        },
        {
          "internalType": "uint256",
          "name": "amount",
          "type": "uint256"
        },
        {
          "internalType": "uint256",
          "name": "deadline",
          "type": "uint256"
        }
      ],
      "name": "createEscrow",
      "outputs": [
        {
          "internalType": "uint256",
          "name": "dealId",
          "type": "uint256"
        }
      ],
      "stateMutability": "payable",
      "type": "function"
    },
    {
      "inputs": [
        {
          "internalType": "uint256",
          "name": "",
          "type": "uint256"
        }
      ],
      "name": "deals",
      "outputs": [
        {
          "internalType": "address",
          "name": "buyer",
          "type": "address"
        },
        {
          "internalType": "address",
          "name": "seller",
          "type": "address"
        },
        {
          "internalType": "address",
          "name": "token",
          "type": "address"
        },
        {
          "internalType": "uint256",
          "name": "amount",
          "type": "uint256"
        },
        {
          "internalType": "uint256",
          "name": "deadline",
          "type": "uint256"
        },
        {
          "internalType": "bool",
          "name": "released",
          "type": "bool"
        },
        {
          "internalType": "bool",
          "name": "disputed",
          "type": "bool"
        },
        {
          "internalType": "bool",
          "name": "resolved",
          "type": "bool"
        }
      ],
      "stateMutability": "view",
      "type": "function"
    },
    {
      "inputs": [
        {
          "internalType": "bytes32",
          "name": "role",
          "type": "bytes32"
        }
      ],
      "name": "getRoleAdmin",
      "outputs": [
        {
          "internalType": "bytes32",
          "name": "",
          "type": "bytes32"
        }
      ],
      "stateMutability": "view",
      "type": "function"
    },
    {
      "inputs": [
        {
          "internalType": "bytes32",
          "name": "role",
          "type": "bytes32"
        },
        {
          "internalType": "address",
          "name": "account",
          "type": "address"
        }
      ],
      "name": "grantRole",
      "outputs": [],
      "stateMutability": "nonpayable",
      "type": "function"
    },
    {
      "inputs": [
        {
          "internalType": "bytes32",
          "name": "role",
          "type": "bytes32"
        },
        {
          "internalType": "address",
          "name": "account",
          "type": "address"
        }
      ],
      "name": "hasRole",
      "outputs": [
        {
          "internalType": "bool",
          "name": "",
          "type": "bool"
        }
      ],
      "stateMutability": "view",
      "type": "function"
    },
    {
      "inputs": [],
      "name": "nextDealId",
      "outputs": [
        {
          "internalType": "uint256",
          "name": "",
          "type": "uint256"
        }
      ],
      "stateMutability": "view",
      "type": "function"
    },
    {
      "inputs": [
        {
          "internalType": "uint256",
          "name": "dealId",
          "type": "uint256"
        }
      ],
      "name": "raiseDispute",
      "outputs": [],
      "stateMutability": "nonpayable",
      "type": "function"
    },
    {
      "inputs": [
        {
          "internalType": "uint256",
          "name": "dealId",
          "type": "uint256"
        }
      ],
      "name": "refund",
      "outputs": [],
      "stateMutability": "nonpayable",
      "type": "function"
    },
    {
      "inputs": [
        {
          "internalType": "uint256",
          "name": "dealId",
          "type": "uint256"
        }
      ],
      "name": "release",
      "outputs": [],
      "stateMutability": "nonpayable",
      "type": "function"
    },
    {
      "inputs": [
        {
          "internalType": "bytes32",
          "name": "role",
          "type": "bytes32"
        },
        {
          "internalType": "address",
          "name": "callerConfirmation",
          "type": "address"
        }
      ],
      "name": "renounceRole",
      "outputs": [],
      "stateMutability": "nonpayable",
      "type": "function"
    },
    {
      "inputs": [
        {
          "internalType": "uint256",
          "name": "dealId",
          "type": "uint256"
        },
        {
          "internalType": "uint256",
          "name": "sellerAmount",
          "type": "uint256"
        }
      ],
      "name": "resolveDispute",
      "outputs": [],
      "stateMutability": "nonpayable",
      "type": "function"
    },
    {
      "inputs": [
        {
          "internalType": "bytes32",
          "name": "role",
          "type": "bytes32"
        },
        {
          "internalType": "address",
          "name": "account",
          "type": "address"
        }
      ],
      "name": "revokeRole",
      "outputs": [],
      "stateMutability": "nonpayable",
      "type": "function"
    },
    {
      "inputs": [
        {
          "internalType": "bytes4",
          "name": "interfaceId",
          "type": "bytes4"
        }
      ],
      "name": "supportsInterface",
      "outputs": [
        {
          "internalType": "bool",
          "name": "",
          "type": "bool"
        }
      ],
      "stateMutability": "view",
      "type": "function"
    }
  ],
  "bytecode": "0x60806040523480156200001157600080fd5b50604051620013a7380380620013a7833981016040819052620000349162000184565b600180556001600160a01b03821615806200005657506001600160a01b038116155b15620000755760405163d92e233d60e01b815260040160405180910390fd5b62000082600083620000b8565b50620000af7fbb08418a67729a078f87bbc8d02a770929bb68f5bfdf134ae2ead6ed38e2f4ae82620000b8565b505050620001bc565b6000828152602081815260408083206001600160a01b038516845290915281205460ff166200015d576000838152602081815260408083206001600160a01b03861684529091529020805460ff19166001179055620001143390565b6001600160a01b0316826001600160a01b0316847f2f8788117e7eff1d82e926ec794901d17c78024a50270940304540a733656f0d60405160405180910390a450600162000161565b5060005b92915050565b80516001600160a01b03811681146200017f57600080fd5b919050565b600080604083850312156200019857600080fd5b620001a38362000167565b9150620001b36020840162000167565b90509250929050565b6111db80620001cc6000396000f3fe6080604052600436106100e85760003560e01c80634d104adf1161008a578063a5c1674e11610059578063a5c1674e14610316578063bdc84ac314610336578063ccbae5f614610356578063d547741f1461036957600080fd5b80634d104adf146102a95780634d9879e3146102cb57806391d14854146102e1578063a217fddf1461030157600080fd5b8063278ecde1116100c6578063278ecde1146102275780632f2ff15d1461024957806336568abe1461026957806337bdc99b1461028957600080fd5b806301ffc9a7146100ed57806303988f8414610122578063248a9ca3146101e9575b600080fd5b3480156100f957600080fd5b5061010d61010836600461101d565b610389565b60405190151581526020015b60405180910390f35b34801561012e57600080fd5b5061019961013d36600461104e565b60036020819052600091825260409091208054600182015460028301549383015460048401546005909401546001600160a01b0393841695928416949390921692909160ff808216916101008104821691620100009091041688565b604080516001600160a01b03998a1681529789166020890152959097169486019490945260608501929092526080840152151560a0830152151560c082015290151560e082015261010001610119565b3480156101f557600080fd5b5061021961020436600461104e565b60009081526020819052604090206001015490565b604051908152602001610119565b34801561023357600080fd5b5061024761024236600461104e565b6103c0565b005b34801561025557600080fd5b50610247610264366004611083565b6105b1565b34801561027557600080fd5b50610247610284366004611083565b6105dc565b34801561029557600080fd5b506102476102a436600461104e565b610614565b3480156102b557600080fd5b5061021960008051602061118683398151915281565b3480156102d757600080fd5b5061021960025481565b3480156102ed57600080fd5b5061010d6102fc366004611083565b6107bc565b34801561030d57600080fd5b50610219600081565b34801561032257600080fd5b5061024761033136600461104e565b6107e5565b34801561034257600080fd5b506102476103513660046110af565b6108d5565b6102196103643660046110d1565b610b3f565b34801561037557600080fd5b50610247610384366004611083565b610d81565b60006001600160e01b03198216637965db0b60e01b14806103ba57506301ffc9a760e01b6001600160e01b03198316145b92915050565b6103c8610da6565b60008181526003602081905260409091209081015415806103ed5750600581015460ff165b806104025750600581015462010000900460ff165b156104205760405163baf3f0f760e01b815260040160405180910390fd5b60018101546001600160a01b031633148015906104525750610450600080516020611186833981519152336107bc565b155b1561046f576040516282b42960e81b815260040160405180910390fd5b6005810154610100900460ff1615801561048d575080600401544211155b156104ab5760405163baf3f0f760e01b815260040160405180910390fd5b60058101805462ff000019166201000017905560028101546001600160a01b031661055557805460038201546040516000926001600160a01b031691908381818185875af1925050503d8060008114610520576040519150601f19603f3d011682016040523d82523d6000602084013e610525565b606091505b505090508061054f5760405162461bcd60e51b815260040161054690611113565b60405180910390fd5b50610579565b805460038201546002830154610579926001600160a01b0391821692911690610dd0565b60405182907f2babb5cd458b6d41108d6d793a75e29ca524e7caa20e2da6c994462010920a7290600090a2506105ae60018055565b50565b6000828152602081905260409020600101546105cc81610e2f565b6105d68383610e39565b50505050565b6001600160a01b03811633146106055760405163334bd91960e11b815260040160405180910390fd5b61060f8282610ecb565b505050565b61061c610da6565b60008181526003602081905260409091209081015415806106415750600581015460ff165b806106565750600581015462010000900460ff165b156106745760405163baf3f0f760e01b815260040160405180910390fd5b80546001600160a01b031633148015906106a357506106a1600080516020611186833981519152336107bc565b155b156106c0576040516282b42960e81b815260040160405180910390fd5b60058101805460ff1916600117905560028101546001600160a01b031661076057600181015460038201546040516000926001600160a01b031691908381818185875af1925050503d8060008114610734576040519150601f19603f3d011682016040523d82523d6000602084013e610739565b606091505b505090508061075a5760405162461bcd60e51b815260040161054690611113565b50610787565b600181015460038201546002830154610787926001600160a01b0391821692911690610dd0565b60405182907f69833829d5691ae09424af7d16f73adf033451149ea9c2fc6fcb4c44108eef6790600090a2506105ae60018055565b6000918252602082815260408084206001600160a01b0393909316845291905290205460ff1690565b600081815260036020819052604090912090810154158061080a5750600581015460ff165b8061081f5750600581015462010000900460ff165b8061083357506005810154610100900460ff165b156108515760405163baf3f0f760e01b815260040160405180910390fd5b80546001600160a01b03163314801590610878575060018101546001600160a01b03163314155b15610895576040516282b42960e81b815260040160405180910390fd5b60058101805461ff00191661010017905560405182907f04901f83201c8724eadf084436db8aa391820bae6d11f9f78a17edb6f2eef3cf90600090a25050565b6000805160206111868339815191526108ed81610e2f565b6108f5610da6565b60008381526003602052604090206005810154610100900460ff1615806109205750600581015460ff165b806109355750600581015462010000900460ff165b156109535760405163baf3f0f760e01b815260040160405180910390fd5b80600301548311156109785760405163162908e360e11b815260040160405180910390fd5b600083826003015461098a9190611159565b60058301805462ff000019166201000017905560028301549091506001600160a01b0316610aae578315610a2f5760018201546040516000916001600160a01b03169086908381818185875af1925050503d8060008114610a07576040519150601f19603f3d011682016040523d82523d6000602084013e610a0c565b606091505b5050905080610a2d5760405162461bcd60e51b815260040161054690611113565b505b8015610aa95781546040516000916001600160a01b03169083908381818185875af1925050503d8060008114610a81576040519150601f19603f3d011682016040523d82523d6000602084013e610a86565b606091505b5050905080610aa75760405162461bcd60e51b815260040161054690611113565b505b610af9565b8315610ad55760018201546002830154610ad5916001600160a01b03918216911686610dd0565b8015610af95781546002830154610af9916001600160a01b03918216911683610dd0565b604080518581526020810183905286917f959dc01840aa516bf9407cffa45326c7b6821c48feff7b91eb0c743c8f460fd6910160405180910390a2505061060f60018055565b6000610b49610da6565b6001600160a01b038516610b705760405163d92e233d60e01b815260040160405180910390fd5b82600003610b9157604051631f2a200560e01b815260040160405180910390fd5b428211610bb157604051631da7447960e21b815260040160405180910390fd5b6001600160a01b038416610be457823414610bdf5760405163baf3f0f760e01b815260040160405180910390fd5b610c18565b3415610c035760405163baf3f0f760e01b815260040160405180910390fd5b610c186001600160a01b038516333086610f36565b60028054906000610c288361116c565b90915550604080516101008082018352338083526001600160a01b038a811660208086018281528c8416878901908152606088018d8152608089018d8152600060a08b0181815260c08c0182815260e08d018381528f8452600398899052928e90209c518d54908b166001600160a01b0319918216178e55965160018e018054918c16918916919091179055945160028d01805491909a16961695909517909755905193890193909355915160048801555160059096018054915193511515620100000262ff00001994151590960261ff00199715159790971661ffff19909216919091179590951791909116929092179092559151929350909183907fcaf993c592f602a7d225c8556e07d471f93e7c0f2609647024e59018f5a521ac90610d6890899089906001600160a01b03929092168252602082015260400190565b60405180910390a4610d7960018055565b949350505050565b600082815260208190526040902060010154610d9c81610e2f565b6105d68383610ecb565b600260015403610dc957604051633ee5aeb560e01b815260040160405180910390fd5b6002600155565b6040516001600160a01b0383811660248301526044820183905261060f91859182169063a9059cbb906064015b604051602081830303815290604052915060e01b6020820180516001600160e01b038381831617835250505050610f6f565b6105ae8133610fe0565b6000610e4583836107bc565b610ec3576000838152602081815260408083206001600160a01b03861684529091529020805460ff19166001179055610e7b3390565b6001600160a01b0316826001600160a01b0316847f2f8788117e7eff1d82e926ec794901d17c78024a50270940304540a733656f0d60405160405180910390a45060016103ba565b5060006103ba565b6000610ed783836107bc565b15610ec3576000838152602081815260408083206001600160a01b0386168085529252808320805460ff1916905551339286917ff6391f5c32d9c69d2a47ea670b442974b53935d1edc7fd64eb21e047a839171b9190a45060016103ba565b6040516001600160a01b0384811660248301528381166044830152606482018390526105d69186918216906323b872dd90608401610dfd565b600080602060008451602086016000885af180610f92576040513d6000823e3d81fd5b50506000513d91508115610faa578060011415610fb7565b6001600160a01b0384163b155b156105d657604051635274afe760e01b81526001600160a01b0385166004820152602401610546565b610fea82826107bc565b6110195760405163e2517d3f60e01b81526001600160a01b038216600482015260248101839052604401610546565b5050565b60006020828403121561102f57600080fd5b81356001600160e01b03198116811461104757600080fd5b9392505050565b60006020828403121561106057600080fd5b5035919050565b80356001600160a01b038116811461107e57600080fd5b919050565b6000806040838503121561109657600080fd5b823591506110a660208401611067565b90509250929050565b600080604083850312156110c257600080fd5b50508035926020909101359150565b600080600080608085870312156110e757600080fd5b6110f085611067565b93506110fe60208601611067565b93969395505050506040820135916060013590565b60208082526016908201527513985d1a5d99481d1c985b9cd9995c8819985a5b195960521b604082015260600190565b634e487b7160e01b600052601160045260246000fd5b818103818111156103ba576103ba611143565b60006001820161117e5761117e611143565b506001019056febb08418a67729a078f87bbc8d02a770929bb68f5bfdf134ae2ead6ed38e2f4aea264697066735822122037a19b5d5fe51751b1fd9b2b77e426a7177eb7fe02c1f4d798728cfb026c579c64736f6c63430008180033",
  "linkReferences": {},
  "deployedLinkReferences": {}
}