{"contracts/StartupPoolFactory.sol":{"StartupPoolFactory":{"abi":[{"inputs":[{"internalType":"address","name":"admin","type":"address"}],"stateMutability":"nonpayable","type":"constructor"},{"inputs":[],"name":"AccessControlBadConfirmation","type":"error"},{"inputs":[{"internalType":"address","name":"account","type":"address"},{"internalType":"bytes32","name":"neededRole","type":"bytes32"}],"name":"AccessControlUnauthorizedAccount","type":"error"},{"inputs":[],"name":"ZeroAddress","type":"error"},{"anonymous":false,"inputs":[{"indexed":true,"internalType":"address","name":"pool","type":"address"},{"indexed":true,"internalType":"address","name":"asset","type":"address"},{"indexed":true,"internalType":"address","name":"manager","type":"address"},{"indexed":false,"internalType":"string","name":"name","type":"string"},{"indexed":false,"internalType":"string","name":"symbol","type":"string"}],"name":"PoolCreated","type":"event"},{"anonymous":false,"inputs":[{"indexed":true,"internalType":"bytes32","name":"role","type":"bytes32"},{"indexed":true,"internalType":"bytes32","name":"previousAdminRole","type":"bytes32"},{"indexed":true,"internalType":"bytes32","name":"newAdminRole","type":"bytes32"}],"name":"RoleAdminChanged","type":"event"},{"anonymous":false,"inputs":[{"indexed":true,"internalType":"bytes32","name":"role","type":"bytes32"},{"indexed":true,"internalType":"address","name":"account","type":"address"},{"indexed":true,"internalType":"address","name":"sender","type":"address"}],"name":"RoleGranted","type":"event"},{"anonymous":false,"inputs":[{"indexed":true,"internalType":"bytes32","name":"role","type":"bytes32"},{"indexed":true,"internalType":"address","name":"account","type":"address"},{"indexed":true,"internalType":"address","name":"sender","type":"address"}],"name":"RoleRevoked","type":"event"},{"inputs":[],"name":"DEFAULT_ADMIN_ROLE","outputs":[{"internalType":"bytes32","name":"","type":"bytes32"}],"stateMutability":"view","type":"function"},{"inputs":[{"internalType":"uint256","name":"","type":"uint256"}],"name":"allPools","outputs":[{"internalType":"address","name":"","type":"address"}],"stateMutability":"view","type":"function"},{"inputs":[{"internalType":"address","name":"asset","type":"address"},{"internalType":"address","name":"manager","type":"address"},{"internalType":"string","name":"name","type":"string"},{"internalType":"string","name":"symbol","type":"string"}],"name":"createPool","outputs":[{"internalType":"address","name":"pool","type":"address"}],"stateMutability":"nonpayable","type":"function"},{"inputs":[{"internalType":"bytes32","name":"role","type":"bytes32"}],"name":"getRoleAdmin","outputs":[{"internalType":"bytes32","name":"","type":"bytes32"}],"stateMutability":"view","type":"function"},{"inputs":[{"internalType":"bytes32","name":"role","type":"bytes32"},{"internalType":"address","name":"account","type":"address"}],"name":"grantRole","outputs":[],"stateMutability":"nonpayable","type":"function"},{"inputs":[{"internalType":"bytes32","name":"role","type":"bytes32"},{"internalType":"address","name":"account","type":"address"}],"name":"hasRole","outputs":[{"internalType":"bool","name":"","type":"bool"}],"stateMutability":"view","type":"function"},{"inputs":[{"internalType":"address","name":"","type":"address"}],"name":"poolInfo","outputs":[{"internalType":"address","name":"pool","type":"address"},{"internalType":"address","name":"asset","type":"address"},{"internalType":"string","name":"name","type":"string"},{"internalType":"string","name":"symbol","type":"string"}],"stateMutability":"view","type":"function"},{"inputs":[],"name":"poolsCount","outputs":[{"internalType":"uint256","name":"","type":"uint256"}],"stateMutability":"view","type":"function"},{"inputs":[{"internalType":"bytes32","name":"role","type":"bytes32"},{"internalType":"address","name":"callerConfirmation","type":"address"}],"name":"renounceRole","outputs":[],"stateMutability":"nonpayable","type":"function"},{"inputs":[{"internalType":"bytes32","name":"role","type":"bytes32"},{"internalType":"address","name":"account","type":"address"}],"name":"revokeRole","outputs":[],"stateMutability":"nonpayable","type":"function"},{"inputs":[{"internalType":"bytes4","name":"interfaceId","type":"bytes4"}],"name":"supportsInterface","outputs":[{"internalType":"bool","name":"","type":"bool"}],"stateMutability":"view","type":"function"}],"evm":{"bytecode":{"linkReferences":{},"object":"608060405234801561001057600080fd5b5060405161243738038061243783398101604081905261002f91610114565b6001600160a01b0381166100565760405163d92e233d60e01b815260040160405180910390fd5b610061600082610068565b5050610144565b6000828152602081815260408083206001600160a01b038516845290915281205460ff1661010a576000838152602081815260408083206001600160a01b03861684529091529020805460ff191660011790556100c23390565b6001600160a01b0316826001600160a01b0316847f2f8788117e7eff1d82e926ec794901d17c78024a50270940304540a733656f0d60405160405180910390a450600161010e565b5060005b92915050565b60006020828403121561012657600080fd5b81516001600160a01b038116811461013d57600080fd5b9392505050565b6122e4806101536000396000f3fe60806040523480156200001157600080fd5b5060043610620000b75760003560e01c806341d1de97116200007a57806341d1de97146200017d5780638c788de0146200019457806391d14854146200019d5780639a7b5f1114620001b4578063a217fddf14620001dd578063d547741f14620001e657600080fd5b806301ffc9a714620000bc578063248a9ca314620000e85780632f2ff15d146200011d57806336568abe14620001365780633d5c8e31146200014d575b600080fd5b620000d3620000cd3660046200080d565b620001fd565b60405190151581526020015b60405180910390f35b6200010e620000f936600462000840565b60009081526020819052604090206001015490565b604051908152602001620000df565b620001346200012e36600462000877565b62000235565b005b620001346200014736600462000877565b62000264565b620001646200015e366004620008f2565b6200029f565b6040516001600160a01b039091168152602001620000df565b620001646200018e36600462000840565b620004d0565b6001546200010e565b620000d3620001ae36600462000877565b620004fb565b620001cb620001c53660046200098e565b62000524565b604051620000df9493929190620009f4565b6200010e600081565b62000134620001f736600462000877565b6200067c565b60006001600160e01b03198216637965db0b60e01b14806200022f57506301ffc9a760e01b6001600160e01b03198316145b92915050565b6000828152602081905260409020600101546200025281620006a5565b6200025e8383620006b4565b50505050565b6001600160a01b03811633146200028e5760405163334bd91960e11b815260040160405180910390fd5b6200029a82826200074c565b505050565b60006001600160a01b038616620002c95760405163d92e233d60e01b815260040160405180910390fd5b600087338888888888604051620002e090620007ff565b620002f2979695949392919062000a6a565b604051809103906000f0801580156200030f573d6000803e3d6000fd5b506001805480820182556000919091527fb10e2d527612073b26eecdfd717e6a320cf44b4afac2b0732d9fcbe2b7fa0cf60180546001600160a01b0319166001600160a01b0383811691821790925560408051608081018252918252918b166020808301919091528251601f8a018290048202810182018452898152939550859450909291830191908990899081908401838280828437600092019190915250505090825250604080516020601f88018190048102820181019092528681529181019190879087908190840183828082843760009201829052509390945250506001600160a01b03808616825260026020818152604093849020865181549085166001600160a01b0319918216178255918701516001820180549190951692169190911790925591840151909250908201906200044d908262000b6a565b506060820151600382019062000464908262000b6a565b50905050866001600160a01b0316886001600160a01b0316836001600160a01b03167f57fa72db65d4fecacbcef076e81655684fbe945c510289031437fdac51135c5e89898989604051620004bd949392919062000c37565b60405180910390a4509695505050505050565b60018181548110620004e157600080fd5b6000918252602090912001546001600160a01b0316905081565b6000918252602082815260408084206001600160a01b0393909316845291905290205460ff1690565b60026020819052600091825260409091208054600182015492820180546001600160a01b039283169490921692916200055d9062000ada565b80601f01602080910402602001604051908101604052809291908181526020018280546200058b9062000ada565b8015620005dc5780601f10620005b057610100808354040283529160200191620005dc565b820191906000526020600020905b815481529060010190602001808311620005be57829003601f168201915b505050505090806003018054620005f39062000ada565b80601f0160208091040260200160405190810160405280929190818152602001828054620006219062000ada565b8015620006725780601f10620006465761010080835404028352916020019162000672565b820191906000526020600020905b8154815290600101906020018083116200065457829003601f168201915b5050505050905084565b6000828152602081905260409020600101546200069981620006a5565b6200025e83836200074c565b620006b18133620007bb565b50565b6000620006c28383620004fb565b62000743576000838152602081815260408083206001600160a01b03861684529091529020805460ff19166001179055620006fa3390565b6001600160a01b0316826001600160a01b0316847f2f8788117e7eff1d82e926ec794901d17c78024a50270940304540a733656f0d60405160405180910390a45060016200022f565b5060006200022f565b60006200075a8383620004fb565b1562000743576000838152602081815260408083206001600160a01b0386168085529252808320805460ff1916905551339286917ff6391f5c32d9c69d2a47ea670b442974b53935d1edc7fd64eb21e047a839171b9190a45060016200022f565b620007c78282620004fb565b620007fb5760405163e2517d3f60e01b81526001600160a01b03821660048201526024810183905260440160405180910390fd5b5050565b61164c8062000c6383390190565b6000602082840312156200082057600080fd5b81356001600160e01b0319811681146200083957600080fd5b9392505050565b6000602082840312156200085357600080fd5b5035919050565b80356001600160a01b03811681146200087257600080fd5b919050565b600080604083850312156200088b57600080fd5b823591506200089d602084016200085a565b90509250929050565b60008083601f840112620008b957600080fd5b50813567ffffffffffffffff811115620008d257600080fd5b602083019150836020828501011115620008eb57600080fd5b9250929050565b600080600080600080608087890312156200090c57600080fd5b62000917876200085a565b955062000927602088016200085a565b9450604087013567ffffffffffffffff808211156200094557600080fd5b620009538a838b01620008a6565b909650945060608901359150808211156200096d57600080fd5b506200097c89828a01620008a6565b979a9699509497509295939492505050565b600060208284031215620009a157600080fd5b62000839826200085a565b6000815180845260005b81811015620009d457602081850181015186830182015201620009b6565b506000602082860101526020601f19601f83011685010191505092915050565b6001600160a01b0385811682528416602082015260806040820181905260009062000a2290830185620009ac565b828103606084015262000a368185620009ac565b979650505050505050565b81835281816020850137506000828201602090810191909152601f909101601f19169091010190565b6001600160a01b03888116825287811660208301528616604082015260a06060820181905260009062000aa1908301868862000a41565b828103608084015262000ab681858762000a41565b9a9950505050505050505050565b634e487b7160e01b600052604160045260246000fd5b600181811c9082168062000aef57607f821691505b60208210810362000b1057634e487b7160e01b600052602260045260246000fd5b50919050565b601f8211156200029a576000816000526020600020601f850160051c8101602086101562000b415750805b601f850160051c820191505b8181101562000b625782815560010162000b4d565b505050505050565b815167ffffffffffffffff81111562000b875762000b8762000ac4565b62000b9f8162000b98845462000ada565b8462000b16565b602080601f83116001811462000bd7576000841562000bbe5750858301515b600019600386901b1c1916600185901b17855562000b62565b600085815260208120601f198616915b8281101562000c085788860151825594840194600190910190840162000be7565b508582101562000c275787850151600019600388901b60f8161c191681555b5050505050600190811b01905550565b60408152600062000c4d60408301868862000a41565b828103602084015262000a3681858762000a4156fe60a06040523480156200001157600080fd5b506040516200164c3803806200164c83398101604081905262000034916200027b565b60016002556001600160a01b03841615806200005757506001600160a01b038316155b15620000765760405163d92e233d60e01b815260040160405180910390fd5b6001600160a01b0385166080526003620000918382620003af565b506004620000a08282620003af565b50620000ae600085620000e7565b50620000db7f241ecf16d79d0f8dbfb92cbc07fe17840425976cf0667f022fe9877caa831b0884620000e7565b5050505050506200047b565b6000828152602081815260408083206001600160a01b038516845290915281205460ff166200018c576000838152602081815260408083206001600160a01b03861684529091529020805460ff19166001179055620001433390565b6001600160a01b0316826001600160a01b0316847f2f8788117e7eff1d82e926ec794901d17c78024a50270940304540a733656f0d60405160405180910390a450600162000190565b5060005b92915050565b80516001600160a01b0381168114620001ae57600080fd5b919050565b634e487b7160e01b600052604160045260246000fd5b600082601f830112620001db57600080fd5b81516001600160401b0380821115620001f857620001f8620001b3565b604051601f8301601f19908116603f01168101908282118183101715620002235762000223620001b3565b81604052838152602092508660208588010111156200024157600080fd5b600091505b8382101562000265578582018301518183018401529082019062000246565b6000602085830101528094505050505092915050565b600080600080600060a086880312156200029457600080fd5b6200029f8662000196565b9450620002af6020870162000196565b9350620002bf6040870162000196565b60608701519093506001600160401b0380821115620002dd57600080fd5b620002eb89838a01620001c9565b935060808801519150808211156200030257600080fd5b506200031188828901620001c9565b9150509295509295909350565b600181811c908216806200033357607f821691505b6020821081036200035457634e487b7160e01b600052602260045260246000fd5b50919050565b601f821115620003aa576000816000526020600020601f850160051c81016020861015620003855750805b601f850160051c820191505b81811015620003a65782815560010162000391565b5050505b505050565b81516001600160401b03811115620003cb57620003cb620001b3565b620003e381620003dc84546200031e565b846200035a565b602080601f8311600181146200041b5760008415620004025750858301515b600019600386901b1c1916600185901b178555620003a6565b600085815260208120601f198616915b828110156200044c578886015182559484019460019091019084016200042b565b50858210156200046b5787850151600019600388901b60f8161c191681555b5050505050600190811b01905550565b60805161117d620004cf600039600081816101400152818161027201528181610591015281816106870152818161094f015281816109a2015281816109dc01528181610b360152610bb3015261117d6000f3fe6080604052600436106101395760003560e01c80638456cb59116100ab578063c8b2b5461161006f578063c8b2b546146103a3578063d4347f25146103b6578063d547741f146103cc578063ec87621c146103ec578063f3466dfa14610420578063f5eb42dc1461043557600080fd5b80638456cb591461033157806391d148541461034657806399530b0614610366578063a217fddf1461037b578063b6b55f251461039057600080fd5b806338d52e0f116100fd57806338d52e0f146102605780633a98ef39146102ac5780633f4ba83a146102c25780635c975abb146102d75780636022743e146102ef5780636abb2ae81461030f57600080fd5b806301ffc9a71461018d578063248a9ca3146101c25780632e1a7d4d146102005780632f2ff15d1461022057806336568abe1461024057600080fd5b36610188577f00000000000000000000000000000000000000000000000000000000000000006001600160a01b0316156101865760405163162908e360e11b815260040160405180910390fd5b005b600080fd5b34801561019957600080fd5b506101ad6101a8366004610fa1565b610462565b60405190151581526020015b60405180910390f35b3480156101ce57600080fd5b506101f26101dd366004610fd2565b60009081526020819052604090206001015490565b6040519081526020016101b9565b34801561020c57600080fd5b506101f261021b366004610fd2565b610499565b34801561022c57600080fd5b5061018661023b366004611002565b6106f9565b34801561024c57600080fd5b5061018661025b366004611002565b610724565b34801561026c57600080fd5b506102947f000000000000000000000000000000000000000000000000000000000000000081565b6040516001600160a01b0390911681526020016101b9565b3480156102b857600080fd5b506101f260055481565b3480156102ce57600080fd5b5061018661075c565b3480156102e357600080fd5b5060015460ff166101ad565b3480156102fb57600080fd5b5061018661030a366004610fd2565b610772565b34801561031b57600080fd5b50610324610831565b6040516101b9919061102e565b34801561033d57600080fd5b506101866108bf565b34801561035257600080fd5b506101ad610361366004611002565b6108d2565b34801561037257600080fd5b506101f26108fb565b34801561038757600080fd5b506101f2600081565b6101f261039e366004610fd2565b61093b565b6101866103b1366004610fd2565b610ae9565b3480156103c257600080fd5b506101f260065481565b3480156103d857600080fd5b506101866103e7366004611002565b610c24565b3480156103f857600080fd5b506101f27f241ecf16d79d0f8dbfb92cbc07fe17840425976cf0667f022fe9877caa831b0881565b34801561042c57600080fd5b50610324610c49565b34801561044157600080fd5b506101f261045036600461107d565b60076020526000908152604090205481565b60006001600160e01b03198216637965db0b60e01b148061049357506301ffc9a760e01b6001600160e01b03198316145b92915050565b60006104a3610c56565b6104ab610c7c565b816000036104cc57604051631f2a200560e01b815260040160405180910390fd5b336000908152600760205260409020548211156104fc57604051633999656760e01b815260040160405180910390fd5b60055460065461050c90846110ae565b61051691906110c5565b9050806000036105395760405163162908e360e11b815260040160405180910390fd5b33600090815260076020526040812080548492906105589084906110e7565b92505081905550816005600082825461057191906110e7565b92505081905550806006600082825461058a91906110e7565b90915550507f00000000000000000000000000000000000000000000000000000000000000006001600160a01b031661067a57478111156105de576040516396d8043360e01b815260040160405180910390fd5b604051600090339083908381818185875af1925050503d8060008114610620576040519150601f19603f3d011682016040523d82523d6000602084013e610625565b606091505b50509050806106745760405162461bcd60e51b815260206004820152601660248201527513985d1a5d99481d1c985b9cd9995c8819985a5b195960521b60448201526064015b60405180910390fd5b506106ae565b6106ae6001600160a01b037f0000000000000000000000000000000000000000000000000000000000000000163383610ca4565b604080518281526020810184905233917f92ccf450a286a957af52509bc1c9939d1a6a481783e142e41e2499f0bb66ebc691015b60405180910390a26106f46001600255565b919050565b60008281526020819052604090206001015461071481610d03565b61071e8383610d0d565b50505050565b6001600160a01b038116331461074d5760405163334bd91960e11b815260040160405180910390fd5b6107578282610d9f565b505050565b600061076781610d03565b61076f610e0a565b50565b7f241ecf16d79d0f8dbfb92cbc07fe17840425976cf0667f022fe9877caa831b0861079c81610d03565b816000036107bd57604051631f2a200560e01b815260040160405180910390fd5b6006548211156107e0576040516396d8043360e01b815260040160405180910390fd5b81600660008282546107f291906110e7565b909155505060405182815233907fa4325e9537de0993cb7e718526f107525a5d529f2644c35bf9785cce2fe77b66906020015b60405180910390a25050565b6004805461083e906110fa565b80601f016020809104026020016040519081016040528092919081815260200182805461086a906110fa565b80156108b75780601f1061088c576101008083540402835291602001916108b7565b820191906000526020600020905b81548152906001019060200180831161089a57829003601f168201915b505050505081565b60006108ca81610d03565b61076f610e5c565b6000918252602082815260408084206001600160a01b0393909316845291905290205460ff1690565b60006005546000036109145750670de0b6b3a764000090565b60055460065461092c90670de0b6b3a76400006110ae565b61093691906110c5565b905090565b6000610945610c56565b61094d610c7c565b7f00000000000000000000000000000000000000000000000000000000000000006001600160a01b031661097f573491505b816000036109a057604051631f2a200560e01b815260040160405180910390fd5b7f00000000000000000000000000000000000000000000000000000000000000006001600160a01b031615610a0457610a046001600160a01b037f000000000000000000000000000000000000000000000000000000000000000016333085610e97565b6005541580610a135750600654155b15610a1f575080610a3c565b600654600554610a2f90846110ae565b610a3991906110c5565b90505b80600003610a5d5760405163162908e360e11b815260040160405180910390fd5b8060056000828254610a6f9190611134565b925050819055508160066000828254610a889190611134565b90915550503360009081526007602052604081208054839290610aac908490611134565b9091555050604080518381526020810183905233917f73a19dd210f1a7f902193214c0ee91dd35ee5b4d920cba8d519eca65a7b488ca91016106e2565b7f241ecf16d79d0f8dbfb92cbc07fe17840425976cf0667f022fe9877caa831b08610b1381610d03565b81600003610b3457604051631f2a200560e01b815260040160405180910390fd5b7f00000000000000000000000000000000000000000000000000000000000000006001600160a01b0316610b8757813414610b825760405163162908e360e11b815260040160405180910390fd5b610bdb565b3415610ba65760405163162908e360e11b815260040160405180910390fd5b610bdb6001600160a01b037f000000000000000000000000000000000000000000000000000000000000000016333085610e97565b8160066000828254610bed9190611134565b909155505060405182815233907f876606f701ac84659cf9989c916a4734619b8e5e6b68f8dd4d292573f503aff690602001610825565b600082815260208190526040902060010154610c3f81610d03565b61071e8383610d9f565b6003805461083e906110fa565b60015460ff1615610c7a5760405163d93c066560e01b815260040160405180910390fd5b565b6002805403610c9e57604051633ee5aeb560e01b815260040160405180910390fd5b60028055565b6040516001600160a01b0383811660248301526044820183905261075791859182169063a9059cbb906064015b604051602081830303815290604052915060e01b6020820180516001600160e01b038381831617835250505050610ed0565b61076f8133610f41565b6000610d1983836108d2565b610d97576000838152602081815260408083206001600160a01b03861684529091529020805460ff19166001179055610d4f3390565b6001600160a01b0316826001600160a01b0316847f2f8788117e7eff1d82e926ec794901d17c78024a50270940304540a733656f0d60405160405180910390a4506001610493565b506000610493565b6000610dab83836108d2565b15610d97576000838152602081815260408083206001600160a01b0386168085529252808320805460ff1916905551339286917ff6391f5c32d9c69d2a47ea670b442974b53935d1edc7fd64eb21e047a839171b9190a4506001610493565b610e12610f7e565b6001805460ff191690557f5db9ee0a495bf2e6ff9c91a7834c1ba4fdd244a5e8aa4e537bd38aeae4b073aa335b6040516001600160a01b03909116815260200160405180910390a1565b610e64610c56565b6001805460ff1916811790557f62e78cea01bee320cd4e420270b5ea74000d11b0c9f74754ebdbfc544b05a25833610e3f565b6040516001600160a01b03848116602483015283811660448301526064820183905261071e9186918216906323b872dd90608401610cd1565b600080602060008451602086016000885af180610ef3576040513d6000823e3d81fd5b50506000513d91508115610f0b578060011415610f18565b6001600160a01b0384163b155b1561071e57604051635274afe760e01b81526001600160a01b038516600482015260240161066b565b610f4b82826108d2565b610f7a5760405163e2517d3f60e01b81526001600160a01b03821660048201526024810183905260440161066b565b5050565b60015460ff16610c7a57604051638dfc202b60e01b815260040160405180910390fd5b600060208284031215610fb357600080fd5b81356001600160e01b031981168114610fcb57600080fd5b9392505050565b600060208284031215610fe457600080fd5b5035919050565b80356001600160a01b03811681146106f457600080fd5b6000806040838503121561101557600080fd5b8235915061102560208401610feb565b90509250929050565b60006020808352835180602085015260005b8181101561105c57858101830151858201604001528201611040565b506000604082860101526040601f19601f8301168501019250505092915050565b60006020828403121561108f57600080fd5b610fcb82610feb565b634e487b7160e01b600052601160045260246000fd5b808202811582820484141761049357610493611098565b6000826110e257634e487b7160e01b600052601260045260246000fd5b500490565b8181038181111561049357610493611098565b600181811c9082168061110e57607f821691505b60208210810361112e57634e487b7160e01b600052602260045260246000fd5b50919050565b808201808211156104935761049361109856fea2646970667358221220b92bfc0851f9ea36e710cc48dccf83dcbc29d67dbf6d8f68fef8183cab5513ab64736f6c63430008180033a264697066735822122047c3caec7724a706fcdb5252c25202adacaabd9ce80caf333e4a909310fcaa7e64736f6c63430008180033","opcodes":"PUSH1 0x80 PUSH1 0x40 MSTORE CALLVALUE DUP1 ISZERO PUSH2 0x10 JUMPI PUSH1 0x0 DUP1 REVERT JUMPDEST POP PUSH1 0x40 MLOAD PUSH2 0x2437 CODESIZE SUB DUP1 PUSH2 0x2437 DUP4 CODECOPY DUP2 ADD PUSH1 0x40 DUP2 SWAP1 MSTORE PUSH2 0x2F SWAP2 PUSH2 0x114 JUMP JUMPDEST PUSH1 0x1 PUSH1 0x1 PUSH1 0xA0 SHL SUB DUP2 AND PUSH2 0x56 JUMPI PUSH1 0x40 MLOAD PUSH4 0xD92E233D PUSH1 0xE0 SHL DUP2 MSTORE PUSH1 0x4 ADD PUSH1 0x40 MLOAD DUP1 SWAP2 SUB SWAP1 REVERT JUMPDEST PUSH2 0x61 PUSH1 0x0 DUP3 PUSH2 0x68 JUMP JUMPDEST POP POP PUSH2 0x144 JUMP JUMPDEST PUSH1 0x0 DUP3 DUP2 MSTORE PUSH1 0x20 DUP2 DUP2 MSTORE PUSH1 0x40 DUP1 DUP4 KECCAK256 PUSH1 0x1 PUSH1 0x1 PUSH1 0xA0 SHL SUB DUP6 AND DUP5 MSTORE SWAP1 SWAP2 MSTORE DUP2 KECCAK256 SLOAD PUSH1 0xFF AND PUSH2 0x10A JUMPI PUSH1 0x0 DUP4 DUP2 MSTORE PUSH1 0x20 DUP2 DUP2 MSTORE PUSH1 0x40 DUP1 DUP4 KECCAK256 PUSH1 0x1 PUSH1 0x1 PUSH1 0xA0 SHL SUB DUP7 AND DUP5 MSTORE SWAP1 SWAP2 MSTORE SWAP1 KECCAK256 DUP1 SLOAD PUSH1 0xFF NOT AND PUSH1 0x1 OR SWAP1 SSTORE PUSH2 0xC2 CALLER SWAP1 JUMP JUMPDEST PUSH1 0x1 PUSH1 0x1 PUSH1 0xA0 SHL SUB AND DUP3 PUSH1 0x1 PUSH1 0x1 PUSH1 0xA0 SHL SUB AND DUP5 PUSH32 0x2F8788117E7EFF1D82E926EC794901D17C78024A50270940304540A733656F0D PUSH1 0x40 MLOAD PUSH1 0x40 MLOAD DUP1 SWAP2 SUB SWAP1 LOG4 POP PUSH1 0x1 PUSH2 0x10E JUMP JUMPDEST POP PUSH1 0x0 JUMPDEST SWAP3 SWAP2 POP POP JUMP JUMPDEST PUSH1 0x0 PUSH1 0x20 DUP3 DUP5 SUB SLT ISZERO PUSH2 0x126 JUMPI PUSH1 0x0 DUP1 REVERT JUMPDEST DUP2 MLOAD PUSH1 0x1 PUSH1 0x1 PUSH1 0xA0 SHL SUB DUP2 AND DUP2 EQ PUSH2 0x13D JUMPI PUSH1 0x0 DUP1 REVERT JUMPDEST SWAP4 SWAP3 POP POP POP JUMP JUMPDEST PUSH2 0x22E4 DUP1 PUSH2 0x153 PUSH1 0x0 CODECOPY PUSH1 0x0 RETURN INVALID PUSH1 0x80 PUSH1 0x40 MSTORE CALLVALUE DUP1 ISZERO PUSH3 0x11 JUMPI PUSH1 0x0 DUP1 REVERT JUMPDEST POP PUSH1 0x4 CALLDATASIZE LT PUSH3 0xB7 JUMPI PUSH1 0x0 CALLDATALOAD PUSH1 0xE0 SHR DUP1 PUSH4 0x41D1DE97 GT PUSH3 0x7A JUMPI DUP1 PUSH4 0x41D1DE97 EQ PUSH3 0x17D JUMPI DUP1 PUSH4 0x8C788DE0 EQ PUSH3 0x194 JUMPI DUP1 PUSH4 0x91D14854 EQ PUSH3 0x19D JUMPI DUP1 PUSH4 0x9A7B5F11 EQ PUSH3 0x1B4 JUMPI DUP1 PUSH4 0xA217FDDF EQ PUSH3 0x1DD JUMPI DUP1 PUSH4 0xD547741F EQ PUSH3 0x1E6 JUMPI PUSH1 0x0 DUP1 REVERT JUMPDEST DUP1 PUSH4 0x1FFC9A7 EQ PUSH3 0xBC JUMPI DUP1 PUSH4 0x248A9CA3 EQ PUSH3 0xE8 JUMPI DUP1 PUSH4 0x2F2FF15D EQ PUSH3 0x11D JUMPI DUP1 PUSH4 0x36568ABE EQ PUSH3 0x136 JUMPI DUP1 PUSH4 0x3D5C8E31 EQ PUSH3 0x14D JUMPI JUMPDEST PUSH1 0x0 DUP1 REVERT JUMPDEST PUSH3 0xD3 PUSH3 0xCD CALLDATASIZE PUSH1 0x4 PUSH3 0x80D JUMP JUMPDEST PUSH3 0x1FD JUMP JUMPDEST PUSH1 0x40 MLOAD SWAP1 ISZERO ISZERO DUP2 MSTORE PUSH1 0x20 ADD JUMPDEST PUSH1 0x40 MLOAD DUP1 SWAP2 SUB SWAP1 RETURN JUMPDEST PUSH3 0x10E PUSH3 0xF9 CALLDATASIZE PUSH1 0x4 PUSH3 0x840 JUMP JUMPDEST PUSH1 0x0 SWAP1 DUP2 MSTORE PUSH1 0x20 DUP2 SWAP1 MSTORE PUSH1 0x40 SWAP1 KECCAK256 PUSH1 0x1 ADD SLOAD SWAP1 JUMP JUMPDEST PUSH1 0x40 MLOAD SWAP1 DUP2 MSTORE PUSH1 0x20 ADD PUSH3 0xDF JUMP JUMPDEST PUSH3 0x134 PUSH3 0x12E CALLDATASIZE PUSH1 0x4 PUSH3 0x877 JUMP JUMPDEST PUSH3 0x235 JUMP JUMPDEST STOP JUMPDEST PUSH3 0x134 PUSH3 0x147 CALLDATASIZE PUSH1 0x4 PUSH3 0x877 JUMP JUMPDEST PUSH3 0x264 JUMP JUMPDEST PUSH3 0x164 PUSH3 0x15E CALLDATASIZE PUSH1 0x4 PUSH3 0x8F2 JUMP JUMPDEST PUSH3 0x29F JUMP JUMPDEST PUSH1 0x40 MLOAD PUSH1 0x1 PUSH1 0x1 PUSH1 0xA0 SHL SUB SWAP1 SWAP2 AND DUP2 MSTORE PUSH1 0x20 ADD PUSH3 0xDF JUMP JUMPDEST PUSH3 0x164 PUSH3 0x18E CALLDATASIZE PUSH1 0x4 PUSH3 0x840 JUMP JUMPDEST PUSH3 0x4D0 JUMP JUMPDEST PUSH1 0x1 SLOAD PUSH3 0x10E JUMP JUMPDEST PUSH3 0xD3 PUSH3 0x1AE CALLDATASIZE PUSH1 0x4 PUSH3 0x877 JUMP JUMPDEST PUSH3 0x4FB JUMP JUMPDEST PUSH3 0x1CB PUSH3 0x1C5 CALLDATASIZE PUSH1 0x4 PUSH3 0x98E JUMP JUMPDEST PUSH3 0x524 JUMP JUMPDEST PUSH1 0x40 MLOAD PUSH3 0xDF SWAP5 SWAP4 SWAP3 SWAP2 SWAP1 PUSH3 0x9F4 JUMP JUMPDEST PUSH3 0x10E PUSH1 0x0 DUP2 JUMP JUMPDEST PUSH3 0x134 PUSH3 0x1F7 CALLDATASIZE PUSH1 0x4 PUSH3 0x877 JUMP JUMPDEST PUSH3 0x67C JUMP JUMPDEST PUSH1 0x0 PUSH1 0x1 PUSH1 0x1 PUSH1 0xE0 SHL SUB NOT DUP3 AND PUSH4 0x7965DB0B PUSH1 0xE0 SHL EQ DUP1 PUSH3 0x22F JUMPI POP PUSH4 0x1FFC9A7 PUSH1 0xE0 SHL PUSH1 0x1 PUSH1 0x1 PUSH1 0xE0 SHL SUB NOT DUP4 AND EQ JUMPDEST SWAP3 SWAP2 POP POP JUMP JUMPDEST PUSH1 0x0 DUP3 DUP2 MSTORE PUSH1 0x20 DUP2 SWAP1 MSTORE PUSH1 0x40 SWAP1 KECCAK256 PUSH1 0x1 ADD SLOAD PUSH3 0x252 DUP2 PUSH3 0x6A5 JUMP JUMPDEST PUSH3 0x25E DUP4 DUP4 PUSH3 0x6B4 JUMP JUMPDEST POP POP POP POP JUMP JUMPDEST PUSH1 0x1 PUSH1 0x1 PUSH1 0xA0 SHL SUB DUP2 AND CALLER EQ PUSH3 0x28E JUMPI PUSH1 0x40 MLOAD PUSH4 0x334BD919 PUSH1 0xE1 SHL DUP2 MSTORE PUSH1 0x4 ADD PUSH1 0x40 MLOAD DUP1 SWAP2 SUB SWAP1 REVERT JUMPDEST PUSH3 0x29A DUP3 DUP3 PUSH3 0x74C JUMP JUMPDEST POP POP POP JUMP JUMPDEST PUSH1 0x0 PUSH1 0x1 PUSH1 0x1 PUSH1 0xA0 SHL SUB DUP7 AND PUSH3 0x2C9 JUMPI PUSH1 0x40 MLOAD PUSH4 0xD92E233D PUSH1 0xE0 SHL DUP2 MSTORE PUSH1 0x4 ADD PUSH1 0x40 MLOAD DUP1 SWAP2 SUB SWAP1 REVERT JUMPDEST PUSH1 0x0 DUP8 CALLER DUP9 DUP9 DUP9 DUP9 DUP9 PUSH1 0x40 MLOAD PUSH3 0x2E0 SWAP1 PUSH3 0x7FF JUMP JUMPDEST PUSH3 0x2F2 SWAP8 SWAP7 SWAP6 SWAP5 SWAP4 SWAP3 SWAP2 SWAP1 PUSH3 0xA6A JUMP JUMPDEST PUSH1 0x40 MLOAD DUP1 SWAP2 SUB SWAP1 PUSH1 0x0 CREATE DUP1 ISZERO DUP1 ISZERO PUSH3 0x30F JUMPI RETURNDATASIZE PUSH1 0x0 DUP1 RETURNDATACOPY RETURNDATASIZE PUSH1 0x0 REVERT JUMPDEST POP PUSH1 0x1 DUP1 SLOAD DUP1 DUP3 ADD DUP3 SSTORE PUSH1 0x0 SWAP2 SWAP1 SWAP2 MSTORE PUSH32 0xB10E2D527612073B26EECDFD717E6A320CF44B4AFAC2B0732D9FCBE2B7FA0CF6 ADD DUP1 SLOAD PUSH1 0x1 PUSH1 0x1 PUSH1 0xA0 SHL SUB NOT AND PUSH1 0x1 PUSH1 0x1 PUSH1 0xA0 SHL SUB DUP4 DUP2 AND SWAP2 DUP3 OR SWAP1 SWAP3 SSTORE PUSH1 0x40 DUP1 MLOAD PUSH1 0x80 DUP2 ADD DUP3 MSTORE SWAP2 DUP3 MSTORE SWAP2 DUP12 AND PUSH1 0x20 DUP1 DUP4 ADD SWAP2 SWAP1 SWAP2 MSTORE DUP3 MLOAD PUSH1 0x1F DUP11 ADD DUP3 SWAP1 DIV DUP3 MUL DUP2 ADD DUP3 ADD DUP5 MSTORE DUP10 DUP2 MSTORE SWAP4 SWAP6 POP DUP6 SWAP5 POP SWAP1 SWAP3 SWAP2 DUP4 ADD SWAP2 SWAP1 DUP10 SWAP1 DUP10 SWAP1 DUP2 SWAP1 DUP5 ADD DUP4 DUP3 DUP1 DUP3 DUP5 CALLDATACOPY PUSH1 0x0 SWAP3 ADD SWAP2 SWAP1 SWAP2 MSTORE POP POP POP SWAP1 DUP3 MSTORE POP PUSH1 0x40 DUP1 MLOAD PUSH1 0x20 PUSH1 0x1F DUP9 ADD DUP2 SWAP1 DIV DUP2 MUL DUP3 ADD DUP2 ADD SWAP1 SWAP3 MSTORE DUP7 DUP2 MSTORE SWAP2 DUP2 ADD SWAP2 SWAP1 DUP8 SWAP1 DUP8 SWAP1 DUP2 SWAP1 DUP5 ADD DUP4 DUP3 DUP1 DUP3 DUP5 CALLDATACOPY PUSH1 0x0 SWAP3 ADD DUP3 SWAP1 MSTORE POP SWAP4 SWAP1 SWAP5 MSTORE POP POP PUSH1 0x1 PUSH1 0x1 PUSH1 0xA0 SHL SUB DUP1 DUP7 AND DUP3 MSTORE PUSH1 0x2 PUSH1 0x20 DUP2 DUP2 MSTORE PUSH1 0x40 SWAP4 DUP5 SWAP1 KECCAK256 DUP7 MLOAD DUP2 SLOAD SWAP1 DUP6 AND PUSH1 0x1 PUSH1 0x1 PUSH1 0xA0 SHL SUB NOT SWAP2 DUP3 AND OR DUP3 SSTORE SWAP2 DUP8 ADD MLOAD PUSH1 0x1 DUP3 ADD DUP1 SLOAD SWAP2 SWAP1 SWAP6 AND SWAP3 AND SWAP2 SWAP1 SWAP2 OR SWAP1 SWAP3 SSTORE SWAP2 DUP5 ADD MLOAD SWAP1 SWAP3 POP SWAP1 DUP3 ADD SWAP1 PUSH3 0x44D SWAP1 DUP3 PUSH3 0xB6A JUMP JUMPDEST POP PUSH1 0x60 DUP3 ADD MLOAD PUSH1 0x3 DUP3 ADD SWAP1 PUSH3 0x464 SWAP1 DUP3 PUSH3 0xB6A JUMP JUMPDEST POP SWAP1 POP POP DUP7 PUSH1 0x1 PUSH1 0x1 PUSH1 0xA0 SHL SUB AND DUP9 PUSH1 0x1 PUSH1 0x1 PUSH1 0xA0 SHL SUB AND DUP4 PUSH1 0x1 PUSH1 0x1 PUSH1 0xA0 SHL SUB AND PUSH32 0x57FA72DB65D4FECACBCEF076E81655684FBE945C510289031437FDAC51135C5E DUP10 DUP10 DUP10 DUP10 PUSH1 0x40 MLOAD PUSH3 0x4BD SWAP5 SWAP4 SWAP3 SWAP2 SWAP1 PUSH3 0xC37 JUMP JUMPDEST PUSH1 0x40 MLOAD DUP1 SWAP2 SUB SWAP1 LOG4 POP SWAP7 SWAP6 POP POP POP POP POP POP JUMP JUMPDEST PUSH1 0x1 DUP2 DUP2 SLOAD DUP2 LT PUSH3 0x4E1 JUMPI PUSH1 0x0 DUP1 REVERT JUMPDEST PUSH1 0x0 SWAP2 DUP3 MSTORE PUSH1 0x20 SWAP1 SWAP2 KECCAK256 ADD SLOAD PUSH1 0x1 PUSH1 0x1 PUSH1 0xA0 SHL SUB AND SWAP1 POP DUP2 JUMP JUMPDEST PUSH1 0x0 SWAP2 DUP3 MSTORE PUSH1 0x20 DUP3 DUP2 MSTORE PUSH1 0x40 DUP1 DUP5 KECCAK256 PUSH1 0x1 PUSH1 0x1 PUSH1 0xA0 SHL SUB SWAP4 SWAP1 SWAP4 AND DUP5 MSTORE SWAP2 SWAP1 MSTORE SWAP1 KECCAK256 SLOAD PUSH1 0xFF AND SWAP1 JUMP JUMPDEST PUSH1 0x2 PUSH1 0x20 DUP2 SWAP1 MSTORE PUSH1 0x0 SWAP2 DUP3 MSTORE PUSH1 0x40 SWAP1 SWAP2 KECCAK256 DUP1 SLOAD PUSH1 0x1 DUP3 ADD SLOAD SWAP3 DUP3 ADD DUP1 SLOAD PUSH1 0x1 PUSH1 0x1 PUSH1 0xA0 SHL SUB SWAP3 DUP4 AND SWAP5 SWAP1 SWAP3 AND SWAP3 SWAP2 PUSH3 0x55D SWAP1 PUSH3 0xADA JUMP JUMPDEST DUP1 PUSH1 0x1F ADD PUSH1 0x20 DUP1 SWAP2 DIV MUL PUSH1 0x20 ADD PUSH1 0x40 MLOAD SWAP1 DUP2 ADD PUSH1 0x40 MSTORE DUP1 SWAP3 SWAP2 SWAP1 DUP2 DUP2 MSTORE PUSH1 0x20 ADD DUP3 DUP1 SLOAD PUSH3 0x58B SWAP1 PUSH3 0xADA JUMP JUMPDEST DUP1 ISZERO PUSH3 0x5DC JUMPI DUP1 PUSH1 0x1F LT PUSH3 0x5B0 JUMPI PUSH2 0x100 DUP1 DUP4 SLOAD DIV MUL DUP4 MSTORE SWAP2 PUSH1 0x20 ADD SWAP2 PUSH3 0x5DC JUMP JUMPDEST DUP3 ADD SWAP2 SWAP1 PUSH1 0x0 MSTORE PUSH1 0x20 PUSH1 0x0 KECCAK256 SWAP1 JUMPDEST DUP2 SLOAD DUP2 MSTORE SWAP1 PUSH1 0x1 ADD SWAP1 PUSH1 0x20 ADD DUP1 DUP4 GT PUSH3 0x5BE JUMPI DUP3 SWAP1 SUB PUSH1 0x1F AND DUP3 ADD SWAP2 JUMPDEST POP POP POP POP POP SWAP1 DUP1 PUSH1 0x3 ADD DUP1 SLOAD PUSH3 0x5F3 SWAP1 PUSH3 0xADA JUMP JUMPDEST DUP1 PUSH1 0x1F ADD PUSH1 0x20 DUP1 SWAP2 DIV MUL PUSH1 0x20 ADD PUSH1 0x40 MLOAD SWAP1 DUP2 ADD PUSH1 0x40 MSTORE DUP1 SWAP3 SWAP2 SWAP1 DUP2 DUP2 MSTORE PUSH1 0x20 ADD DUP3 DUP1 SLOAD PUSH3 0x621 SWAP1 PUSH3 0xADA JUMP JUMPDEST DUP1 ISZERO PUSH3 0x672 JUMPI DUP1 PUSH1 0x1F LT PUSH3 0x646 JUMPI PUSH2 0x100 DUP1 DUP4 SLOAD DIV MUL DUP4 MSTORE SWAP2 PUSH1 0x20 ADD SWAP2 PUSH3 0x672 JUMP JUMPDEST DUP3 ADD SWAP2 SWAP1 PUSH1 0x0 MSTORE PUSH1 0x20 PUSH1 0x0 KECCAK256 SWAP1 JUMPDEST DUP2 SLOAD DUP2 MSTORE SWAP1 PUSH1 0x1 ADD SWAP1 PUSH1 0x20 ADD DUP1 DUP4 GT PUSH3 0x654 JUMPI DUP3 SWAP1 SUB PUSH1 0x1F AND DUP3 ADD SWAP2 JUMPDEST POP POP POP POP POP SWAP1 POP DUP5 JUMP JUMPDEST PUSH1 0x0 DUP3 DUP2 MSTORE PUSH1 0x20 DUP2 SWAP1 MSTORE PUSH1 0x40 SWAP1 KECCAK256 PUSH1 0x1 ADD SLOAD PUSH3 0x699 DUP2 PUSH3 0x6A5 JUMP JUMPDEST PUSH3 0x25E DUP4 DUP4 PUSH3 0x74C JUMP JUMPDEST PUSH3 0x6B1 DUP2 CALLER PUSH3 0x7BB JUMP JUMPDEST POP JUMP JUMPDEST PUSH1 0x0 PUSH3 0x6C2 DUP4 DUP4 PUSH3 0x4FB JUMP JUMPDEST PUSH3 0x743 JUMPI PUSH1 0x0 DUP4 DUP2 MSTORE PUSH1 0x20 DUP2 DUP2 MSTORE PUSH1 0x40 DUP1 DUP4 KECCAK256 PUSH1 0x1 PUSH1 0x1 PUSH1 0xA0 SHL SUB DUP7 AND DUP5 MSTORE SWAP1 SWAP2 MSTORE SWAP1 KECCAK256 DUP1 SLOAD PUSH1 0xFF NOT AND PUSH1 0x1 OR SWAP1 SSTORE PUSH3 0x6FA CALLER SWAP1 JUMP JUMPDEST PUSH1 0x1 PUSH1 0x1 PUSH1 0xA0 SHL SUB AND DUP3 PUSH1 0x1 PUSH1 0x1 PUSH1 0xA0 SHL SUB AND DUP5 PUSH32 0x2F8788117E7EFF1D82E926EC794901D17C78024A50270940304540A733656F0D PUSH1 0x40 MLOAD PUSH1 0x40 MLOAD DUP1 SWAP2 SUB SWAP1 LOG4 POP PUSH1 0x1 PUSH3 0x22F JUMP JUMPDEST POP PUSH1 0x0 PUSH3 0x22F JUMP JUMPDEST PUSH1 0x0 PUSH3 0x75A DUP4 DUP4 PUSH3 0x4FB JUMP JUMPDEST ISZERO PUSH3 0x743 JUMPI PUSH1 0x0 DUP4 DUP2 MSTORE PUSH1 0x20 DUP2 DUP2 MSTORE PUSH1 0x40 DUP1 DUP4 KECCAK256 PUSH1 0x1 PUSH1 0x1 PUSH1 0xA0 SHL SUB DUP7 AND DUP1 DUP6 MSTORE SWAP3 MSTORE DUP1 DUP4 KECCAK256 DUP1 SLOAD PUSH1 0xFF NOT AND SWAP1 SSTORE MLOAD CALLER SWAP3 DUP7 SWAP2 PUSH32 0xF6391F5C32D9C69D2A47EA670B442974B53935D1EDC7FD64EB21E047A839171B SWAP2 SWAP1 LOG4 POP PUSH1 0x1 PUSH3 0x22F JUMP JUMPDEST PUSH3 0x7C7 DUP3 DUP3 PUSH3 0x4FB JUMP JUMPDEST PUSH3 0x7FB JUMPI PUSH1 0x40 MLOAD PUSH4 0xE2517D3F PUSH1 0xE0 SHL DUP2 MSTORE PUSH1 0x1 PUSH1 0x1 PUSH1 0xA0 SHL SUB DUP3 AND PUSH1 0x4 DUP3 ADD MSTORE PUSH1 0x24 DUP2 ADD DUP4 SWAP1 MSTORE PUSH1 0x44 ADD PUSH1 0x40 MLOAD DUP1 SWAP2 SUB SWAP1 REVERT JUMPDEST POP POP JUMP JUMPDEST PUSH2 0x164C DUP1 PUSH3 0xC63 DUP4 CODECOPY ADD SWAP1 JUMP JUMPDEST PUSH1 0x0 PUSH1 0x20 DUP3 DUP5 SUB SLT ISZERO PUSH3 0x820 JUMPI PUSH1 0x0 DUP1 REVERT JUMPDEST DUP2 CALLDATALOAD PUSH1 0x1 PUSH1 0x1 PUSH1 0xE0 SHL SUB NOT DUP2 AND DUP2 EQ PUSH3 0x839 JUMPI PUSH1 0x0 DUP1 REVERT JUMPDEST SWAP4 SWAP3 POP POP POP JUMP JUMPDEST PUSH1 0x0 PUSH1 0x20 DUP3 DUP5 SUB SLT ISZERO PUSH3 0x853 JUMPI PUSH1 0x0 DUP1 REVERT JUMPDEST POP CALLDATALOAD SWAP2 SWAP1 POP JUMP JUMPDEST DUP1 CALLDATALOAD PUSH1 0x1 PUSH1 0x1 PUSH1 0xA0 SHL SUB DUP2 AND DUP2 EQ PUSH3 0x872 JUMPI PUSH1 0x0 DUP1 REVERT JUMPDEST SWAP2 SWAP1 POP JUMP JUMPDEST PUSH1 0x0 DUP1 PUSH1 0x40 DUP4 DUP6 SUB SLT ISZERO PUSH3 0x88B JUMPI PUSH1 0x0 DUP1 REVERT JUMPDEST DUP3 CALLDATALOAD SWAP2 POP PUSH3 0x89D PUSH1 0x20 DUP5 ADD PUSH3 0x85A JUMP JUMPDEST SWAP1 POP SWAP3 POP SWAP3 SWAP1 POP JUMP JUMPDEST PUSH1 0x0 DUP1 DUP4 PUSH1 0x1F DUP5 ADD SLT PUSH3 0x8B9 JUMPI PUSH1 0x0 DUP1 REVERT JUMPDEST POP DUP2 CALLDATALOAD PUSH8 0xFFFFFFFFFFFFFFFF DUP2 GT ISZERO PUSH3 0x8D2 JUMPI PUSH1 0x0 DUP1 REVERT JUMPDEST PUSH1 0x20 DUP4 ADD SWAP2 POP DUP4 PUSH1 0x20 DUP3 DUP6 ADD ADD GT ISZERO PUSH3 0x8EB JUMPI PUSH1 0x0 DUP1 REVERT JUMPDEST SWAP3 POP SWAP3 SWAP1 POP JUMP JUMPDEST PUSH1 0x0 DUP1 PUSH1 0x0 DUP1 PUSH1 0x0 DUP1 PUSH1 0x80 DUP8 DUP10 SUB SLT ISZERO PUSH3 0x90C JUMPI PUSH1 0x0 DUP1 REVERT JUMPDEST PUSH3 0x917 DUP8 PUSH3 0x85A JUMP JUMPDEST SWAP6 POP PUSH3 0x927 PUSH1 0x20 DUP9 ADD PUSH3 0x85A JUMP JUMPDEST SWAP5 POP PUSH1 0x40 DUP8 ADD CALLDATALOAD PUSH8 0xFFFFFFFFFFFFFFFF DUP1 DUP3 GT ISZERO PUSH3 0x945 JUMPI PUSH1 0x0 DUP1 REVERT JUMPDEST PUSH3 0x953 DUP11 DUP4 DUP12 ADD PUSH3 0x8A6 JUMP JUMPDEST SWAP1 SWAP7 POP SWAP5 POP PUSH1 0x60 DUP10 ADD CALLDATALOAD SWAP2 POP DUP1 DUP3 GT ISZERO PUSH3 0x96D JUMPI PUSH1 0x0 DUP1 REVERT JUMPDEST POP PUSH3 0x97C DUP10 DUP3 DUP11 ADD PUSH3 0x8A6 JUMP JUMPDEST SWAP8 SWAP11 SWAP7 SWAP10 POP SWAP5 SWAP8 POP SWAP3 SWAP6 SWAP4 SWAP5 SWAP3 POP POP POP JUMP JUMPDEST PUSH1 0x0 PUSH1 0x20 DUP3 DUP5 SUB SLT ISZERO PUSH3 0x9A1 JUMPI PUSH1 0x0 DUP1 REVERT JUMPDEST PUSH3 0x839 DUP3 PUSH3 0x85A JUMP JUMPDEST PUSH1 0x0 DUP2 MLOAD DUP1 DUP5 MSTORE PUSH1 0x0 JUMPDEST DUP2 DUP2 LT ISZERO PUSH3 0x9D4 JUMPI PUSH1 0x20 DUP2 DUP6 ADD DUP2 ADD MLOAD DUP7 DUP4 ADD DUP3 ADD MSTORE ADD PUSH3 0x9B6 JUMP JUMPDEST POP PUSH1 0x0 PUSH1 0x20 DUP3 DUP7 ADD ADD MSTORE PUSH1 0x20 PUSH1 0x1F NOT PUSH1 0x1F DUP4 ADD AND DUP6 ADD ADD SWAP2 POP POP SWAP3 SWAP2 POP POP JUMP JUMPDEST PUSH1 0x1 PUSH1 0x1 PUSH1 0xA0 SHL SUB DUP6 DUP2 AND DUP3 MSTORE DUP5 AND PUSH1 0x20 DUP3 ADD MSTORE PUSH1 0x80 PUSH1 0x40 DUP3 ADD DUP2 SWAP1 MSTORE PUSH1 0x0 SWAP1 PUSH3 0xA22 SWAP1 DUP4 ADD DUP6 PUSH3 0x9AC JUMP JUMPDEST DUP3 DUP2 SUB PUSH1 0x60 DUP5 ADD MSTORE PUSH3 0xA36 DUP2 DUP6 PUSH3 0x9AC JUMP JUMPDEST SWAP8 SWAP7 POP POP POP POP POP POP POP JUMP JUMPDEST DUP2 DUP4 MSTORE DUP2 DUP2 PUSH1 0x20 DUP6 ADD CALLDATACOPY POP PUSH1 0x0 DUP3 DUP3 ADD PUSH1 0x20 SWAP1 DUP2 ADD SWAP2 SWAP1 SWAP2 MSTORE PUSH1 0x1F SWAP1 SWAP2 ADD PUSH1 0x1F NOT AND SWAP1 SWAP2 ADD ADD SWAP1 JUMP JUMPDEST PUSH1 0x1 PUSH1 0x1 PUSH1 0xA0 SHL SUB DUP9 DUP2 AND DUP3 MSTORE DUP8 DUP2 AND PUSH1 0x20 DUP4 ADD MSTORE DUP7 AND PUSH1 0x40 DUP3 ADD MSTORE PUSH1 0xA0 PUSH1 0x60 DUP3 ADD DUP2 SWAP1 MSTORE PUSH1 0x0 SWAP1 PUSH3 0xAA1 SWAP1 DUP4 ADD DUP7 DUP9 PUSH3 0xA41 JUMP JUMPDEST DUP3 DUP2 SUB PUSH1 0x80 DUP5 ADD MSTORE PUSH3 0xAB6 DUP2 DUP6 DUP8 PUSH3 0xA41 JUMP JUMPDEST SWAP11 SWAP10 POP POP POP POP POP POP POP POP POP POP JUMP JUMPDEST PUSH4 0x4E487B71 PUSH1 0xE0 SHL PUSH1 0x0 MSTORE PUSH1 0x41 PUSH1 0x4 MSTORE PUSH1 0x24 PUSH1 0x0 REVERT JUMPDEST PUSH1 0x1 DUP2 DUP2 SHR SWAP1 DUP3 AND DUP1 PUSH3 0xAEF JUMPI PUSH1 0x7F DUP3 AND SWAP2 POP JUMPDEST PUSH1 0x20 DUP3 LT DUP2 SUB PUSH3 0xB10 JUMPI PUSH4 0x4E487B71 PUSH1 0xE0 SHL PUSH1 0x0 MSTORE PUSH1 0x22 PUSH1 0x4 MSTORE PUSH1 0x24 PUSH1 0x0 REVERT JUMPDEST POP SWAP2 SWAP1 POP JUMP JUMPDEST PUSH1 0x1F DUP3 GT ISZERO PUSH3 0x29A JUMPI PUSH1 0x0 DUP2 PUSH1 0x0 MSTORE PUSH1 0x20 PUSH1 0x0 KECCAK256 PUSH1 0x1F DUP6 ADD PUSH1 0x5 SHR DUP2 ADD PUSH1 0x20 DUP7 LT ISZERO PUSH3 0xB41 JUMPI POP DUP1 JUMPDEST PUSH1 0x1F DUP6 ADD PUSH1 0x5 SHR DUP3 ADD SWAP2 POP JUMPDEST DUP2 DUP2 LT ISZERO PUSH3 0xB62 JUMPI DUP3 DUP2 SSTORE PUSH1 0x1 ADD PUSH3 0xB4D JUMP JUMPDEST POP POP POP POP POP POP JUMP JUMPDEST DUP2 MLOAD PUSH8 0xFFFFFFFFFFFFFFFF DUP2 GT ISZERO PUSH3 0xB87 JUMPI PUSH3 0xB87 PUSH3 0xAC4 JUMP JUMPDEST PUSH3 0xB9F DUP2 PUSH3 0xB98 DUP5 SLOAD PUSH3 0xADA JUMP JUMPDEST DUP5 PUSH3 0xB16 JUMP JUMPDEST PUSH1 0x20 DUP1 PUSH1 0x1F DUP4 GT PUSH1 0x1 DUP2 EQ PUSH3 0xBD7 JUMPI PUSH1 0x0 DUP5 ISZERO PUSH3 0xBBE JUMPI POP DUP6 DUP4 ADD MLOAD JUMPDEST PUSH1 0x0 NOT PUSH1 0x3 DUP7 SWAP1 SHL SHR NOT AND PUSH1 0x1 DUP6 SWAP1 SHL OR DUP6 SSTORE PUSH3 0xB62 JUMP JUMPDEST PUSH1 0x0 DUP6 DUP2 MSTORE PUSH1 0x20 DUP2 KECCAK256 PUSH1 0x1F NOT DUP7 AND SWAP2 JUMPDEST DUP3 DUP2 LT ISZERO PUSH3 0xC08 JUMPI DUP9 DUP7 ADD MLOAD DUP3 SSTORE SWAP5 DUP5 ADD SWAP5 PUSH1 0x1 SWAP1 SWAP2 ADD SWAP1 DUP5 ADD PUSH3 0xBE7 JUMP JUMPDEST POP DUP6 DUP3 LT ISZERO PUSH3 0xC27 JUMPI DUP8 DUP6 ADD MLOAD PUSH1 0x0 NOT PUSH1 0x3 DUP9 SWAP1 SHL PUSH1 0xF8 AND SHR NOT AND DUP2 SSTORE JUMPDEST POP POP POP POP POP PUSH1 0x1 SWAP1 DUP2 SHL ADD SWAP1 SSTORE POP JUMP JUMPDEST PUSH1 0x40 DUP2 MSTORE PUSH1 0x0 PUSH3 0xC4D PUSH1 0x40 DUP4 ADD DUP7 DUP9 PUSH3 0xA41 JUMP JUMPDEST DUP3 DUP2 SUB PUSH1 0x20 DUP5 ADD MSTORE PUSH3 0xA36 DUP2 DUP6 DUP8 PUSH3 0xA41 JUMP INVALID PUSH1 0xA0 PUSH1 0x40 MSTORE CALLVALUE DUP1 ISZERO PUSH3 0x11 JUMPI PUSH1 0x0 DUP1 REVERT JUMPDEST POP PUSH1 0x40 MLOAD PUSH3 0x164C CODESIZE SUB DUP1 PUSH3 0x164C DUP4 CODECOPY DUP2 ADD PUSH1 0x40 DUP2 SWAP1 MSTORE PUSH3 0x34 SWAP2 PUSH3 0x27B JUMP JUMPDEST PUSH1 0x1 PUSH1 0x2 SSTORE PUSH1 0x1 PUSH1 0x1 PUSH1 0xA0 SHL SUB DUP5 AND ISZERO DUP1 PUSH3 0x57 JUMPI POP PUSH1 0x1 PUSH1 0x1 PUSH1 0xA0 SHL SUB DUP4 AND ISZERO JUMPDEST ISZERO PUSH3 0x76 JUMPI PUSH1 0x40 MLOAD PUSH4 0xD92E233D PUSH1 0xE0 SHL DUP2 MSTORE PUSH1 0x4 ADD PUSH1 0x40 MLOAD DUP1 SWAP2 SUB SWAP1 REVERT JUMPDEST PUSH1 0x1 PUSH1 0x1 PUSH1 0xA0 SHL SUB DUP6 AND PUSH1 0x80 MSTORE PUSH1 0x3 PUSH3 0x91 DUP4 DUP3 PUSH3 0x3AF JUMP JUMPDEST POP PUSH1 0x4 PUSH3 0xA0 DUP3 DUP3 PUSH3 0x3AF JUMP JUMPDEST POP PUSH3 0xAE PUSH1 0x0 DUP6 PUSH3 0xE7 JUMP JUMPDEST POP PUSH3 0xDB PUSH32 0x241ECF16D79D0F8DBFB92CBC07FE17840425976CF0667F022FE9877CAA831B08 DUP5 PUSH3 0xE7 JUMP JUMPDEST POP POP POP POP POP POP PUSH3 0x47B JUMP JUMPDEST PUSH1 0x0 DUP3 DUP2 MSTORE PUSH1 0x20 DUP2 DUP2 MSTORE PUSH1 0x40 DUP1 DUP4 KECCAK256 PUSH1 0x1 PUSH1 0x1 PUSH1 0xA0 SHL SUB DUP6 AND DUP5 MSTORE SWAP1 SWAP2 MSTORE DUP2 KECCAK256 SLOAD PUSH1 0xFF AND PUSH3 0x18C JUMPI PUSH1 0x0 DUP4 DUP2 MSTORE PUSH1 0x20 DUP2 DUP2 MSTORE PUSH1 0x40 DUP1 DUP4 KECCAK256 PUSH1 0x1 PUSH1 0x1 PUSH1 0xA0 SHL SUB DUP7 AND DUP5 MSTORE SWAP1 SWAP2 MSTORE SWAP1 KECCAK256 DUP1 SLOAD PUSH1 0xFF NOT AND PUSH1 0x1 OR SWAP1 SSTORE PUSH3 0x143 CALLER SWAP1 JUMP JUMPDEST PUSH1 0x1 PUSH1 0x1 PUSH1 0xA0 SHL SUB AND DUP3 PUSH1 0x1 PUSH1 0x1 PUSH1 0xA0 SHL SUB AND DUP5 PUSH32 0x2F8788117E7EFF1D82E926EC794901D17C78024A50270940304540A733656F0D PUSH1 0x40 MLOAD PUSH1 0x40 MLOAD DUP1 SWAP2 SUB SWAP1 LOG4 POP PUSH1 0x1 PUSH3 0x190 JUMP JUMPDEST POP PUSH1 0x0 JUMPDEST SWAP3 SWAP2 POP POP JUMP JUMPDEST DUP1 MLOAD PUSH1 0x1 PUSH1 0x1 PUSH1 0xA0 SHL SUB DUP2 AND DUP2 EQ PUSH3 0x1AE JUMPI PUSH1 0x0 DUP1 REVERT JUMPDEST SWAP2 SWAP1 POP JUMP JUMPDEST PUSH4 0x4E487B71 PUSH1 0xE0 SHL PUSH1 0x0 MSTORE PUSH1 0x41 PUSH1 0x4 MSTORE PUSH1 0x24 PUSH1 0x0 REVERT JUMPDEST PUSH1 0x0 DUP3 PUSH1 0x1F DUP4 ADD SLT PUSH3 0x1DB JUMPI PUSH1 0x0 DUP1 REVERT JUMPDEST DUP2 MLOAD PUSH1 0x1 PUSH1 0x1 PUSH1 0x40 SHL SUB DUP1 DUP3 GT ISZERO PUSH3 0x1F8 JUMPI PUSH3 0x1F8 PUSH3 0x1B3 JUMP JUMPDEST PUSH1 0x40 MLOAD PUSH1 0x1F DUP4 ADD PUSH1 0x1F NOT SWAP1 DUP2 AND PUSH1 0x3F ADD AND DUP2 ADD SWAP1 DUP3 DUP3 GT DUP2 DUP4 LT OR ISZERO PUSH3 0x223 JUMPI PUSH3 0x223 PUSH3 0x1B3 JUMP JUMPDEST DUP2 PUSH1 0x40 MSTORE DUP4 DUP2 MSTORE PUSH1 0x20 SWAP3 POP DUP7 PUSH1 0x20 DUP6 DUP9 ADD ADD GT ISZERO PUSH3 0x241 JUMPI PUSH1 0x0 DUP1 REVERT JUMPDEST PUSH1 0x0 SWAP2 POP JUMPDEST DUP4 DUP3 LT ISZERO PUSH3 0x265 JUMPI DUP6 DUP3 ADD DUP4 ADD MLOAD DUP2 DUP4 ADD DUP5 ADD MSTORE SWAP1 DUP3 ADD SWAP1 PUSH3 0x246 JUMP JUMPDEST PUSH1 0x0 PUSH1 0x20 DUP6 DUP4 ADD ADD MSTORE DUP1 SWAP5 POP POP POP POP POP SWAP3 SWAP2 POP POP JUMP JUMPDEST PUSH1 0x0 DUP1 PUSH1 0x0 DUP1 PUSH1 0x0 PUSH1 0xA0 DUP7 DUP9 SUB SLT ISZERO PUSH3 0x294 JUMPI PUSH1 0x0 DUP1 REVERT JUMPDEST PUSH3 0x29F DUP7 PUSH3 0x196 JUMP JUMPDEST SWAP5 POP PUSH3 0x2AF PUSH1 0x20 DUP8 ADD PUSH3 0x196 JUMP JUMPDEST SWAP4 POP PUSH3 0x2BF PUSH1 0x40 DUP8 ADD PUSH3 0x196 JUMP JUMPDEST PUSH1 0x60 DUP8 ADD MLOAD SWAP1 SWAP4 POP PUSH1 0x1 PUSH1 0x1 PUSH1 0x40 SHL SUB DUP1 DUP3 GT ISZERO PUSH3 0x2DD JUMPI PUSH1 0x0 DUP1 REVERT JUMPDEST PUSH3 0x2EB DUP10 DUP4 DUP11 ADD PUSH3 0x1C9 JUMP JUMPDEST SWAP4 POP PUSH1 0x80 DUP9 ADD MLOAD SWAP2 POP DUP1 DUP3 GT ISZERO PUSH3 0x302 JUMPI PUSH1 0x0 DUP1 REVERT JUMPDEST POP PUSH3 0x311 DUP9 DUP3 DUP10 ADD PUSH3 0x1C9 JUMP JUMPDEST SWAP2 POP POP SWAP3 SWAP6 POP SWAP3 SWAP6 SWAP1 SWAP4 POP JUMP JUMPDEST PUSH1 0x1 DUP2 DUP2 SHR SWAP1 DUP3 AND DUP1 PUSH3 0x333 JUMPI PUSH1 0x7F DUP3 AND SWAP2 POP JUMPDEST PUSH1 0x20 DUP3 LT DUP2 SUB PUSH3 0x354 JUMPI PUSH4 0x4E487B71 PUSH1 0xE0 SHL PUSH1 0x0 MSTORE PUSH1 0x22 PUSH1 0x4 MSTORE PUSH1 0x24 PUSH1 0x0 REVERT JUMPDEST POP SWAP2 SWAP1 POP JUMP JUMPDEST PUSH1 0x1F DUP3 GT ISZERO PUSH3 0x3AA JUMPI PUSH1 0x0 DUP2 PUSH1 0x0 MSTORE PUSH1 0x20 PUSH1 0x0 KECCAK256 PUSH1 0x1F DUP6 ADD PUSH1 0x5 SHR DUP2 ADD PUSH1 0x20 DUP7 LT ISZERO PUSH3 0x385 JUMPI POP DUP1 JUMPDEST PUSH1 0x1F DUP6 ADD PUSH1 0x5 SHR DUP3 ADD SWAP2 POP JUMPDEST DUP2 DUP2 LT ISZERO PUSH3 0x3A6 JUMPI DUP3 DUP2 SSTORE PUSH1 0x1 ADD PUSH3 0x391 JUMP JUMPDEST POP POP POP JUMPDEST POP POP POP JUMP JUMPDEST DUP2 MLOAD PUSH1 0x1 PUSH1 0x1 PUSH1 0x40 SHL SUB DUP2 GT ISZERO PUSH3 0x3CB JUMPI PUSH3 0x3CB PUSH3 0x1B3 JUMP JUMPDEST PUSH3 0x3E3 DUP2 PUSH3 0x3DC DUP5 SLOAD PUSH3 0x31E JUMP JUMPDEST DUP5 PUSH3 0x35A JUMP JUMPDEST PUSH1 0x20 DUP1 PUSH1 0x1F DUP4 GT PUSH1 0x1 DUP2 EQ PUSH3 0x41B JUMPI PUSH1 0x0 DUP5 ISZERO PUSH3 0x402 JUMPI POP DUP6 DUP4 ADD MLOAD JUMPDEST PUSH1 0x0 NOT PUSH1 0x3 DUP7 SWAP1 SHL SHR NOT AND PUSH1 0x1 DUP6 SWAP1 SHL OR DUP6 SSTORE PUSH3 0x3A6 JUMP JUMPDEST PUSH1 0x0 DUP6 DUP2 MSTORE PUSH1 0x20 DUP2 KECCAK256 PUSH1 0x1F NOT DUP7 AND SWAP2 JUMPDEST DUP3 DUP2 LT ISZERO PUSH3 0x44C JUMPI DUP9 DUP7 ADD MLOAD DUP3 SSTORE SWAP5 DUP5 ADD SWAP5 PUSH1 0x1 SWAP1 SWAP2 ADD SWAP1 DUP5 ADD PUSH3 0x42B JUMP JUMPDEST POP DUP6 DUP3 LT ISZERO PUSH3 0x46B JUMPI DUP8 DUP6 ADD MLOAD PUSH1 0x0 NOT PUSH1 0x3 DUP9 SWAP1 SHL PUSH1 0xF8 AND SHR NOT AND DUP2 SSTORE JUMPDEST POP POP POP POP POP PUSH1 0x1 SWAP1 DUP2 SHL ADD SWAP1 SSTORE POP JUMP JUMPDEST PUSH1 0x80 MLOAD PUSH2 0x117D PUSH3 0x4CF PUSH1 0x0 CODECOPY PUSH1 0x0 DUP2 DUP2 PUSH2 0x140 ADD MSTORE DUP2 DUP2 PUSH2 0x272 ADD MSTORE DUP2 DUP2 PUSH2 0x591 ADD MSTORE DUP2 DUP2 PUSH2 0x687 ADD MSTORE DUP2 DUP2 PUSH2 0x94F ADD MSTORE DUP2 DUP2 PUSH2 0x9A2 ADD MSTORE DUP2 DUP2 PUSH2 0x9DC ADD MSTORE DUP2 DUP2 PUSH2 0xB36 ADD MSTORE PUSH2 0xBB3 ADD MSTORE PUSH2 0x117D PUSH1 0x0 RETURN INVALID PUSH1 0x80 PUSH1 0x40 MSTORE PUSH1 0x4 CALLDATASIZE LT PUSH2 0x139 JUMPI PUSH1 0x0 CALLDATALOAD PUSH1 0xE0 SHR DUP1 PUSH4 0x8456CB59 GT PUSH2 0xAB JUMPI DUP1 PUSH4 0xC8B2B546 GT PUSH2 0x6F JUMPI DUP1 PUSH4 0xC8B2B546 EQ PUSH2 0x3A3 JUMPI DUP1 PUSH4 0xD4347F25 EQ PUSH2 0x3B6 JUMPI DUP1 PUSH4 0xD547741F EQ PUSH2 0x3CC JUMPI DUP1 PUSH4 0xEC87621C EQ PUSH2 0x3EC JUMPI DUP1 PUSH4 0xF3466DFA EQ PUSH2 0x420 JUMPI DUP1 PUSH4 0xF5EB42DC EQ PUSH2 0x435 JUMPI PUSH1 0x0 DUP1 REVERT JUMPDEST DUP1 PUSH4 0x8456CB59 EQ PUSH2 0x331 JUMPI DUP1 PUSH4 0x91D14854 EQ PUSH2 0x346 JUMPI DUP1 PUSH4 0x99530B06 EQ PUSH2 0x366 JUMPI DUP1 PUSH4 0xA217FDDF EQ PUSH2 0x37B JUMPI DUP1 PUSH4 0xB6B55F25 EQ PUSH2 0x390 JUMPI PUSH1 0x0 DUP1 REVERT JUMPDEST DUP1 PUSH4 0x38D52E0F GT PUSH2 0xFD JUMPI DUP1 PUSH4 0x38D52E0F EQ PUSH2 0x260 JUMPI DUP1 PUSH4 0x3A98EF39 EQ PUSH2 0x2AC JUMPI DUP1 PUSH4 0x3F4BA83A EQ PUSH2 0x2C2 JUMPI DUP1 PUSH4 0x5C975ABB EQ PUSH2 0x2D7 JUMPI DUP1 PUSH4 0x6022743E EQ PUSH2 0x2EF JUMPI DUP1 PUSH4 0x6ABB2AE8 EQ PUSH2 0x30F JUMPI PUSH1 0x0 DUP1 REVERT JUMPDEST DUP1 PUSH4 0x1FFC9A7 EQ PUSH2 0x18D JUMPI DUP1 PUSH4 0x248A9CA3 EQ PUSH2 0x1C2 JUMPI DUP1 PUSH4 0x2E1A7D4D EQ PUSH2 0x200 JUMPI DUP1 PUSH4 0x2F2FF15D EQ PUSH2 0x220 JUMPI DUP1 PUSH4 0x36568ABE EQ PUSH2 0x240 JUMPI PUSH1 0x0 DUP1 REVERT JUMPDEST CALLDATASIZE PUSH2 0x188 JUMPI PUSH32 0x0 PUSH1 0x1 PUSH1 0x1 PUSH1 0xA0 SHL SUB AND ISZERO PUSH2 0x186 JUMPI PUSH1 0x40 MLOAD PUSH4 0x162908E3 PUSH1 0xE1 SHL DUP2 MSTORE PUSH1 0x4 ADD PUSH1 0x40 MLOAD DUP1 SWAP2 SUB SWAP1 REVERT JUMPDEST STOP JUMPDEST PUSH1 0x0 DUP1 REVERT JUMPDEST CALLVALUE DUP1 ISZERO PUSH2 0x199 JUMPI PUSH1 0x0 DUP1 REVERT JUMPDEST POP PUSH2 0x1AD PUSH2 0x1A8 CALLDATASIZE PUSH1 0x4 PUSH2 0xFA1 JUMP JUMPDEST PUSH2 0x462 JUMP JUMPDEST PUSH1 0x40 MLOAD SWAP1 ISZERO ISZERO DUP2 MSTORE PUSH1 0x20 ADD JUMPDEST PUSH1 0x40 MLOAD DUP1 SWAP2 SUB SWAP1 RETURN JUMPDEST CALLVALUE DUP1 ISZERO PUSH2 0x1CE JUMPI PUSH1 0x0 DUP1 REVERT JUMPDEST POP PUSH2 0x1F2 PUSH2 0x1DD CALLDATASIZE PUSH1 0x4 PUSH2 0xFD2 JUMP JUMPDEST PUSH1 0x0 SWAP1 DUP2 MSTORE PUSH1 0x20 DUP2 SWAP1 MSTORE PUSH1 0x40 SWAP1 KECCAK256 PUSH1 0x1 ADD SLOAD SWAP1 JUMP JUMPDEST PUSH1 0x40 MLOAD SWAP1 DUP2 MSTORE PUSH1 0x20 ADD PUSH2 0x1B9 JUMP JUMPDEST CALLVALUE DUP1 ISZERO PUSH2 0x20C JUMPI PUSH1 0x0 DUP1 REVERT JUMPDEST POP PUSH2 0x1F2 PUSH2 0x21B CALLDATASIZE PUSH1 0x4 PUSH2 0xFD2 JUMP JUMPDEST PUSH2 0x499 JUMP JUMPDEST CALLVALUE DUP1 ISZERO PUSH2 0x22C JUMPI PUSH1 0x0 DUP1 REVERT JUMPDEST POP PUSH2 0x186 PUSH2 0x23B CALLDATASIZE PUSH1 0x4 PUSH2 0x1002 JUMP JUMPDEST PUSH2 0x6F9 JUMP JUMPDEST CALLVALUE DUP1 ISZERO PUSH2 0x24C JUMPI PUSH1 0x0 DUP1 REVERT JUMPDEST POP PUSH2 0x186 PUSH2 0x25B CALLDATASIZE PUSH1 0x4 PUSH2 0x1002 JUMP JUMPDEST PUSH2 0x724 JUMP JUMPDEST CALLVALUE DUP1 ISZERO PUSH2 0x26C JUMPI PUSH1 0x0 DUP1 REVERT JUMPDEST POP PUSH2 0x294 PUSH32 0x0 DUP2 JUMP JUMPDEST PUSH1 0x40 MLOAD PUSH1 0x1 PUSH1 0x1 PUSH1 0xA0 SHL SUB SWAP1 SWAP2 AND DUP2 MSTORE PUSH1 0x20 ADD PUSH2 0x1B9 JUMP JUMPDEST CALLVALUE DUP1 ISZERO PUSH2 0x2B8 JUMPI PUSH1 0x0 DUP1 REVERT JUMPDEST POP PUSH2 0x1F2 PUSH1 0x5 SLOAD DUP2 JUMP JUMPDEST CALLVALUE DUP1 ISZERO PUSH2 0x2CE JUMPI PUSH1 0x0 DUP1 REVERT JUMPDEST POP PUSH2 0x186 PUSH2 0x75C JUMP JUMPDEST CALLVALUE DUP1 ISZERO PUSH2 0x2E3 JUMPI PUSH1 0x0 DUP1 REVERT JUMPDEST POP PUSH1 0x1 SLOAD PUSH1 0xFF AND PUSH2 0x1AD JUMP JUMPDEST CALLVALUE DUP1 ISZERO PUSH2 0x2FB JUMPI PUSH1 0x0 DUP1 REVERT JUMPDEST POP PUSH2 0x186 PUSH2 0x30A CALLDATASIZE PUSH1 0x4 PUSH2 0xFD2 JUMP JUMPDEST PUSH2 0x772 JUMP JUMPDEST CALLVALUE DUP1 ISZERO PUSH2 0x31B JUMPI PUSH1 0x0 DUP1 REVERT JUMPDEST POP PUSH2 0x324 PUSH2 0x831 JUMP JUMPDEST PUSH1 0x40 MLOAD PUSH2 0x1B9 SWAP2 SWAP1 PUSH2 0x102E JUMP JUMPDEST CALLVALUE DUP1 ISZERO PUSH2 0x33D JUMPI PUSH1 0x0 DUP1 REVERT JUMPDEST POP PUSH2 0x186 PUSH2 0x8BF JUMP JUMPDEST CALLVALUE DUP1 ISZERO PUSH2 0x352 JUMPI PUSH1 0x0 DUP1 REVERT JUMPDEST POP PUSH2 0x1AD PUSH2 0x361 CALLDATASIZE PUSH1 0x4 PUSH2 0x1002 JUMP JUMPDEST PUSH2 0x8D2 JUMP JUMPDEST CALLVALUE DUP1 ISZERO PUSH2 0x372 JUMPI PUSH1 0x0 DUP1 REVERT JUMPDEST POP PUSH2 0x1F2 PUSH2 0x8FB JUMP JUMPDEST CALLVALUE DUP1 ISZERO PUSH2 0x387 JUMPI PUSH1 0x0 DUP1 REVERT JUMPDEST POP PUSH2 0x1F2 PUSH1 0x0 DUP2 JUMP JUMPDEST PUSH2 0x1F2 PUSH2 0x39E CALLDATASIZE PUSH1 0x4 PUSH2 0xFD2 JUMP JUMPDEST PUSH2 0x93B JUMP JUMPDEST PUSH2 0x186 PUSH2 0x3B1 CALLDATASIZE PUSH1 0x4 PUSH2 0xFD2 JUMP JUMPDEST PUSH2 0xAE9 JUMP JUMPDEST CALLVALUE DUP1 ISZERO PUSH2 0x3C2 JUMPI PUSH1 0x0 DUP1 REVERT JUMPDEST POP PUSH2 0x1F2 PUSH1 0x6 SLOAD DUP2 JUMP JUMPDEST CALLVALUE DUP1 ISZERO PUSH2 0x3D8 JUMPI PUSH1 0x0 DUP1 REVERT JUMPDEST POP PUSH2 0x186 PUSH2 0x3E7 CALLDATASIZE PUSH1 0x4 PUSH2 0x1002 JUMP JUMPDEST PUSH2 0xC24 JUMP JUMPDEST CALLVALUE DUP1 ISZERO PUSH2 0x3F8 JUMPI PUSH1 0x0 DUP1 REVERT JUMPDEST POP PUSH2 0x1F2 PUSH32 0x241ECF16D79D0F8DBFB92CBC07FE17840425976CF0667F022FE9877CAA831B08 DUP2 JUMP JUMPDEST CALLVALUE DUP1 ISZERO PUSH2 0x42C JUMPI PUSH1 0x0 DUP1 REVERT JUMPDEST POP PUSH2 0x324 PUSH2 0xC49 JUMP JUMPDEST CALLVALUE DUP1 ISZERO PUSH2 0x441 JUMPI PUSH1 0x0 DUP1 REVERT JUMPDEST POP PUSH2 0x1F2 PUSH2 0x450 CALLDATASIZE PUSH1 0x4 PUSH2 0x107D JUMP JUMPDEST PUSH1 0x7 PUSH1 0x20 MSTORE PUSH1 0x0 SWAP1 DUP2 MSTORE PUSH1 0x40 SWAP1 KECCAK256 SLOAD DUP2 JUMP JUMPDEST PUSH1 0x0 PUSH1 0x1 PUSH1 0x1 PUSH1 0xE0 SHL SUB NOT DUP3 AND PUSH4 0x7965DB0B PUSH1 0xE0 SHL EQ DUP1 PUSH2 0x493 JUMPI POP PUSH4 0x1FFC9A7 PUSH1 0xE0 SHL PUSH1 0x1 PUSH1 0x1 PUSH1 0xE0 SHL SUB NOT DUP4 AND EQ JUMPDEST SWAP3 SWAP2 POP POP JUMP JUMPDEST PUSH1 0x0 PUSH2 0x4A3 PUSH2 0xC56 JUMP JUMPDEST PUSH2 0x4AB PUSH2 0xC7C JUMP JUMPDEST DUP2 PUSH1 0x0 SUB PUSH2 0x4CC JUMPI PUSH1 0x40 MLOAD PUSH4 0x1F2A2005 PUSH1 0xE0 SHL DUP2 MSTORE PUSH1 0x4 ADD PUSH1 0x40 MLOAD DUP1 SWAP2 SUB SWAP1 REVERT JUMPDEST CALLER PUSH1 0x0 SWAP1 DUP2 MSTORE PUSH1 0x7 PUSH1 0x20 MSTORE PUSH1 0x40 SWAP1 KECCAK256 SLOAD DUP3 GT ISZERO PUSH2 0x4FC JUMPI PUSH1 0x40 MLOAD PUSH4 0x39996567 PUSH1 0xE0 SHL DUP2 MSTORE PUSH1 0x4 ADD PUSH1 0x40 MLOAD DUP1 SWAP2 SUB SWAP1 REVERT JUMPDEST PUSH1 0x5 SLOAD PUSH1 0x6 SLOAD PUSH2 0x50C SWAP1 DUP5 PUSH2 0x10AE JUMP JUMPDEST PUSH2 0x516 SWAP2 SWAP1 PUSH2 0x10C5 JUMP JUMPDEST SWAP1 POP DUP1 PUSH1 0x0 SUB PUSH2 0x539 JUMPI PUSH1 0x40 MLOAD PUSH4 0x162908E3 PUSH1 0xE1 SHL DUP2 MSTORE PUSH1 0x4 ADD PUSH1 0x40 MLOAD DUP1 SWAP2 SUB SWAP1 REVERT JUMPDEST CALLER PUSH1 0x0 SWAP1 DUP2 MSTORE PUSH1 0x7 PUSH1 0x20 MSTORE PUSH1 0x40 DUP2 KECCAK256 DUP1 SLOAD DUP5 SWAP3 SWAP1 PUSH2 0x558 SWAP1 DUP5 SWAP1 PUSH2 0x10E7 JUMP JUMPDEST SWAP3 POP POP DUP2 SWAP1 SSTORE POP DUP2 PUSH1 0x5 PUSH1 0x0 DUP3 DUP3 SLOAD PUSH2 0x571 SWAP2 SWAP1 PUSH2 0x10E7 JUMP JUMPDEST SWAP3 POP POP DUP2 SWAP1 SSTORE POP DUP1 PUSH1 0x6 PUSH1 0x0 DUP3 DUP3 SLOAD PUSH2 0x58A SWAP2 SWAP1 PUSH2 0x10E7 JUMP JUMPDEST SWAP1 SWAP2 SSTORE POP POP PUSH32 0x0 PUSH1 0x1 PUSH1 0x1 PUSH1 0xA0 SHL SUB AND PUSH2 0x67A JUMPI SELFBALANCE DUP2 GT ISZERO PUSH2 0x5DE JUMPI PUSH1 0x40 MLOAD PUSH4 0x96D80433 PUSH1 0xE0 SHL DUP2 MSTORE PUSH1 0x4 ADD PUSH1 0x40 MLOAD DUP1 SWAP2 SUB SWAP1 REVERT JUMPDEST PUSH1 0x40 MLOAD PUSH1 0x0 SWAP1 CALLER SWAP1 DUP4 SWAP1 DUP4 DUP2 DUP2 DUP2 DUP6 DUP8 GAS CALL SWAP3 POP POP POP RETURNDATASIZE DUP1 PUSH1 0x0 DUP2 EQ PUSH2 0x620 JUMPI PUSH1 0x40 MLOAD SWAP2 POP PUSH1 0x1F NOT PUSH1 0x3F RETURNDATASIZE ADD AND DUP3 ADD PUSH1 0x40 MSTORE RETURNDATASIZE DUP3 MSTORE RETURNDATASIZE PUSH1 0x0 PUSH1 0x20 DUP5 ADD RETURNDATACOPY PUSH2 0x625 JUMP JUMPDEST PUSH1 0x60 SWAP2 POP JUMPDEST POP POP SWAP1 POP DUP1 PUSH2 0x674 JUMPI PUSH1 0x40 MLOAD PUSH3 0x461BCD PUSH1 0xE5 SHL DUP2 MSTORE PUSH1 0x20 PUSH1 0x4 DUP3 ADD MSTORE PUSH1 0x16 PUSH1 0x24 DUP3 ADD MSTORE PUSH22 0x13985D1A5D99481D1C985B9CD9995C8819985A5B1959 PUSH1 0x52 SHL PUSH1 0x44 DUP3 ADD MSTORE PUSH1 0x64 ADD JUMPDEST PUSH1 0x40 MLOAD DUP1 SWAP2 SUB SWAP1 REVERT JUMPDEST POP PUSH2 0x6AE JUMP JUMPDEST PUSH2 0x6AE PUSH1 0x1 PUSH1 0x1 PUSH1 0xA0 SHL SUB PUSH32 0x0 AND CALLER DUP4 PUSH2 0xCA4 JUMP JUMPDEST PUSH1 0x40 DUP1 MLOAD DUP3 DUP2 MSTORE PUSH1 0x20 DUP2 ADD DUP5 SWAP1 MSTORE CALLER SWAP2 PUSH32 0x92CCF450A286A957AF52509BC1C9939D1A6A481783E142E41E2499F0BB66EBC6 SWAP2 ADD JUMPDEST PUSH1 0x40 MLOAD DUP1 SWAP2 SUB SWAP1 LOG2 PUSH2 0x6F4 PUSH1 0x1 PUSH1 0x2 SSTORE JUMP JUMPDEST SWAP2 SWAP1 POP JUMP JUMPDEST PUSH1 0x0 DUP3 DUP2 MSTORE PUSH1 0x20 DUP2 SWAP1 MSTORE PUSH1 0x40 SWAP1 KECCAK256 PUSH1 0x1 ADD SLOAD PUSH2 0x714 DUP2 PUSH2 0xD03 JUMP JUMPDEST PUSH2 0x71E DUP4 DUP4 PUSH2 0xD0D JUMP JUMPDEST POP POP POP POP JUMP JUMPDEST PUSH1 0x1 PUSH1 0x1 PUSH1 0xA0 SHL SUB DUP2 AND CALLER EQ PUSH2 0x74D JUMPI PUSH1 0x40 MLOAD PUSH4 0x334BD919 PUSH1 0xE1 SHL DUP2 MSTORE PUSH1 0x4 ADD PUSH1 0x40 MLOAD DUP1 SWAP2 SUB SWAP1 REVERT JUMPDEST PUSH2 0x757 DUP3 DUP3 PUSH2 0xD9F JUMP JUMPDEST POP POP POP JUMP JUMPDEST PUSH1 0x0 PUSH2 0x767 DUP2 PUSH2 0xD03 JUMP JUMPDEST PUSH2 0x76F PUSH2 0xE0A JUMP JUMPDEST POP JUMP JUMPDEST PUSH32 0x241ECF16D79D0F8DBFB92CBC07FE17840425976CF0667F022FE9877CAA831B08 PUSH2 0x79C DUP2 PUSH2 0xD03 JUMP JUMPDEST DUP2 PUSH1 0x0 SUB PUSH2 0x7BD JUMPI PUSH1 0x40 MLOAD PUSH4 0x1F2A2005 PUSH1 0xE0 SHL DUP2 MSTORE PUSH1 0x4 ADD PUSH1 0x40 MLOAD DUP1 SWAP2 SUB SWAP1 REVERT JUMPDEST PUSH1 0x6 SLOAD DUP3 GT ISZERO PUSH2 0x7E0 JUMPI PUSH1 0x40 MLOAD PUSH4 0x96D80433 PUSH1 0xE0 SHL DUP2 MSTORE PUSH1 0x4 ADD PUSH1 0x40 MLOAD DUP1 SWAP2 SUB SWAP1 REVERT JUMPDEST DUP2 PUSH1 0x6 PUSH1 0x0 DUP3 DUP3 SLOAD PUSH2 0x7F2 SWAP2 SWAP1 PUSH2 0x10E7 JUMP JUMPDEST SWAP1 SWAP2 SSTORE POP POP PUSH1 0x40 MLOAD DUP3 DUP2 MSTORE CALLER SWAP1 PUSH32 0xA4325E9537DE0993CB7E718526F107525A5D529F2644C35BF9785CCE2FE77B66 SWAP1 PUSH1 0x20 ADD JUMPDEST PUSH1 0x40 MLOAD DUP1 SWAP2 SUB SWAP1 LOG2 POP POP JUMP JUMPDEST PUSH1 0x4 DUP1 SLOAD PUSH2 0x83E SWAP1 PUSH2 0x10FA JUMP JUMPDEST DUP1 PUSH1 0x1F ADD PUSH1 0x20 DUP1 SWAP2 DIV MUL PUSH1 0x20 ADD PUSH1 0x40 MLOAD SWAP1 DUP2 ADD PUSH1 0x40 MSTORE DUP1 SWAP3 SWAP2 SWAP1 DUP2 DUP2 MSTORE PUSH1 0x20 ADD DUP3 DUP1 SLOAD PUSH2 0x86A SWAP1 PUSH2 0x10FA JUMP JUMPDEST DUP1 ISZERO PUSH2 0x8B7 JUMPI DUP1 PUSH1 0x1F LT PUSH2 0x88C JUMPI PUSH2 0x100 DUP1 DUP4 SLOAD DIV MUL DUP4 MSTORE SWAP2 PUSH1 0x20 ADD SWAP2 PUSH2 0x8B7 JUMP JUMPDEST DUP3 ADD SWAP2 SWAP1 PUSH1 0x0 MSTORE PUSH1 0x20 PUSH1 0x0 KECCAK256 SWAP1 JUMPDEST DUP2 SLOAD DUP2 MSTORE SWAP1 PUSH1 0x1 ADD SWAP1 PUSH1 0x20 ADD DUP1 DUP4 GT PUSH2 0x89A JUMPI DUP3 SWAP1 SUB PUSH1 0x1F AND DUP3 ADD SWAP2 JUMPDEST POP POP POP POP POP DUP2 JUMP JUMPDEST PUSH1 0x0 PUSH2 0x8CA DUP2 PUSH2 0xD03 JUMP JUMPDEST PUSH2 0x76F PUSH2 0xE5C JUMP JUMPDEST PUSH1 0x0 SWAP2 DUP3 MSTORE PUSH1 0x20 DUP3 DUP2 MSTORE PUSH1 0x40 DUP1 DUP5 KECCAK256 PUSH1 0x1 PUSH1 0x1 PUSH1 0xA0 SHL SUB SWAP4 SWAP1 SWAP4 AND DUP5 MSTORE SWAP2 SWAP1 MSTORE SWAP1 KECCAK256 SLOAD PUSH1 0xFF AND SWAP1 JUMP JUMPDEST PUSH1 0x0 PUSH1 0x5 SLOAD PUSH1 0x0 SUB PUSH2 0x914 JUMPI POP PUSH8 0xDE0B6B3A7640000 SWAP1 JUMP JUMPDEST PUSH1 0x5 SLOAD PUSH1 0x6 SLOAD PUSH2 0x92C SWAP1 PUSH8 0xDE0B6B3A7640000 PUSH2 0x10AE JUMP JUMPDEST PUSH2 0x936 SWAP2 SWAP1 PUSH2 0x10C5 JUMP JUMPDEST SWAP1 POP SWAP1 JUMP JUMPDEST PUSH1 0x0 PUSH2 0x945 PUSH2 0xC56 JUMP JUMPDEST PUSH2 0x94D PUSH2 0xC7C JUMP JUMPDEST PUSH32 0x0 PUSH1 0x1 PUSH1 0x1 PUSH1 0xA0 SHL SUB AND PUSH2 0x97F JUMPI CALLVALUE SWAP2 POP JUMPDEST DUP2 PUSH1 0x0 SUB PUSH2 0x9A0 JUMPI PUSH1 0x40 MLOAD PUSH4 0x1F2A2005 PUSH1 0xE0 SHL DUP2 MSTORE PUSH1 0x4 ADD PUSH1 0x40 MLOAD DUP1 SWAP2 SUB SWAP1 REVERT JUMPDEST PUSH32 0x0 PUSH1 0x1 PUSH1 0x1 PUSH1 0xA0 SHL SUB AND ISZERO PUSH2 0xA04 JUMPI PUSH2 0xA04 PUSH1 0x1 PUSH1 0x1 PUSH1 0xA0 SHL SUB PUSH32 0x0 AND CALLER ADDRESS DUP6 PUSH2 0xE97 JUMP JUMPDEST PUSH1 0x5 SLOAD ISZERO DUP1 PUSH2 0xA13 JUMPI POP PUSH1 0x6 SLOAD ISZERO JUMPDEST ISZERO PUSH2 0xA1F JUMPI POP DUP1 PUSH2 0xA3C JUMP JUMPDEST PUSH1 0x6 SLOAD PUSH1 0x5 SLOAD PUSH2 0xA2F SWAP1 DUP5 PUSH2 0x10AE JUMP JUMPDEST PUSH2 0xA39 SWAP2 SWAP1 PUSH2 0x10C5 JUMP JUMPDEST SWAP1 POP JUMPDEST DUP1 PUSH1 0x0 SUB PUSH2 0xA5D JUMPI PUSH1 0x40 MLOAD PUSH4 0x162908E3 PUSH1 0xE1 SHL DUP2 MSTORE PUSH1 0x4 ADD PUSH1 0x40 MLOAD DUP1 SWAP2 SUB SWAP1 REVERT JUMPDEST DUP1 PUSH1 0x5 PUSH1 0x0 DUP3 DUP3 SLOAD PUSH2 0xA6F SWAP2 SWAP1 PUSH2 0x1134 JUMP JUMPDEST SWAP3 POP POP DUP2 SWAP1 SSTORE POP DUP2 PUSH1 0x6 PUSH1 0x0 DUP3 DUP3 SLOAD PUSH2 0xA88 SWAP2 SWAP1 PUSH2 0x1134 JUMP JUMPDEST SWAP1 SWAP2 SSTORE POP POP CALLER PUSH1 0x0 SWAP1 DUP2 MSTORE PUSH1 0x7 PUSH1 0x20 MSTORE PUSH1 0x40 DUP2 KECCAK256 DUP1 SLOAD DUP4 SWAP3 SWAP1 PUSH2 0xAAC SWAP1 DUP5 SWAP1 PUSH2 0x1134 JUMP JUMPDEST SWAP1 SWAP2 SSTORE POP POP PUSH1 0x40 DUP1 MLOAD DUP4 DUP2 MSTORE PUSH1 0x20 DUP2 ADD DUP4 SWAP1 MSTORE CALLER SWAP2 PUSH32 0x73A19DD210F1A7F902193214C0EE91DD35EE5B4D920CBA8D519ECA65A7B488CA SWAP2 ADD PUSH2 0x6E2 JUMP JUMPDEST PUSH32 0x241ECF16D79D0F8DBFB92CBC07FE17840425976CF0667F022FE9877CAA831B08 PUSH2 0xB13 DUP2 PUSH2 0xD03 JUMP JUMPDEST DUP2 PUSH1 0x0 SUB PUSH2 0xB34 JUMPI PUSH1 0x40 MLOAD PUSH4 0x1F2A2005 PUSH1 0xE0 SHL DUP2 MSTORE PUSH1 0x4 ADD PUSH1 0x40 MLOAD DUP1 SWAP2 SUB SWAP1 REVERT JUMPDEST PUSH32 0x0 PUSH1 0x1 PUSH1 0x1 PUSH1 0xA0 SHL SUB AND PUSH2 0xB87 JUMPI DUP2 CALLVALUE EQ PUSH2 0xB82 JUMPI PUSH1 0x40 MLOAD PUSH4 0x162908E3 PUSH1 0xE1 SHL DUP2 MSTORE PUSH1 0x4 ADD PUSH1 0x40 MLOAD DUP1 SWAP2 SUB SWAP1 REVERT JUMPDEST PUSH2 0xBDB JUMP JUMPDEST CALLVALUE ISZERO PUSH2 0xBA6 JUMPI PUSH1 0x40 MLOAD PUSH4 0x162908E3 PUSH1 0xE1 SHL DUP2 MSTORE PUSH1 0x4 ADD PUSH1 0x40 MLOAD DUP1 SWAP2 SUB SWAP1 REVERT JUMPDEST PUSH2 0xBDB PUSH1 0x1 PUSH1 0x1 PUSH1 0xA0 SHL SUB PUSH32 0x0 AND CALLER ADDRESS DUP6 PUSH2 0xE97 JUMP JUMPDEST DUP2 PUSH1 0x6 PUSH1 0x0 DUP3 DUP3 SLOAD PUSH2 0xBED SWAP2 SWAP1 PUSH2 0x1134 JUMP JUMPDEST SWAP1 SWAP2 SSTORE POP POP PUSH1 0x40 MLOAD DUP3 DUP2 MSTORE CALLER SWAP1 PUSH32 0x876606F701AC84659CF9989C916A4734619B8E5E6B68F8DD4D292573F503AFF6 SWAP1 PUSH1 0x20 ADD PUSH2 0x825 JUMP JUMPDEST PUSH1 0x0 DUP3 DUP2 MSTORE PUSH1 0x20 DUP2 SWAP1 MSTORE PUSH1 0x40 SWAP1 KECCAK256 PUSH1 0x1 ADD SLOAD PUSH2 0xC3F DUP2 PUSH2 0xD03 JUMP JUMPDEST PUSH2 0x71E DUP4 DUP4 PUSH2 0xD9F JUMP JUMPDEST PUSH1 0x3 DUP1 SLOAD PUSH2 0x83E SWAP1 PUSH2 0x10FA JUMP JUMPDEST PUSH1 0x1 SLOAD PUSH1 0xFF AND ISZERO PUSH2 0xC7A JUMPI PUSH1 0x40 MLOAD PUSH4 0xD93C0665 PUSH1 0xE0 SHL DUP2 MSTORE PUSH1 0x4 ADD PUSH1 0x40 MLOAD DUP1 SWAP2 SUB SWAP1 REVERT JUMPDEST JUMP JUMPDEST PUSH1 0x2 DUP1 SLOAD SUB PUSH2 0xC9E JUMPI PUSH1 0x40 MLOAD PUSH4 0x3EE5AEB5 PUSH1 0xE0 SHL DUP2 MSTORE PUSH1 0x4 ADD PUSH1 0x40 MLOAD DUP1 SWAP2 SUB SWAP1 REVERT JUMPDEST PUSH1 0x2 DUP1 SSTORE JUMP JUMPDEST PUSH1 0x40 MLOAD PUSH1 0x1 PUSH1 0x1 PUSH1 0xA0 SHL SUB DUP4 DUP2 AND PUSH1 0x24 DUP4 ADD MSTORE PUSH1 0x44 DUP3 ADD DUP4 SWAP1 MSTORE PUSH2 0x757 SWAP2 DUP6 SWAP2 DUP3 AND SWAP1 PUSH4 0xA9059CBB SWAP1 PUSH1 0x64 ADD JUMPDEST PUSH1 0x40 MLOAD PUSH1 0x20 DUP2 DUP4 SUB SUB DUP2 MSTORE SWAP1 PUSH1 0x40 MSTORE SWAP2 POP PUSH1 0xE0 SHL PUSH1 0x20 DUP3 ADD DUP1 MLOAD PUSH1 0x1 PUSH1 0x1 PUSH1 0xE0 SHL SUB DUP4 DUP2 DUP4 AND OR DUP4 MSTORE POP POP POP POP PUSH2 0xED0 JUMP JUMPDEST PUSH2 0x76F DUP2 CALLER PUSH2 0xF41 JUMP JUMPDEST PUSH1 0x0 PUSH2 0xD19 DUP4 DUP4 PUSH2 0x8D2 JUMP JUMPDEST PUSH2 0xD97 JUMPI PUSH1 0x0 DUP4 DUP2 MSTORE PUSH1 0x20 DUP2 DUP2 MSTORE PUSH1 0x40 DUP1 DUP4 KECCAK256 PUSH1 0x1 PUSH1 0x1 PUSH1 0xA0 SHL SUB DUP7 AND DUP5 MSTORE SWAP1 SWAP2 MSTORE SWAP1 KECCAK256 DUP1 SLOAD PUSH1 0xFF NOT AND PUSH1 0x1 OR SWAP1 SSTORE PUSH2 0xD4F CALLER SWAP1 JUMP JUMPDEST PUSH1 0x1 PUSH1 0x1 PUSH1 0xA0 SHL SUB AND DUP3 PUSH1 0x1 PUSH1 0x1 PUSH1 0xA0 SHL SUB AND DUP5 PUSH32 0x2F8788117E7EFF1D82E926EC794901D17C78024A50270940304540A733656F0D PUSH1 0x40 MLOAD PUSH1 0x40 MLOAD DUP1 SWAP2 SUB SWAP1 LOG4 POP PUSH1 0x1 PUSH2 0x493 JUMP JUMPDEST POP PUSH1 0x0 PUSH2 0x493 JUMP JUMPDEST PUSH1 0x0 PUSH2 0xDAB DUP4 DUP4 PUSH2 0x8D2 JUMP JUMPDEST ISZERO PUSH2 0xD97 JUMPI PUSH1 0x0 DUP4 DUP2 MSTORE PUSH1 0x20 DUP2 DUP2 MSTORE PUSH1 0x40 DUP1 DUP4 KECCAK256 PUSH1 0x1 PUSH1 0x1 PUSH1 0xA0 SHL SUB DUP7 AND DUP1 DUP6 MSTORE SWAP3 MSTORE DUP1 DUP4 KECCAK256 DUP1 SLOAD PUSH1 0xFF NOT AND SWAP1 SSTORE MLOAD CALLER SWAP3 DUP7 SWAP2 PUSH32 0xF6391F5C32D9C69D2A47EA670B442974B53935D1EDC7FD64EB21E047A839171B SWAP2 SWAP1 LOG4 POP PUSH1 0x1 PUSH2 0x493 JUMP JUMPDEST PUSH2 0xE12 PUSH2 0xF7E JUMP JUMPDEST PUSH1 0x1 DUP1 SLOAD PUSH1 0xFF NOT AND SWAP1 SSTORE PUSH32 0x5DB9EE0A495BF2E6FF9C91A7834C1BA4FDD244A5E8AA4E537BD38AEAE4B073AA CALLER JUMPDEST PUSH1 0x40 MLOAD PUSH1 0x1 PUSH1 0x1 PUSH1 0xA0 SHL SUB SWAP1 SWAP2 AND DUP2 MSTORE PUSH1 0x20 ADD PUSH1 0x40 MLOAD DUP1 SWAP2 SUB SWAP1 LOG1 JUMP JUMPDEST PUSH2 0xE64 PUSH2 0xC56 JUMP JUMPDEST PUSH1 0x1 DUP1 SLOAD PUSH1 0xFF NOT AND DUP2 OR SWAP1 SSTORE PUSH32 0x62E78CEA01BEE320CD4E420270B5EA74000D11B0C9F74754EBDBFC544B05A258 CALLER PUSH2 0xE3F JUMP JUMPDEST PUSH1 0x40 MLOAD PUSH1 0x1 PUSH1 0x1 PUSH1 0xA0 SHL SUB DUP5 DUP2 AND PUSH1 0x24 DUP4 ADD MSTORE DUP4 DUP2 AND PUSH1 0x44 DUP4 ADD MSTORE PUSH1 0x64 DUP3 ADD DUP4 SWAP1 MSTORE PUSH2 0x71E SWAP2 DUP7 SWAP2 DUP3 AND SWAP1 PUSH4 0x23B872DD SWAP1 PUSH1 0x84 ADD PUSH2 0xCD1 JUMP JUMPDEST PUSH1 0x0 DUP1 PUSH1 0x20 PUSH1 0x0 DUP5 MLOAD PUSH1 0x20 DUP7 ADD PUSH1 0x0 DUP9 GAS CALL DUP1 PUSH2 0xEF3 JUMPI PUSH1 0x40 MLOAD RETURNDATASIZE PUSH1 0x0 DUP3 RETURNDATACOPY RETURNDATASIZE DUP2 REVERT JUMPDEST POP POP PUSH1 0x0 MLOAD RETURNDATASIZE SWAP2 POP DUP2 ISZERO PUSH2 0xF0B JUMPI DUP1 PUSH1 0x1 EQ ISZERO PUSH2 0xF18 JUMP JUMPDEST PUSH1 0x1 PUSH1 0x1 PUSH1 0xA0 SHL SUB DUP5 AND EXTCODESIZE ISZERO JUMPDEST ISZERO PUSH2 0x71E JUMPI PUSH1 0x40 MLOAD PUSH4 0x5274AFE7 PUSH1 0xE0 SHL DUP2 MSTORE PUSH1 0x1 PUSH1 0x1 PUSH1 0xA0 SHL SUB DUP6 AND PUSH1 0x4 DUP3 ADD MSTORE PUSH1 0x24 ADD PUSH2 0x66B JUMP JUMPDEST PUSH2 0xF4B DUP3 DUP3 PUSH2 0x8D2 JUMP JUMPDEST PUSH2 0xF7A JUMPI PUSH1 0x40 MLOAD PUSH4 0xE2517D3F PUSH1 0xE0 SHL DUP2 MSTORE PUSH1 0x1 PUSH1 0x1 PUSH1 0xA0 SHL SUB DUP3 AND PUSH1 0x4 DUP3 ADD MSTORE PUSH1 0x24 DUP2 ADD DUP4 SWAP1 MSTORE PUSH1 0x44 ADD PUSH2 0x66B JUMP JUMPDEST POP POP JUMP JUMPDEST PUSH1 0x1 SLOAD PUSH1 0xFF AND PUSH2 0xC7A JUMPI PUSH1 0x40 MLOAD PUSH4 0x8DFC202B PUSH1 0xE0 SHL DUP2 MSTORE PUSH1 0x4 ADD PUSH1 0x40 MLOAD DUP1 SWAP2 SUB SWAP1 REVERT JUMPDEST PUSH1 0x0 PUSH1 0x20 DUP3 DUP5 SUB SLT ISZERO PUSH2 0xFB3 JUMPI PUSH1 0x0 DUP1 REVERT JUMPDEST DUP2 CALLDATALOAD PUSH1 0x1 PUSH1 0x1 PUSH1 0xE0 SHL SUB NOT DUP2 AND DUP2 EQ PUSH2 0xFCB JUMPI PUSH1 0x0 DUP1 REVERT JUMPDEST SWAP4 SWAP3 POP POP POP JUMP JUMPDEST PUSH1 0x0 PUSH1 0x20 DUP3 DUP5 SUB SLT ISZERO PUSH2 0xFE4 JUMPI PUSH1 0x0 DUP1 REVERT JUMPDEST POP CALLDATALOAD SWAP2 SWAP1 POP JUMP JUMPDEST DUP1 CALLDATALOAD PUSH1 0x1 PUSH1 0x1 PUSH1 0xA0 SHL SUB DUP2 AND DUP2 EQ PUSH2 0x6F4 JUMPI PUSH1 0x0 DUP1 REVERT JUMPDEST PUSH1 0x0 DUP1 PUSH1 0x40 DUP4 DUP6 SUB SLT ISZERO PUSH2 0x1015 JUMPI PUSH1 0x0 DUP1 REVERT JUMPDEST DUP3 CALLDATALOAD SWAP2 POP PUSH2 0x1025 PUSH1 0x20 DUP5 ADD PUSH2 0xFEB JUMP JUMPDEST SWAP1 POP SWAP3 POP SWAP3 SWAP1 POP JUMP JUMPDEST PUSH1 0x0 PUSH1 0x20 DUP1 DUP4 MSTORE DUP4 MLOAD DUP1 PUSH1 0x20 DUP6 ADD MSTORE PUSH1 0x0 JUMPDEST DUP2 DUP2 LT ISZERO PUSH2 0x105C JUMPI DUP6 DUP2 ADD DUP4 ADD MLOAD DUP6 DUP3 ADD PUSH1 0x40 ADD MSTORE DUP3 ADD PUSH2 0x1040 JUMP JUMPDEST POP PUSH1 0x0 PUSH1 0x40 DUP3 DUP7 ADD ADD MSTORE PUSH1 0x40 PUSH1 0x1F NOT PUSH1 0x1F DUP4 ADD AND DUP6 ADD ADD SWAP3 POP POP POP SWAP3 SWAP2 POP POP JUMP JUMPDEST PUSH1 0x0 PUSH1 0x20 DUP3 DUP5 SUB SLT ISZERO PUSH2 0x108F JUMPI PUSH1 0x0 DUP1 REVERT JUMPDEST PUSH2 0xFCB DUP3 PUSH2 0xFEB JUMP JUMPDEST PUSH4 0x4E487B71 PUSH1 0xE0 SHL PUSH1 0x0 MSTORE PUSH1 0x11 PUSH1 0x4 MSTORE PUSH1 0x24 PUSH1 0x0 REVERT JUMPDEST DUP1 DUP3 MUL DUP2 ISZERO DUP3 DUP3 DIV DUP5 EQ OR PUSH2 0x493 JUMPI PUSH2 0x493 PUSH2 0x1098 JUMP JUMPDEST PUSH1 0x0 DUP3 PUSH2 0x10E2 JUMPI PUSH4 0x4E487B71 PUSH1 0xE0 SHL PUSH1 0x0 MSTORE PUSH1 0x12 PUSH1 0x4 MSTORE PUSH1 0x24 PUSH1 0x0 REVERT JUMPDEST POP DIV SWAP1 JUMP JUMPDEST DUP2 DUP2 SUB DUP2 DUP2 GT ISZERO PUSH2 0x493 JUMPI PUSH2 0x493 PUSH2 0x1098 JUMP JUMPDEST PUSH1 0x1 DUP2 DUP2 SHR SWAP1 DUP3 AND DUP1 PUSH2 0x110E JUMPI PUSH1 0x7F DUP3 AND SWAP2 POP JUMPDEST PUSH1 0x20 DUP3 LT DUP2 SUB PUSH2 0x112E JUMPI PUSH4 0x4E487B71 PUSH1 0xE0 SHL PUSH1 0x0 MSTORE PUSH1 0x22 PUSH1 0x4 MSTORE PUSH1 0x24 PUSH1 0x0 REVERT JUMPDEST POP SWAP2 SWAP1 POP JUMP JUMPDEST DUP1 DUP3 ADD DUP1 DUP3 GT ISZERO PUSH2 0x493 JUMPI PUSH2 0x493 PUSH2 0x1098 JUMP INVALID LOG2 PUSH5 0x6970667358 0x22 SLT KECCAK256 0xB9 0x2B 0xFC ADDMOD MLOAD 0xF9 0xEA CALLDATASIZE 0xE7 LT 0xCC BASEFEE 0xDC 0xCF DUP4 0xDC 0xBC 0x29 0xD6 PUSH30 0xBF6D8F68FEF8183CAB5513AB64736F6C63430008180033A2646970667358 0x22 SLT KECCAK256 SELFBALANCE 0xC3 0xCA 0xEC PUSH24 0x24A706FCDB5252C25202ADACAABD9CE80CAF333E4A909310 0xFC 0xAA PUSH31 0x64736F6C634300081800330000000000000000000000000000000000000000 "},"methodIdentifiers":{"DEFAULT_ADMIN_ROLE()":"a217fddf","allPools(uint256)":"41d1de97","createPool(address,address,string,string)":"3d5c8e31","getRoleAdmin(bytes32)":"248a9ca3","grantRole(bytes32,address)":"2f2ff15d","hasRole(bytes32,address)":"91d14854","poolInfo(address)":"9a7b5f11","poolsCount()":"8c788de0","renounceRole(bytes32,address)":"36568abe","revokeRole(bytes32,address)":"d547741f","supportsInterface(bytes4)":"01ffc9a7"}}}}}