{
  "_format": "hh-sol-artifact-1",
  "contractName": "TreasuryVault",
  "sourceName": "contracts/TreasuryVault.sol",
  "abi": [
    {
      "inputs": [
        {
          "internalType": "address",
          "name": "admin",
          "type": "address"
        },
        {
          "internalType": "address",
          "name": "treasurer",
          "type": "address"
        }
      ],
      "stateMutability": "nonpayable",
      "type": "constructor"
    },
    {
      "inputs": [],
      "name": "AccessControlBadConfirmation",
      "type": "error"
    },
    {
      "inputs": [
        {
          "internalType": "address",
          "name": "account",
          "type": "address"
        },
        {
          "internalType": "bytes32",
          "name": "neededRole",
          "type": "bytes32"
        }
      ],
      "name": "AccessControlUnauthorizedAccount",
      "type": "error"
    },
    {
      "inputs": [],
      "name": "InsufficientBalance",
      "type": "error"
    },
    {
      "inputs": [],
      "name": "ReentrancyGuardReentrantCall",
      "type": "error"
    },
    {
      "inputs": [
        {
          "internalType": "address",
          "name": "token",
          "type": "address"
        }
      ],
      "name": "SafeERC20FailedOperation",
      "type": "error"
    },
    {
      "inputs": [],
      "name": "ZeroAddress",
      "type": "error"
    },
    {
      "inputs": [],
      "name": "ZeroAmount",
      "type": "error"
    },
    {
      "anonymous": false,
      "inputs": [
        {
          "indexed": true,
          "internalType": "address",
          "name": "sender",
          "type": "address"
        },
        {
          "indexed": false,
          "internalType": "uint256",
          "name": "amount",
          "type": "uint256"
        }
      ],
      "name": "NativeDeposited",
      "type": "event"
    },
    {
      "anonymous": false,
      "inputs": [
        {
          "indexed": true,
          "internalType": "address",
          "name": "to",
          "type": "address"
        },
        {
          "indexed": false,
          "internalType": "uint256",
          "name": "amount",
          "type": "uint256"
        }
      ],
      "name": "NativeWithdrawn",
      "type": "event"
    },
    {
      "anonymous": false,
      "inputs": [
        {
          "indexed": true,
          "internalType": "bytes32",
          "name": "role",
          "type": "bytes32"
        },
        {
          "indexed": true,
          "internalType": "bytes32",
          "name": "previousAdminRole",
          "type": "bytes32"
        },
        {
          "indexed": true,
          "internalType": "bytes32",
          "name": "newAdminRole",
          "type": "bytes32"
        }
      ],
      "name": "RoleAdminChanged",
      "type": "event"
    },
    {
      "anonymous": false,
      "inputs": [
        {
          "indexed": true,
          "internalType": "bytes32",
          "name": "role",
          "type": "bytes32"
        },
        {
          "indexed": true,
          "internalType": "address",
          "name": "account",
          "type": "address"
        },
        {
          "indexed": true,
          "internalType": "address",
          "name": "sender",
          "type": "address"
        }
      ],
      "name": "RoleGranted",
      "type": "event"
    },
    {
      "anonymous": false,
      "inputs": [
        {
          "indexed": true,
          "internalType": "bytes32",
          "name": "role",
          "type": "bytes32"
        },
        {
          "indexed": true,
          "internalType": "address",
          "name": "account",
          "type": "address"
        },
        {
          "indexed": true,
          "internalType": "address",
          "name": "sender",
          "type": "address"
        }
      ],
      "name": "RoleRevoked",
      "type": "event"
    },
    {
      "anonymous": false,
      "inputs": [
        {
          "indexed": true,
          "internalType": "address",
          "name": "token",
          "type": "address"
        },
        {
          "indexed": true,
          "internalType": "address",
          "name": "sender",
          "type": "address"
        },
        {
          "indexed": false,
          "internalType": "uint256",
          "name": "amount",
          "type": "uint256"
        }
      ],
      "name": "TokenDeposited",
      "type": "event"
    },
    {
      "anonymous": false,
      "inputs": [
        {
          "indexed": true,
          "internalType": "address",
          "name": "token",
          "type": "address"
        },
        {
          "indexed": true,
          "internalType": "address",
          "name": "to",
          "type": "address"
        },
        {
          "indexed": false,
          "internalType": "uint256",
          "name": "amount",
          "type": "uint256"
        }
      ],
      "name": "TokenWithdrawn",
      "type": "event"
    },
    {
      "inputs": [],
      "name": "DEFAULT_ADMIN_ROLE",
      "outputs": [
        {
          "internalType": "bytes32",
          "name": "",
          "type": "bytes32"
        }
      ],
      "stateMutability": "view",
      "type": "function"
    },
    {
      "inputs": [],
      "name": "TREASURER_ROLE",
      "outputs": [
        {
          "internalType": "bytes32",
          "name": "",
          "type": "bytes32"
        }
      ],
      "stateMutability": "view",
      "type": "function"
    },
    {
      "inputs": [
        {
          "internalType": "address",
          "name": "token",
          "type": "address"
        },
        {
          "internalType": "uint256",
          "name": "amount",
          "type": "uint256"
        }
      ],
      "name": "depositToken",
      "outputs": [],
      "stateMutability": "nonpayable",
      "type": "function"
    },
    {
      "inputs": [
        {
          "internalType": "bytes32",
          "name": "role",
          "type": "bytes32"
        }
      ],
      "name": "getRoleAdmin",
      "outputs": [
        {
          "internalType": "bytes32",
          "name": "",
          "type": "bytes32"
        }
      ],
      "stateMutability": "view",
      "type": "function"
    },
    {
      "inputs": [
        {
          "internalType": "bytes32",
          "name": "role",
          "type": "bytes32"
        },
        {
          "internalType": "address",
          "name": "account",
          "type": "address"
        }
      ],
      "name": "grantRole",
      "outputs": [],
      "stateMutability": "nonpayable",
      "type": "function"
    },
    {
      "inputs": [
        {
          "internalType": "bytes32",
          "name": "role",
          "type": "bytes32"
        },
        {
          "internalType": "address",
          "name": "account",
          "type": "address"
        }
      ],
      "name": "hasRole",
      "outputs": [
        {
          "internalType": "bool",
          "name": "",
          "type": "bool"
        }
      ],
      "stateMutability": "view",
      "type": "function"
    },
    {
      "inputs": [
        {
          "internalType": "bytes32",
          "name": "role",
          "type": "bytes32"
        },
        {
          "internalType": "address",
          "name": "callerConfirmation",
          "type": "address"
        }
      ],
      "name": "renounceRole",
      "outputs": [],
      "stateMutability": "nonpayable",
      "type": "function"
    },
    {
      "inputs": [
        {
          "internalType": "bytes32",
          "name": "role",
          "type": "bytes32"
        },
        {
          "internalType": "address",
          "name": "account",
          "type": "address"
        }
      ],
      "name": "revokeRole",
      "outputs": [],
      "stateMutability": "nonpayable",
      "type": "function"
    },
    {
      "inputs": [
        {
          "internalType": "bytes4",
          "name": "interfaceId",
          "type": "bytes4"
        }
      ],
      "name": "supportsInterface",
      "outputs": [
        {
          "internalType": "bool",
          "name": "",
          "type": "bool"
        }
      ],
      "stateMutability": "view",
      "type": "function"
    },
    {
      "inputs": [
        {
          "internalType": "address payable",
          "name": "to",
          "type": "address"
        },
        {
          "internalType": "uint256",
          "name": "amount",
          "type": "uint256"
        }
      ],
      "name": "withdrawNative",
      "outputs": [],
      "stateMutability": "nonpayable",
      "type": "function"
    },
    {
      "inputs": [
        {
          "internalType": "address",
          "name": "token",
          "type": "address"
        },
        {
          "internalType": "address",
          "name": "to",
          "type": "address"
        },
        {
          "internalType": "uint256",
          "name": "amount",
          "type": "uint256"
        }
      ],
      "name": "withdrawToken",
      "outputs": [],
      "stateMutability": "nonpayable",
      "type": "function"
    },
    {
      "stateMutability": "payable",
      "type": "receive"
    }
  ],
  "bytecode": "0x608060405234801561001057600080fd5b50604051610c0c380380610c0c83398101604081905261002f91610174565b600180556001600160a01b038216158061005057506001600160a01b038116155b1561006e5760405163d92e233d60e01b815260040160405180910390fd5b6100796000836100ac565b506100a47f3496e2e73c4d42b75d702e60d9e48102720b8691234415963a5a857b86425d07826100ac565b5050506101a7565b6000828152602081815260408083206001600160a01b038516845290915281205460ff1661014e576000838152602081815260408083206001600160a01b03861684529091529020805460ff191660011790556101063390565b6001600160a01b0316826001600160a01b0316847f2f8788117e7eff1d82e926ec794901d17c78024a50270940304540a733656f0d60405160405180910390a4506001610152565b5060005b92915050565b80516001600160a01b038116811461016f57600080fd5b919050565b6000806040838503121561018757600080fd5b61019083610158565b915061019e60208401610158565b90509250929050565b610a56806101b66000396000f3fe6080604052600436106100a05760003560e01c8063338b5dea11610064578063338b5dea146101d757806336568abe146101f757806391d1485414610217578063a217fddf14610237578063d547741f1461024c578063f0a3a97c1461026c57600080fd5b806301e336671461010257806301ffc9a71461012457806307b18bde14610159578063248a9ca3146101795780632f2ff15d146101b757600080fd5b366100fd57346000036100c657604051631f2a200560e01b815260040160405180910390fd5b60405134815233907fb5d7700fb0cf415158b8db7cc7c39f0eab16a825c92e221404b4c8bb099b4bbb9060200160405180910390a2005b600080fd5b34801561010e57600080fd5b5061012261011d366004610939565b6102a0565b005b34801561013057600080fd5b5061014461013f36600461097a565b61039e565b60405190151581526020015b60405180910390f35b34801561016557600080fd5b506101226101743660046109ab565b6103d5565b34801561018557600080fd5b506101a96101943660046109d7565b60009081526020819052604090206001015490565b604051908152602001610150565b3480156101c357600080fd5b506101226101d23660046109f0565b610563565b3480156101e357600080fd5b506101226101f23660046109ab565b610588565b34801561020357600080fd5b506101226102123660046109f0565b610629565b34801561022357600080fd5b506101446102323660046109f0565b61065c565b34801561024357600080fd5b506101a9600081565b34801561025857600080fd5b506101226102673660046109f0565b610685565b34801561027857600080fd5b506101a97f3496e2e73c4d42b75d702e60d9e48102720b8691234415963a5a857b86425d0781565b7f3496e2e73c4d42b75d702e60d9e48102720b8691234415963a5a857b86425d076102ca816106aa565b6102d26106b7565b6001600160a01b03841615806102ef57506001600160a01b038316155b1561030d5760405163d92e233d60e01b815260040160405180910390fd5b8160000361032e57604051631f2a200560e01b815260040160405180910390fd5b6103426001600160a01b03851684846106e1565b826001600160a01b0316846001600160a01b03167f8210728e7c071f615b840ee026032693858fbcd5e5359e67e438c890f59e56208460405161038791815260200190565b60405180910390a361039860018055565b50505050565b60006001600160e01b03198216637965db0b60e01b14806103cf57506301ffc9a760e01b6001600160e01b03198316145b92915050565b7f3496e2e73c4d42b75d702e60d9e48102720b8691234415963a5a857b86425d076103ff816106aa565b6104076106b7565b6001600160a01b03831661042e5760405163d92e233d60e01b815260040160405180910390fd5b8160000361044f57604051631f2a200560e01b815260040160405180910390fd5b4782111561047057604051631e9acf1760e31b815260040160405180910390fd5b6000836001600160a01b03168360405160006040518083038185875af1925050503d80600081146104bd576040519150601f19603f3d011682016040523d82523d6000602084013e6104c2565b606091505b50509050806105115760405162461bcd60e51b815260206004820152601660248201527513985d1a5d99481d1c985b9cd9995c8819985a5b195960521b60448201526064015b60405180910390fd5b836001600160a01b03167fc303ca808382409472acbbf899c316cf439f409f6584aae22df86dfa3c9ed5048460405161054c91815260200190565b60405180910390a25061055e60018055565b505050565b60008281526020819052604090206001015461057e816106aa565b6103988383610740565b6001600160a01b0382166105af5760405163d92e233d60e01b815260040160405180910390fd5b806000036105d057604051631f2a200560e01b815260040160405180910390fd5b6105e56001600160a01b0383163330846107d2565b60405181815233906001600160a01b038416907ff1444b5cad7ce70cb018d1b8edc8618fe303f3c7f034d8d572a6e27facbf2bef9060200160405180910390a35050565b6001600160a01b03811633146106525760405163334bd91960e11b815260040160405180910390fd5b61055e828261080b565b6000918252602082815260408084206001600160a01b0393909316845291905290205460ff1690565b6000828152602081905260409020600101546106a0816106aa565b610398838361080b565b6106b48133610876565b50565b6002600154036106da57604051633ee5aeb560e01b815260040160405180910390fd5b6002600155565b6040516001600160a01b0383811660248301526044820183905261055e91859182169063a9059cbb906064015b604051602081830303815290604052915060e01b6020820180516001600160e01b0383818316178352505050506108b3565b600061074c838361065c565b6107ca576000838152602081815260408083206001600160a01b03861684529091529020805460ff191660011790556107823390565b6001600160a01b0316826001600160a01b0316847f2f8788117e7eff1d82e926ec794901d17c78024a50270940304540a733656f0d60405160405180910390a45060016103cf565b5060006103cf565b6040516001600160a01b0384811660248301528381166044830152606482018390526103989186918216906323b872dd9060840161070e565b6000610817838361065c565b156107ca576000838152602081815260408083206001600160a01b0386168085529252808320805460ff1916905551339286917ff6391f5c32d9c69d2a47ea670b442974b53935d1edc7fd64eb21e047a839171b9190a45060016103cf565b610880828261065c565b6108af5760405163e2517d3f60e01b81526001600160a01b038216600482015260248101839052604401610508565b5050565b600080602060008451602086016000885af1806108d6576040513d6000823e3d81fd5b50506000513d915081156108ee5780600114156108fb565b6001600160a01b0384163b155b1561039857604051635274afe760e01b81526001600160a01b0385166004820152602401610508565b6001600160a01b03811681146106b457600080fd5b60008060006060848603121561094e57600080fd5b833561095981610924565b9250602084013561096981610924565b929592945050506040919091013590565b60006020828403121561098c57600080fd5b81356001600160e01b0319811681146109a457600080fd5b9392505050565b600080604083850312156109be57600080fd5b82356109c981610924565b946020939093013593505050565b6000602082840312156109e957600080fd5b5035919050565b60008060408385031215610a0357600080fd5b823591506020830135610a1581610924565b80915050925092905056fea264697066735822122063fc5d5f7516ced1170ff97e8bf6f9d87e292e3884517e6ce65ba6fce5196c3664736f6c63430008180033",
  "linkReferences": {},
  "deployedLinkReferences": {}
}