{
  "_format": "hh-sol-artifact-1",
  "contractName": "InvestmentPool",
  "sourceName": "contracts/InvestmentPool.sol",
  "abi": [
    {
      "inputs": [
        {
          "internalType": "address",
          "name": "asset_",
          "type": "address"
        },
        {
          "internalType": "address",
          "name": "admin",
          "type": "address"
        },
        {
          "internalType": "address",
          "name": "manager",
          "type": "address"
        },
        {
          "internalType": "string",
          "name": "name_",
          "type": "string"
        },
        {
          "internalType": "string",
          "name": "symbol_",
          "type": "string"
        }
      ],
      "stateMutability": "nonpayable",
      "type": "constructor"
    },
    {
      "inputs": [],
      "name": "AccessControlBadConfirmation",
      "type": "error"
    },
    {
      "inputs": [
        {
          "internalType": "address",
          "name": "account",
          "type": "address"
        },
        {
          "internalType": "bytes32",
          "name": "neededRole",
          "type": "bytes32"
        }
      ],
      "name": "AccessControlUnauthorizedAccount",
      "type": "error"
    },
    {
      "inputs": [],
      "name": "EnforcedPause",
      "type": "error"
    },
    {
      "inputs": [],
      "name": "ExpectedPause",
      "type": "error"
    },
    {
      "inputs": [],
      "name": "InsufficientAssets",
      "type": "error"
    },
    {
      "inputs": [],
      "name": "InsufficientShares",
      "type": "error"
    },
    {
      "inputs": [],
      "name": "InvalidAmount",
      "type": "error"
    },
    {
      "inputs": [],
      "name": "ReentrancyGuardReentrantCall",
      "type": "error"
    },
    {
      "inputs": [
        {
          "internalType": "address",
          "name": "token",
          "type": "address"
        }
      ],
      "name": "SafeERC20FailedOperation",
      "type": "error"
    },
    {
      "inputs": [],
      "name": "ZeroAddress",
      "type": "error"
    },
    {
      "inputs": [],
      "name": "ZeroAmount",
      "type": "error"
    },
    {
      "anonymous": false,
      "inputs": [
        {
          "indexed": true,
          "internalType": "address",
          "name": "user",
          "type": "address"
        },
        {
          "indexed": false,
          "internalType": "uint256",
          "name": "assets",
          "type": "uint256"
        },
        {
          "indexed": false,
          "internalType": "uint256",
          "name": "sharesMinted",
          "type": "uint256"
        }
      ],
      "name": "Deposited",
      "type": "event"
    },
    {
      "anonymous": false,
      "inputs": [
        {
          "indexed": true,
          "internalType": "address",
          "name": "manager",
          "type": "address"
        },
        {
          "indexed": false,
          "internalType": "uint256",
          "name": "amount",
          "type": "uint256"
        }
      ],
      "name": "LossRecorded",
      "type": "event"
    },
    {
      "anonymous": false,
      "inputs": [
        {
          "indexed": false,
          "internalType": "address",
          "name": "account",
          "type": "address"
        }
      ],
      "name": "Paused",
      "type": "event"
    },
    {
      "anonymous": false,
      "inputs": [
        {
          "indexed": true,
          "internalType": "bytes32",
          "name": "role",
          "type": "bytes32"
        },
        {
          "indexed": true,
          "internalType": "bytes32",
          "name": "previousAdminRole",
          "type": "bytes32"
        },
        {
          "indexed": true,
          "internalType": "bytes32",
          "name": "newAdminRole",
          "type": "bytes32"
        }
      ],
      "name": "RoleAdminChanged",
      "type": "event"
    },
    {
      "anonymous": false,
      "inputs": [
        {
          "indexed": true,
          "internalType": "bytes32",
          "name": "role",
          "type": "bytes32"
        },
        {
          "indexed": true,
          "internalType": "address",
          "name": "account",
          "type": "address"
        },
        {
          "indexed": true,
          "internalType": "address",
          "name": "sender",
          "type": "address"
        }
      ],
      "name": "RoleGranted",
      "type": "event"
    },
    {
      "anonymous": false,
      "inputs": [
        {
          "indexed": true,
          "internalType": "bytes32",
          "name": "role",
          "type": "bytes32"
        },
        {
          "indexed": true,
          "internalType": "address",
          "name": "account",
          "type": "address"
        },
        {
          "indexed": true,
          "internalType": "address",
          "name": "sender",
          "type": "address"
        }
      ],
      "name": "RoleRevoked",
      "type": "event"
    },
    {
      "anonymous": false,
      "inputs": [
        {
          "indexed": false,
          "internalType": "address",
          "name": "account",
          "type": "address"
        }
      ],
      "name": "Unpaused",
      "type": "event"
    },
    {
      "anonymous": false,
      "inputs": [
        {
          "indexed": true,
          "internalType": "address",
          "name": "user",
          "type": "address"
        },
        {
          "indexed": false,
          "internalType": "uint256",
          "name": "assets",
          "type": "uint256"
        },
        {
          "indexed": false,
          "internalType": "uint256",
          "name": "sharesBurned",
          "type": "uint256"
        }
      ],
      "name": "Withdrawn",
      "type": "event"
    },
    {
      "anonymous": false,
      "inputs": [
        {
          "indexed": true,
          "internalType": "address",
          "name": "manager",
          "type": "address"
        },
        {
          "indexed": false,
          "internalType": "uint256",
          "name": "amount",
          "type": "uint256"
        }
      ],
      "name": "YieldAdded",
      "type": "event"
    },
    {
      "inputs": [],
      "name": "DEFAULT_ADMIN_ROLE",
      "outputs": [
        {
          "internalType": "bytes32",
          "name": "",
          "type": "bytes32"
        }
      ],
      "stateMutability": "view",
      "type": "function"
    },
    {
      "inputs": [],
      "name": "MANAGER_ROLE",
      "outputs": [
        {
          "internalType": "bytes32",
          "name": "",
          "type": "bytes32"
        }
      ],
      "stateMutability": "view",
      "type": "function"
    },
    {
      "inputs": [],
      "name": "accountedAssets",
      "outputs": [
        {
          "internalType": "uint256",
          "name": "",
          "type": "uint256"
        }
      ],
      "stateMutability": "view",
      "type": "function"
    },
    {
      "inputs": [
        {
          "internalType": "uint256",
          "name": "amount",
          "type": "uint256"
        }
      ],
      "name": "addYield",
      "outputs": [],
      "stateMutability": "payable",
      "type": "function"
    },
    {
      "inputs": [],
      "name": "asset",
      "outputs": [
        {
          "internalType": "address",
          "name": "",
          "type": "address"
        }
      ],
      "stateMutability": "view",
      "type": "function"
    },
    {
      "inputs": [
        {
          "internalType": "uint256",
          "name": "amount",
          "type": "uint256"
        }
      ],
      "name": "deposit",
      "outputs": [
        {
          "internalType": "uint256",
          "name": "sharesMinted",
          "type": "uint256"
        }
      ],
      "stateMutability": "payable",
      "type": "function"
    },
    {
      "inputs": [
        {
          "internalType": "bytes32",
          "name": "role",
          "type": "bytes32"
        }
      ],
      "name": "getRoleAdmin",
      "outputs": [
        {
          "internalType": "bytes32",
          "name": "",
          "type": "bytes32"
        }
      ],
      "stateMutability": "view",
      "type": "function"
    },
    {
      "inputs": [
        {
          "internalType": "bytes32",
          "name": "role",
          "type": "bytes32"
        },
        {
          "internalType": "address",
          "name": "account",
          "type": "address"
        }
      ],
      "name": "grantRole",
      "outputs": [],
      "stateMutability": "nonpayable",
      "type": "function"
    },
    {
      "inputs": [
        {
          "internalType": "bytes32",
          "name": "role",
          "type": "bytes32"
        },
        {
          "internalType": "address",
          "name": "account",
          "type": "address"
        }
      ],
      "name": "hasRole",
      "outputs": [
        {
          "internalType": "bool",
          "name": "",
          "type": "bool"
        }
      ],
      "stateMutability": "view",
      "type": "function"
    },
    {
      "inputs": [],
      "name": "pause",
      "outputs": [],
      "stateMutability": "nonpayable",
      "type": "function"
    },
    {
      "inputs": [],
      "name": "paused",
      "outputs": [
        {
          "internalType": "bool",
          "name": "",
          "type": "bool"
        }
      ],
      "stateMutability": "view",
      "type": "function"
    },
    {
      "inputs": [],
      "name": "poolName",
      "outputs": [
        {
          "internalType": "string",
          "name": "",
          "type": "string"
        }
      ],
      "stateMutability": "view",
      "type": "function"
    },
    {
      "inputs": [],
      "name": "poolSymbol",
      "outputs": [
        {
          "internalType": "string",
          "name": "",
          "type": "string"
        }
      ],
      "stateMutability": "view",
      "type": "function"
    },
    {
      "inputs": [],
      "name": "pricePerShare",
      "outputs": [
        {
          "internalType": "uint256",
          "name": "",
          "type": "uint256"
        }
      ],
      "stateMutability": "view",
      "type": "function"
    },
    {
      "inputs": [
        {
          "internalType": "uint256",
          "name": "amount",
          "type": "uint256"
        }
      ],
      "name": "recordLoss",
      "outputs": [],
      "stateMutability": "nonpayable",
      "type": "function"
    },
    {
      "inputs": [
        {
          "internalType": "bytes32",
          "name": "role",
          "type": "bytes32"
        },
        {
          "internalType": "address",
          "name": "callerConfirmation",
          "type": "address"
        }
      ],
      "name": "renounceRole",
      "outputs": [],
      "stateMutability": "nonpayable",
      "type": "function"
    },
    {
      "inputs": [
        {
          "internalType": "bytes32",
          "name": "role",
          "type": "bytes32"
        },
        {
          "internalType": "address",
          "name": "account",
          "type": "address"
        }
      ],
      "name": "revokeRole",
      "outputs": [],
      "stateMutability": "nonpayable",
      "type": "function"
    },
    {
      "inputs": [
        {
          "internalType": "address",
          "name": "",
          "type": "address"
        }
      ],
      "name": "sharesOf",
      "outputs": [
        {
          "internalType": "uint256",
          "name": "",
          "type": "uint256"
        }
      ],
      "stateMutability": "view",
      "type": "function"
    },
    {
      "inputs": [
        {
          "internalType": "bytes4",
          "name": "interfaceId",
          "type": "bytes4"
        }
      ],
      "name": "supportsInterface",
      "outputs": [
        {
          "internalType": "bool",
          "name": "",
          "type": "bool"
        }
      ],
      "stateMutability": "view",
      "type": "function"
    },
    {
      "inputs": [],
      "name": "totalShares",
      "outputs": [
        {
          "internalType": "uint256",
          "name": "",
          "type": "uint256"
        }
      ],
      "stateMutability": "view",
      "type": "function"
    },
    {
      "inputs": [],
      "name": "unpause",
      "outputs": [],
      "stateMutability": "nonpayable",
      "type": "function"
    },
    {
      "inputs": [
        {
          "internalType": "uint256",
          "name": "sharesToBurn",
          "type": "uint256"
        }
      ],
      "name": "withdraw",
      "outputs": [
        {
          "internalType": "uint256",
          "name": "assetsReturned",
          "type": "uint256"
        }
      ],
      "stateMutability": "nonpayable",
      "type": "function"
    },
    {
      "stateMutability": "payable",
      "type": "receive"
    }
  ],
  "bytecode": "0x60a06040523480156200001157600080fd5b506040516200164c3803806200164c83398101604081905262000034916200027b565b60016002556001600160a01b03841615806200005757506001600160a01b038316155b15620000765760405163d92e233d60e01b815260040160405180910390fd5b6001600160a01b0385166080526003620000918382620003af565b506004620000a08282620003af565b50620000ae600085620000e7565b50620000db7f241ecf16d79d0f8dbfb92cbc07fe17840425976cf0667f022fe9877caa831b0884620000e7565b5050505050506200047b565b6000828152602081815260408083206001600160a01b038516845290915281205460ff166200018c576000838152602081815260408083206001600160a01b03861684529091529020805460ff19166001179055620001433390565b6001600160a01b0316826001600160a01b0316847f2f8788117e7eff1d82e926ec794901d17c78024a50270940304540a733656f0d60405160405180910390a450600162000190565b5060005b92915050565b80516001600160a01b0381168114620001ae57600080fd5b919050565b634e487b7160e01b600052604160045260246000fd5b600082601f830112620001db57600080fd5b81516001600160401b0380821115620001f857620001f8620001b3565b604051601f8301601f19908116603f01168101908282118183101715620002235762000223620001b3565b81604052838152602092508660208588010111156200024157600080fd5b600091505b8382101562000265578582018301518183018401529082019062000246565b6000602085830101528094505050505092915050565b600080600080600060a086880312156200029457600080fd5b6200029f8662000196565b9450620002af6020870162000196565b9350620002bf6040870162000196565b60608701519093506001600160401b0380821115620002dd57600080fd5b620002eb89838a01620001c9565b935060808801519150808211156200030257600080fd5b506200031188828901620001c9565b9150509295509295909350565b600181811c908216806200033357607f821691505b6020821081036200035457634e487b7160e01b600052602260045260246000fd5b50919050565b601f821115620003aa576000816000526020600020601f850160051c81016020861015620003855750805b601f850160051c820191505b81811015620003a65782815560010162000391565b5050505b505050565b81516001600160401b03811115620003cb57620003cb620001b3565b620003e381620003dc84546200031e565b846200035a565b602080601f8311600181146200041b5760008415620004025750858301515b600019600386901b1c1916600185901b178555620003a6565b600085815260208120601f198616915b828110156200044c578886015182559484019460019091019084016200042b565b50858210156200046b5787850151600019600388901b60f8161c191681555b5050505050600190811b01905550565b60805161117d620004cf600039600081816101400152818161027201528181610591015281816106870152818161094f015281816109a2015281816109dc01528181610b360152610bb3015261117d6000f3fe6080604052600436106101395760003560e01c80638456cb59116100ab578063c8b2b5461161006f578063c8b2b546146103a3578063d4347f25146103b6578063d547741f146103cc578063ec87621c146103ec578063f3466dfa14610420578063f5eb42dc1461043557600080fd5b80638456cb591461033157806391d148541461034657806399530b0614610366578063a217fddf1461037b578063b6b55f251461039057600080fd5b806338d52e0f116100fd57806338d52e0f146102605780633a98ef39146102ac5780633f4ba83a146102c25780635c975abb146102d75780636022743e146102ef5780636abb2ae81461030f57600080fd5b806301ffc9a71461018d578063248a9ca3146101c25780632e1a7d4d146102005780632f2ff15d1461022057806336568abe1461024057600080fd5b36610188577f00000000000000000000000000000000000000000000000000000000000000006001600160a01b0316156101865760405163162908e360e11b815260040160405180910390fd5b005b600080fd5b34801561019957600080fd5b506101ad6101a8366004610fa1565b610462565b60405190151581526020015b60405180910390f35b3480156101ce57600080fd5b506101f26101dd366004610fd2565b60009081526020819052604090206001015490565b6040519081526020016101b9565b34801561020c57600080fd5b506101f261021b366004610fd2565b610499565b34801561022c57600080fd5b5061018661023b366004611002565b6106f9565b34801561024c57600080fd5b5061018661025b366004611002565b610724565b34801561026c57600080fd5b506102947f000000000000000000000000000000000000000000000000000000000000000081565b6040516001600160a01b0390911681526020016101b9565b3480156102b857600080fd5b506101f260055481565b3480156102ce57600080fd5b5061018661075c565b3480156102e357600080fd5b5060015460ff166101ad565b3480156102fb57600080fd5b5061018661030a366004610fd2565b610772565b34801561031b57600080fd5b50610324610831565b6040516101b9919061102e565b34801561033d57600080fd5b506101866108bf565b34801561035257600080fd5b506101ad610361366004611002565b6108d2565b34801561037257600080fd5b506101f26108fb565b34801561038757600080fd5b506101f2600081565b6101f261039e366004610fd2565b61093b565b6101866103b1366004610fd2565b610ae9565b3480156103c257600080fd5b506101f260065481565b3480156103d857600080fd5b506101866103e7366004611002565b610c24565b3480156103f857600080fd5b506101f27f241ecf16d79d0f8dbfb92cbc07fe17840425976cf0667f022fe9877caa831b0881565b34801561042c57600080fd5b50610324610c49565b34801561044157600080fd5b506101f261045036600461107d565b60076020526000908152604090205481565b60006001600160e01b03198216637965db0b60e01b148061049357506301ffc9a760e01b6001600160e01b03198316145b92915050565b60006104a3610c56565b6104ab610c7c565b816000036104cc57604051631f2a200560e01b815260040160405180910390fd5b336000908152600760205260409020548211156104fc57604051633999656760e01b815260040160405180910390fd5b60055460065461050c90846110ae565b61051691906110c5565b9050806000036105395760405163162908e360e11b815260040160405180910390fd5b33600090815260076020526040812080548492906105589084906110e7565b92505081905550816005600082825461057191906110e7565b92505081905550806006600082825461058a91906110e7565b90915550507f00000000000000000000000000000000000000000000000000000000000000006001600160a01b031661067a57478111156105de576040516396d8043360e01b815260040160405180910390fd5b604051600090339083908381818185875af1925050503d8060008114610620576040519150601f19603f3d011682016040523d82523d6000602084013e610625565b606091505b50509050806106745760405162461bcd60e51b815260206004820152601660248201527513985d1a5d99481d1c985b9cd9995c8819985a5b195960521b60448201526064015b60405180910390fd5b506106ae565b6106ae6001600160a01b037f0000000000000000000000000000000000000000000000000000000000000000163383610ca4565b604080518281526020810184905233917f92ccf450a286a957af52509bc1c9939d1a6a481783e142e41e2499f0bb66ebc691015b60405180910390a26106f46001600255565b919050565b60008281526020819052604090206001015461071481610d03565b61071e8383610d0d565b50505050565b6001600160a01b038116331461074d5760405163334bd91960e11b815260040160405180910390fd5b6107578282610d9f565b505050565b600061076781610d03565b61076f610e0a565b50565b7f241ecf16d79d0f8dbfb92cbc07fe17840425976cf0667f022fe9877caa831b0861079c81610d03565b816000036107bd57604051631f2a200560e01b815260040160405180910390fd5b6006548211156107e0576040516396d8043360e01b815260040160405180910390fd5b81600660008282546107f291906110e7565b909155505060405182815233907fa4325e9537de0993cb7e718526f107525a5d529f2644c35bf9785cce2fe77b66906020015b60405180910390a25050565b6004805461083e906110fa565b80601f016020809104026020016040519081016040528092919081815260200182805461086a906110fa565b80156108b75780601f1061088c576101008083540402835291602001916108b7565b820191906000526020600020905b81548152906001019060200180831161089a57829003601f168201915b505050505081565b60006108ca81610d03565b61076f610e5c565b6000918252602082815260408084206001600160a01b0393909316845291905290205460ff1690565b60006005546000036109145750670de0b6b3a764000090565b60055460065461092c90670de0b6b3a76400006110ae565b61093691906110c5565b905090565b6000610945610c56565b61094d610c7c565b7f00000000000000000000000000000000000000000000000000000000000000006001600160a01b031661097f573491505b816000036109a057604051631f2a200560e01b815260040160405180910390fd5b7f00000000000000000000000000000000000000000000000000000000000000006001600160a01b031615610a0457610a046001600160a01b037f000000000000000000000000000000000000000000000000000000000000000016333085610e97565b6005541580610a135750600654155b15610a1f575080610a3c565b600654600554610a2f90846110ae565b610a3991906110c5565b90505b80600003610a5d5760405163162908e360e11b815260040160405180910390fd5b8060056000828254610a6f9190611134565b925050819055508160066000828254610a889190611134565b90915550503360009081526007602052604081208054839290610aac908490611134565b9091555050604080518381526020810183905233917f73a19dd210f1a7f902193214c0ee91dd35ee5b4d920cba8d519eca65a7b488ca91016106e2565b7f241ecf16d79d0f8dbfb92cbc07fe17840425976cf0667f022fe9877caa831b08610b1381610d03565b81600003610b3457604051631f2a200560e01b815260040160405180910390fd5b7f00000000000000000000000000000000000000000000000000000000000000006001600160a01b0316610b8757813414610b825760405163162908e360e11b815260040160405180910390fd5b610bdb565b3415610ba65760405163162908e360e11b815260040160405180910390fd5b610bdb6001600160a01b037f000000000000000000000000000000000000000000000000000000000000000016333085610e97565b8160066000828254610bed9190611134565b909155505060405182815233907f876606f701ac84659cf9989c916a4734619b8e5e6b68f8dd4d292573f503aff690602001610825565b600082815260208190526040902060010154610c3f81610d03565b61071e8383610d9f565b6003805461083e906110fa565b60015460ff1615610c7a5760405163d93c066560e01b815260040160405180910390fd5b565b6002805403610c9e57604051633ee5aeb560e01b815260040160405180910390fd5b60028055565b6040516001600160a01b0383811660248301526044820183905261075791859182169063a9059cbb906064015b604051602081830303815290604052915060e01b6020820180516001600160e01b038381831617835250505050610ed0565b61076f8133610f41565b6000610d1983836108d2565b610d97576000838152602081815260408083206001600160a01b03861684529091529020805460ff19166001179055610d4f3390565b6001600160a01b0316826001600160a01b0316847f2f8788117e7eff1d82e926ec794901d17c78024a50270940304540a733656f0d60405160405180910390a4506001610493565b506000610493565b6000610dab83836108d2565b15610d97576000838152602081815260408083206001600160a01b0386168085529252808320805460ff1916905551339286917ff6391f5c32d9c69d2a47ea670b442974b53935d1edc7fd64eb21e047a839171b9190a4506001610493565b610e12610f7e565b6001805460ff191690557f5db9ee0a495bf2e6ff9c91a7834c1ba4fdd244a5e8aa4e537bd38aeae4b073aa335b6040516001600160a01b03909116815260200160405180910390a1565b610e64610c56565b6001805460ff1916811790557f62e78cea01bee320cd4e420270b5ea74000d11b0c9f74754ebdbfc544b05a25833610e3f565b6040516001600160a01b03848116602483015283811660448301526064820183905261071e9186918216906323b872dd90608401610cd1565b600080602060008451602086016000885af180610ef3576040513d6000823e3d81fd5b50506000513d91508115610f0b578060011415610f18565b6001600160a01b0384163b155b1561071e57604051635274afe760e01b81526001600160a01b038516600482015260240161066b565b610f4b82826108d2565b610f7a5760405163e2517d3f60e01b81526001600160a01b03821660048201526024810183905260440161066b565b5050565b60015460ff16610c7a57604051638dfc202b60e01b815260040160405180910390fd5b600060208284031215610fb357600080fd5b81356001600160e01b031981168114610fcb57600080fd5b9392505050565b600060208284031215610fe457600080fd5b5035919050565b80356001600160a01b03811681146106f457600080fd5b6000806040838503121561101557600080fd5b8235915061102560208401610feb565b90509250929050565b60006020808352835180602085015260005b8181101561105c57858101830151858201604001528201611040565b506000604082860101526040601f19601f8301168501019250505092915050565b60006020828403121561108f57600080fd5b610fcb82610feb565b634e487b7160e01b600052601160045260246000fd5b808202811582820484141761049357610493611098565b6000826110e257634e487b7160e01b600052601260045260246000fd5b500490565b8181038181111561049357610493611098565b600181811c9082168061110e57607f821691505b60208210810361112e57634e487b7160e01b600052602260045260246000fd5b50919050565b808201808211156104935761049361109856fea2646970667358221220b92bfc0851f9ea36e710cc48dccf83dcbc29d67dbf6d8f68fef8183cab5513ab64736f6c63430008180033",
  "linkReferences": {},
  "deployedLinkReferences": {}
}