{
  "_format": "hh-sol-artifact-1",
  "contractName": "DefaianceDAO",
  "sourceName": "contracts/DefaianceDAO.sol",
  "abi": [
    {
      "inputs": [
        {
          "internalType": "address",
          "name": "admin",
          "type": "address"
        },
        {
          "internalType": "contract IVotes",
          "name": "governanceToken_",
          "type": "address"
        },
        {
          "internalType": "uint256",
          "name": "proposalThreshold_",
          "type": "uint256"
        },
        {
          "internalType": "uint256",
          "name": "votingDelayBlocks_",
          "type": "uint256"
        },
        {
          "internalType": "uint256",
          "name": "votingPeriodBlocks_",
          "type": "uint256"
        },
        {
          "internalType": "uint256",
          "name": "quorumBps_",
          "type": "uint256"
        },
        {
          "internalType": "uint256",
          "name": "timelockDelay_",
          "type": "uint256"
        }
      ],
      "stateMutability": "nonpayable",
      "type": "constructor"
    },
    {
      "inputs": [],
      "name": "AccessControlBadConfirmation",
      "type": "error"
    },
    {
      "inputs": [
        {
          "internalType": "address",
          "name": "account",
          "type": "address"
        },
        {
          "internalType": "bytes32",
          "name": "neededRole",
          "type": "bytes32"
        }
      ],
      "name": "AccessControlUnauthorizedAccount",
      "type": "error"
    },
    {
      "inputs": [],
      "name": "AlreadyVoted",
      "type": "error"
    },
    {
      "inputs": [],
      "name": "InsufficientVotingPower",
      "type": "error"
    },
    {
      "inputs": [],
      "name": "InvalidParams",
      "type": "error"
    },
    {
      "inputs": [],
      "name": "InvalidProposal",
      "type": "error"
    },
    {
      "inputs": [],
      "name": "InvalidState",
      "type": "error"
    },
    {
      "inputs": [],
      "name": "ReentrancyGuardReentrantCall",
      "type": "error"
    },
    {
      "inputs": [],
      "name": "Unauthorized",
      "type": "error"
    },
    {
      "inputs": [],
      "name": "ZeroAddress",
      "type": "error"
    },
    {
      "anonymous": false,
      "inputs": [
        {
          "indexed": false,
          "internalType": "uint256",
          "name": "proposalThreshold",
          "type": "uint256"
        },
        {
          "indexed": false,
          "internalType": "uint256",
          "name": "votingDelayBlocks",
          "type": "uint256"
        },
        {
          "indexed": false,
          "internalType": "uint256",
          "name": "votingPeriodBlocks",
          "type": "uint256"
        },
        {
          "indexed": false,
          "internalType": "uint256",
          "name": "quorumBps",
          "type": "uint256"
        },
        {
          "indexed": false,
          "internalType": "uint256",
          "name": "timelockDelay",
          "type": "uint256"
        }
      ],
      "name": "GovernanceParamsUpdated",
      "type": "event"
    },
    {
      "anonymous": false,
      "inputs": [
        {
          "indexed": true,
          "internalType": "uint256",
          "name": "proposalId",
          "type": "uint256"
        }
      ],
      "name": "ProposalCanceled",
      "type": "event"
    },
    {
      "anonymous": false,
      "inputs": [
        {
          "indexed": true,
          "internalType": "uint256",
          "name": "proposalId",
          "type": "uint256"
        },
        {
          "indexed": true,
          "internalType": "address",
          "name": "proposer",
          "type": "address"
        },
        {
          "indexed": true,
          "internalType": "address",
          "name": "target",
          "type": "address"
        },
        {
          "indexed": false,
          "internalType": "uint256",
          "name": "startBlock",
          "type": "uint256"
        },
        {
          "indexed": false,
          "internalType": "uint256",
          "name": "endBlock",
          "type": "uint256"
        }
      ],
      "name": "ProposalCreated",
      "type": "event"
    },
    {
      "anonymous": false,
      "inputs": [
        {
          "indexed": true,
          "internalType": "uint256",
          "name": "proposalId",
          "type": "uint256"
        }
      ],
      "name": "ProposalExecuted",
      "type": "event"
    },
    {
      "anonymous": false,
      "inputs": [
        {
          "indexed": true,
          "internalType": "uint256",
          "name": "proposalId",
          "type": "uint256"
        },
        {
          "indexed": false,
          "internalType": "uint256",
          "name": "eta",
          "type": "uint256"
        }
      ],
      "name": "ProposalQueued",
      "type": "event"
    },
    {
      "anonymous": false,
      "inputs": [
        {
          "indexed": true,
          "internalType": "bytes32",
          "name": "role",
          "type": "bytes32"
        },
        {
          "indexed": true,
          "internalType": "bytes32",
          "name": "previousAdminRole",
          "type": "bytes32"
        },
        {
          "indexed": true,
          "internalType": "bytes32",
          "name": "newAdminRole",
          "type": "bytes32"
        }
      ],
      "name": "RoleAdminChanged",
      "type": "event"
    },
    {
      "anonymous": false,
      "inputs": [
        {
          "indexed": true,
          "internalType": "bytes32",
          "name": "role",
          "type": "bytes32"
        },
        {
          "indexed": true,
          "internalType": "address",
          "name": "account",
          "type": "address"
        },
        {
          "indexed": true,
          "internalType": "address",
          "name": "sender",
          "type": "address"
        }
      ],
      "name": "RoleGranted",
      "type": "event"
    },
    {
      "anonymous": false,
      "inputs": [
        {
          "indexed": true,
          "internalType": "bytes32",
          "name": "role",
          "type": "bytes32"
        },
        {
          "indexed": true,
          "internalType": "address",
          "name": "account",
          "type": "address"
        },
        {
          "indexed": true,
          "internalType": "address",
          "name": "sender",
          "type": "address"
        }
      ],
      "name": "RoleRevoked",
      "type": "event"
    },
    {
      "anonymous": false,
      "inputs": [
        {
          "indexed": true,
          "internalType": "uint256",
          "name": "proposalId",
          "type": "uint256"
        },
        {
          "indexed": true,
          "internalType": "address",
          "name": "voter",
          "type": "address"
        },
        {
          "indexed": false,
          "internalType": "uint8",
          "name": "support",
          "type": "uint8"
        },
        {
          "indexed": false,
          "internalType": "uint256",
          "name": "weight",
          "type": "uint256"
        }
      ],
      "name": "VoteCast",
      "type": "event"
    },
    {
      "inputs": [],
      "name": "DEFAULT_ADMIN_ROLE",
      "outputs": [
        {
          "internalType": "bytes32",
          "name": "",
          "type": "bytes32"
        }
      ],
      "stateMutability": "view",
      "type": "function"
    },
    {
      "inputs": [],
      "name": "EXECUTOR_ROLE",
      "outputs": [
        {
          "internalType": "bytes32",
          "name": "",
          "type": "bytes32"
        }
      ],
      "stateMutability": "view",
      "type": "function"
    },
    {
      "inputs": [
        {
          "internalType": "uint256",
          "name": "proposalId",
          "type": "uint256"
        }
      ],
      "name": "cancel",
      "outputs": [],
      "stateMutability": "nonpayable",
      "type": "function"
    },
    {
      "inputs": [
        {
          "internalType": "uint256",
          "name": "proposalId",
          "type": "uint256"
        },
        {
          "internalType": "uint8",
          "name": "support",
          "type": "uint8"
        }
      ],
      "name": "castVote",
      "outputs": [],
      "stateMutability": "nonpayable",
      "type": "function"
    },
    {
      "inputs": [
        {
          "internalType": "uint256",
          "name": "proposalId",
          "type": "uint256"
        }
      ],
      "name": "execute",
      "outputs": [],
      "stateMutability": "nonpayable",
      "type": "function"
    },
    {
      "inputs": [
        {
          "internalType": "bytes32",
          "name": "role",
          "type": "bytes32"
        }
      ],
      "name": "getRoleAdmin",
      "outputs": [
        {
          "internalType": "bytes32",
          "name": "",
          "type": "bytes32"
        }
      ],
      "stateMutability": "view",
      "type": "function"
    },
    {
      "inputs": [],
      "name": "governanceToken",
      "outputs": [
        {
          "internalType": "contract IVotes",
          "name": "",
          "type": "address"
        }
      ],
      "stateMutability": "view",
      "type": "function"
    },
    {
      "inputs": [
        {
          "internalType": "bytes32",
          "name": "role",
          "type": "bytes32"
        },
        {
          "internalType": "address",
          "name": "account",
          "type": "address"
        }
      ],
      "name": "grantRole",
      "outputs": [],
      "stateMutability": "nonpayable",
      "type": "function"
    },
    {
      "inputs": [
        {
          "internalType": "bytes32",
          "name": "role",
          "type": "bytes32"
        },
        {
          "internalType": "address",
          "name": "account",
          "type": "address"
        }
      ],
      "name": "hasRole",
      "outputs": [
        {
          "internalType": "bool",
          "name": "",
          "type": "bool"
        }
      ],
      "stateMutability": "view",
      "type": "function"
    },
    {
      "inputs": [
        {
          "internalType": "uint256",
          "name": "",
          "type": "uint256"
        },
        {
          "internalType": "address",
          "name": "",
          "type": "address"
        }
      ],
      "name": "hasVoted",
      "outputs": [
        {
          "internalType": "bool",
          "name": "",
          "type": "bool"
        }
      ],
      "stateMutability": "view",
      "type": "function"
    },
    {
      "inputs": [],
      "name": "proposalCount",
      "outputs": [
        {
          "internalType": "uint256",
          "name": "",
          "type": "uint256"
        }
      ],
      "stateMutability": "view",
      "type": "function"
    },
    {
      "inputs": [],
      "name": "proposalThreshold",
      "outputs": [
        {
          "internalType": "uint256",
          "name": "",
          "type": "uint256"
        }
      ],
      "stateMutability": "view",
      "type": "function"
    },
    {
      "inputs": [
        {
          "internalType": "uint256",
          "name": "",
          "type": "uint256"
        }
      ],
      "name": "proposals",
      "outputs": [
        {
          "internalType": "address",
          "name": "proposer",
          "type": "address"
        },
        {
          "internalType": "address",
          "name": "target",
          "type": "address"
        },
        {
          "internalType": "uint256",
          "name": "value",
          "type": "uint256"
        },
        {
          "internalType": "bytes",
          "name": "data",
          "type": "bytes"
        },
        {
          "internalType": "string",
          "name": "description",
          "type": "string"
        },
        {
          "internalType": "uint256",
          "name": "startBlock",
          "type": "uint256"
        },
        {
          "internalType": "uint256",
          "name": "endBlock",
          "type": "uint256"
        },
        {
          "internalType": "uint256",
          "name": "eta",
          "type": "uint256"
        },
        {
          "internalType": "uint256",
          "name": "forVotes",
          "type": "uint256"
        },
        {
          "internalType": "uint256",
          "name": "againstVotes",
          "type": "uint256"
        },
        {
          "internalType": "uint256",
          "name": "abstainVotes",
          "type": "uint256"
        },
        {
          "internalType": "bool",
          "name": "executed",
          "type": "bool"
        },
        {
          "internalType": "bool",
          "name": "canceled",
          "type": "bool"
        }
      ],
      "stateMutability": "view",
      "type": "function"
    },
    {
      "inputs": [
        {
          "internalType": "address",
          "name": "target",
          "type": "address"
        },
        {
          "internalType": "uint256",
          "name": "value",
          "type": "uint256"
        },
        {
          "internalType": "bytes",
          "name": "data",
          "type": "bytes"
        },
        {
          "internalType": "string",
          "name": "description",
          "type": "string"
        }
      ],
      "name": "propose",
      "outputs": [
        {
          "internalType": "uint256",
          "name": "proposalId",
          "type": "uint256"
        }
      ],
      "stateMutability": "nonpayable",
      "type": "function"
    },
    {
      "inputs": [
        {
          "internalType": "uint256",
          "name": "proposalId",
          "type": "uint256"
        }
      ],
      "name": "queue",
      "outputs": [],
      "stateMutability": "nonpayable",
      "type": "function"
    },
    {
      "inputs": [
        {
          "internalType": "uint256",
          "name": "blockNumber",
          "type": "uint256"
        }
      ],
      "name": "quorum",
      "outputs": [
        {
          "internalType": "uint256",
          "name": "",
          "type": "uint256"
        }
      ],
      "stateMutability": "view",
      "type": "function"
    },
    {
      "inputs": [],
      "name": "quorumBps",
      "outputs": [
        {
          "internalType": "uint256",
          "name": "",
          "type": "uint256"
        }
      ],
      "stateMutability": "view",
      "type": "function"
    },
    {
      "inputs": [
        {
          "internalType": "bytes32",
          "name": "role",
          "type": "bytes32"
        },
        {
          "internalType": "address",
          "name": "callerConfirmation",
          "type": "address"
        }
      ],
      "name": "renounceRole",
      "outputs": [],
      "stateMutability": "nonpayable",
      "type": "function"
    },
    {
      "inputs": [
        {
          "internalType": "bytes32",
          "name": "role",
          "type": "bytes32"
        },
        {
          "internalType": "address",
          "name": "account",
          "type": "address"
        }
      ],
      "name": "revokeRole",
      "outputs": [],
      "stateMutability": "nonpayable",
      "type": "function"
    },
    {
      "inputs": [
        {
          "internalType": "uint256",
          "name": "proposalId",
          "type": "uint256"
        }
      ],
      "name": "state",
      "outputs": [
        {
          "internalType": "enum DefaianceDAO.ProposalState",
          "name": "",
          "type": "uint8"
        }
      ],
      "stateMutability": "view",
      "type": "function"
    },
    {
      "inputs": [
        {
          "internalType": "bytes4",
          "name": "interfaceId",
          "type": "bytes4"
        }
      ],
      "name": "supportsInterface",
      "outputs": [
        {
          "internalType": "bool",
          "name": "",
          "type": "bool"
        }
      ],
      "stateMutability": "view",
      "type": "function"
    },
    {
      "inputs": [],
      "name": "timelockDelay",
      "outputs": [
        {
          "internalType": "uint256",
          "name": "",
          "type": "uint256"
        }
      ],
      "stateMutability": "view",
      "type": "function"
    },
    {
      "inputs": [
        {
          "internalType": "uint256",
          "name": "proposalThreshold_",
          "type": "uint256"
        },
        {
          "internalType": "uint256",
          "name": "votingDelayBlocks_",
          "type": "uint256"
        },
        {
          "internalType": "uint256",
          "name": "votingPeriodBlocks_",
          "type": "uint256"
        },
        {
          "internalType": "uint256",
          "name": "quorumBps_",
          "type": "uint256"
        },
        {
          "internalType": "uint256",
          "name": "timelockDelay_",
          "type": "uint256"
        }
      ],
      "name": "updateGovernanceParams",
      "outputs": [],
      "stateMutability": "nonpayable",
      "type": "function"
    },
    {
      "inputs": [],
      "name": "votingDelayBlocks",
      "outputs": [
        {
          "internalType": "uint256",
          "name": "",
          "type": "uint256"
        }
      ],
      "stateMutability": "view",
      "type": "function"
    },
    {
      "inputs": [],
      "name": "votingPeriodBlocks",
      "outputs": [
        {
          "internalType": "uint256",
          "name": "",
          "type": "uint256"
        }
      ],
      "stateMutability": "view",
      "type": "function"
    }
  ],
  "bytecode": "0x60a06040523480156200001157600080fd5b5060405162001afe38038062001afe8339810160408190526200003491620001f3565b600180556001600160a01b03871615806200005657506001600160a01b038616155b15620000755760405163d92e233d60e01b815260040160405180910390fd5b620000818383620000ef565b6001600160a01b03861660805260028590556003849055600483905560058290556006819055620000b46000886200012b565b50620000e17fd8aa0f3194971a2a116679f7c2090f6939c8d4e01a2a8d7e41d55e5351469e63886200012b565b50505050505050506200025f565b811580620000fb575080155b8062000108575061271081115b156200012757604051635435b28960e11b815260040160405180910390fd5b5050565b6000828152602081815260408083206001600160a01b038516845290915281205460ff16620001d0576000838152602081815260408083206001600160a01b03861684529091529020805460ff19166001179055620001873390565b6001600160a01b0316826001600160a01b0316847f2f8788117e7eff1d82e926ec794901d17c78024a50270940304540a733656f0d60405160405180910390a4506001620001d4565b5060005b92915050565b6001600160a01b0381168114620001f057600080fd5b50565b600080600080600080600060e0888a0312156200020f57600080fd5b87516200021c81620001da565b60208901519097506200022f81620001da565b604089015160608a015160808b015160a08c015160c0909c01519a9d939c50919a90999198509650945092505050565b60805161186e6200029060003960008181610379015281816108be01528181610a550152610ef2015261186e6000f3fe608060405234801561001057600080fd5b50600436106101735760003560e01c80639ce23928116100de578063d547741f11610097578063eef09bad11610071578063eef09bad14610358578063f8ce560a14610361578063f96dae0a14610374578063fe0d94c1146103b357600080fd5b8063d547741f14610329578063da35c6641461033c578063ddf0b0091461034557600080fd5b80639ce23928146102ea578063a217fddf146102f3578063b24b7ffd146102fb578063b2c6d18214610304578063b58131b014610317578063cd2ddd0c1461032057600080fd5b80633e4f49e6116101305780633e4f49e61461025057806340e58ee514610270578063438596321461028357806356781388146102b157806382ff16c1146102c457806391d14854146102d757600080fd5b8063013cf08b1461017857806301ffc9a7146101ad57806307bd0265146101d0578063248a9ca3146102055780632f2ff15d1461022857806336568abe1461023d575b600080fd5b61018b6101863660046112ce565b6103c6565b6040516101a49d9c9b9a9998979695949392919061132d565b60405180910390f35b6101c06101bb3660046113c7565b61054b565b60405190151581526020016101a4565b6101f77fd8aa0f3194971a2a116679f7c2090f6939c8d4e01a2a8d7e41d55e5351469e6381565b6040519081526020016101a4565b6101f76102133660046112ce565b60009081526020819052604090206001015490565b61023b61023636600461140d565b610582565b005b61023b61024b36600461140d565b6105ad565b61026361025e3660046112ce565b6105e5565b6040516101a4919061144f565b61023b61027e3660046112ce565b6106ee565b6101c061029136600461140d565b600960209081526000928352604080842090915290825290205460ff1681565b61023b6102bf366004611477565b6107c9565b6101f76102d23660046114f6565b610a20565b6101c06102e536600461140d565b610d67565b6101f760035481565b6101f7600081565b6101f760045481565b61023b610312366004611580565b610d90565b6101f760025481565b6101f760055481565b61023b61033736600461140d565b610e15565b6101f760075481565b61023b6103533660046112ce565b610e3a565b6101f760065481565b6101f761036f3660046112ce565b610ecf565b61039b7f000000000000000000000000000000000000000000000000000000000000000081565b6040516001600160a01b0390911681526020016101a4565b61023b6103c13660046112ce565b610f81565b60086020526000908152604090208054600182015460028301546003840180546001600160a01b039485169594909316939192610402906115bb565b80601f016020809104026020016040519081016040528092919081815260200182805461042e906115bb565b801561047b5780601f106104505761010080835404028352916020019161047b565b820191906000526020600020905b81548152906001019060200180831161045e57829003601f168201915b505050505090806004018054610490906115bb565b80601f01602080910402602001604051908101604052809291908181526020018280546104bc906115bb565b80156105095780601f106104de57610100808354040283529160200191610509565b820191906000526020600020905b8154815290600101906020018083116104ec57829003601f168201915b5050505060058301546006840154600785015460088601546009870154600a880154600b90980154969794969395509193909260ff808216916101009004168d565b60006001600160e01b03198216637965db0b60e01b148061057c57506301ffc9a760e01b6001600160e01b03198316145b92915050565b60008281526020819052604090206001015461059d8161112b565b6105a78383611135565b50505050565b6001600160a01b03811633146105d65760405163334bd91960e11b815260040160405180910390fd5b6105e082826111c7565b505050565b600081815260086020526040812080546001600160a01b031661061b57604051631dc0650160e31b815260040160405180910390fd5b600b810154610100900460ff16156106365750600692915050565b600b81015460ff161561064c5750600592915050565b80600501544310156106615750600092915050565b806006015443116106755750600192915050565b60006106848260050154610ecf565b905060008183600a0154846008015461069d919061160b565b101590506000836009015484600801541180156106b75750815b9050806106ca5750600395945050505050565b83600701546000036106e25750600295945050505050565b50600495945050505050565b600081815260086020526040902080546001600160a01b031661072457604051631dc0650160e31b815260040160405180910390fd5b80546001600160a01b031633148015906107465750610744600033610d67565b155b15610763576040516282b42960e81b815260040160405180910390fd5b600b81015460ff16156107895760405163baf3f0f760e01b815260040160405180910390fd5b600b8101805461ff00191661010017905560405182907f789cf55be980739dad1d0699b93b58e806b51c9d96619bfa8fe0a28abaa7b30c90600090a25050565b600082815260086020526040902080546001600160a01b03166107ff57604051631dc0650160e31b815260040160405180910390fd5b600161080a846105e5565b600681111561081b5761081b611439565b146108395760405163baf3f0f760e01b815260040160405180910390fd5b600083815260096020908152604080832033845290915290205460ff161561087457604051637c9a1cf960e01b815260040160405180910390fd5b60028260ff16111561089957604051635435b28960e11b815260040160405180910390fd5b6005810154604051630748d63560e31b815233600482015260248101919091526000907f00000000000000000000000000000000000000000000000000000000000000006001600160a01b031690633a46b1a890604401602060405180830381865afa15801561090d573d6000803e3d6000fd5b505050506040513d601f19601f82011682018060405250810190610931919061161e565b9050806000036109545760405163cabeb65560e01b815260040160405180910390fd5b60008481526009602090815260408083203384529091528120805460ff1916600117905560ff841690036109a15780826009016000828254610996919061160b565b909155506109da9050565b8260ff166001036109c05780826008016000828254610996919061160b565b8082600a0160008282546109d4919061160b565b90915550505b6040805160ff8516815260208101839052339186917fb83d25c6a5d258561330739951487acb4bd09ba5190b5d32c4f261817d906792910160405180910390a350505050565b60006001600160a01b038716610a495760405163d92e233d60e01b815260040160405180910390fd5b60006001600160a01b037f000000000000000000000000000000000000000000000000000000000000000016633a46b1a833610a86600143611637565b6040516001600160e01b031960e085901b1681526001600160a01b0390921660048301526024820152604401602060405180830381865afa158015610acf573d6000803e3d6000fd5b505050506040513d601f19601f82011682018060405250810190610af3919061161e565b9050600254811015610b185760405163cabeb65560e01b815260040160405180910390fd5b600760008154610b279061164a565b9190508190559150600060035443610b3f919061160b565b9050600060045482610b51919061160b565b9050604051806101a00160405280336001600160a01b031681526020018b6001600160a01b031681526020018a815260200189898080601f016020809104026020016040519081016040528093929190818152602001838380828437600092019190915250505090825250604080516020601f8a018190048102820181019092528881529181019190899089908190840183828082843760009201829052509385525050506020808301869052604080840186905260608085018490526080850184905260a0850184905260c0850184905260e085018490526101009094018390528883526008825291829020845181546001600160a01b03199081166001600160a01b0392831617835592860151600183018054909416911617909155908301516002820155908201516003820190610c8b90826116c9565b5060808201516004820190610ca090826116c9565b5060a0820151600582015560c0820151600682015560e082015160078201556101008083015160088301556101208301516009830155610140830151600a830155610160830151600b90920180546101809094015161ffff1990941692151561ff001916929092179215150291909117905560408051838152602081018390526001600160a01b038c1691339187917f0498efc40851dd66b079b44ac06f0291de83b764e409f0e2727693d9a48a39f8910160405180910390a45050509695505050505050565b6000918252602082815260408084206001600160a01b0393909316845291905290205460ff1690565b6000610d9b8161112b565b610da58484611232565b60028690556003859055600484905560058390556006829055604080518781526020810187905290810185905260608101849052608081018390527f127af1ec4bde53f7b9e2422634064be0adb56ac1d20642e6569bee96e139f4fe9060a00160405180910390a1505050505050565b600082815260208190526040902060010154610e308161112b565b6105a783836111c7565b60008181526008602052604090206002610e53836105e5565b6006811115610e6457610e64611439565b14610e825760405163baf3f0f760e01b815260040160405180910390fd5b600654610e8f904261160b565b6007820181905560405190815282907f9a2e42fd6722813d69113e7d0079d3d940171428df7373df9c7f7617cfda28929060200160405180910390a25050565b604051632394e7a360e21b81526004810182905260009081906001600160a01b037f00000000000000000000000000000000000000000000000000000000000000001690638e539e8c90602401602060405180830381865afa158015610f39573d6000803e3d6000fd5b505050506040513d601f19601f82011682018060405250810190610f5d919061161e565b905061271060055482610f709190611789565b610f7a91906117a0565b9392505050565b610f8961126b565b7fd8aa0f3194971a2a116679f7c2090f6939c8d4e01a2a8d7e41d55e5351469e63610fb38161112b565b60008281526008602052604090206004610fcc846105e5565b6006811115610fdd57610fdd611439565b14610ffb5760405163baf3f0f760e01b815260040160405180910390fd5b80600701544210156110205760405163baf3f0f760e01b815260040160405180910390fd5b600b8101805460ff1916600190811790915581015460028201546040516000926001600160a01b031691906110599060038601906117c2565b60006040518083038185875af1925050503d8060008114611096576040519150601f19603f3d011682016040523d82523d6000602084013e61109b565b606091505b50509050806110f15760405162461bcd60e51b815260206004820152601960248201527f50726f706f73616c20657865637574696f6e206661696c65640000000000000060448201526064015b60405180910390fd5b60405184907f712ae1383f79ac853f8d882153778e0260ef8f03b504e2866e0593e04d2b291f90600090a250505061112860018055565b50565b6111288133611295565b60006111418383610d67565b6111bf576000838152602081815260408083206001600160a01b03861684529091529020805460ff191660011790556111773390565b6001600160a01b0316826001600160a01b0316847f2f8788117e7eff1d82e926ec794901d17c78024a50270940304540a733656f0d60405160405180910390a450600161057c565b50600061057c565b60006111d38383610d67565b156111bf576000838152602081815260408083206001600160a01b0386168085529252808320805460ff1916905551339286917ff6391f5c32d9c69d2a47ea670b442974b53935d1edc7fd64eb21e047a839171b9190a450600161057c565b81158061123d575080155b80611249575061271081115b1561126757604051635435b28960e11b815260040160405180910390fd5b5050565b60026001540361128e57604051633ee5aeb560e01b815260040160405180910390fd5b6002600155565b61129f8282610d67565b6112675760405163e2517d3f60e01b81526001600160a01b0382166004820152602481018390526044016110e8565b6000602082840312156112e057600080fd5b5035919050565b6000815180845260005b8181101561130d576020818501810151868301820152016112f1565b506000602082860101526020601f19601f83011685010191505092915050565b6001600160a01b038e811682528d166020820152604081018c90526101a0606082018190526000906113619083018d6112e7565b8281036080840152611373818d6112e7565b9150508960a08301528860c08301528760e08301528661010083015285610120830152846101408301528315156101608301526113b561018083018415159052565b9e9d5050505050505050505050505050565b6000602082840312156113d957600080fd5b81356001600160e01b031981168114610f7a57600080fd5b80356001600160a01b038116811461140857600080fd5b919050565b6000806040838503121561142057600080fd5b82359150611430602084016113f1565b90509250929050565b634e487b7160e01b600052602160045260246000fd5b602081016007831061147157634e487b7160e01b600052602160045260246000fd5b91905290565b6000806040838503121561148a57600080fd5b82359150602083013560ff811681146114a257600080fd5b809150509250929050565b60008083601f8401126114bf57600080fd5b50813567ffffffffffffffff8111156114d757600080fd5b6020830191508360208285010111156114ef57600080fd5b9250929050565b6000806000806000806080878903121561150f57600080fd5b611518876113f1565b955060208701359450604087013567ffffffffffffffff8082111561153c57600080fd5b6115488a838b016114ad565b9096509450606089013591508082111561156157600080fd5b5061156e89828a016114ad565b979a9699509497509295939492505050565b600080600080600060a0868803121561159857600080fd5b505083359560208501359550604085013594606081013594506080013592509050565b600181811c908216806115cf57607f821691505b6020821081036115ef57634e487b7160e01b600052602260045260246000fd5b50919050565b634e487b7160e01b600052601160045260246000fd5b8082018082111561057c5761057c6115f5565b60006020828403121561163057600080fd5b5051919050565b8181038181111561057c5761057c6115f5565b60006001820161165c5761165c6115f5565b5060010190565b634e487b7160e01b600052604160045260246000fd5b601f8211156105e0576000816000526020600020601f850160051c810160208610156116a25750805b601f850160051c820191505b818110156116c1578281556001016116ae565b505050505050565b815167ffffffffffffffff8111156116e3576116e3611663565b6116f7816116f184546115bb565b84611679565b602080601f83116001811461172c57600084156117145750858301515b600019600386901b1c1916600185901b1785556116c1565b600085815260208120601f198616915b8281101561175b5788860151825594840194600190910190840161173c565b50858210156117795787850151600019600388901b60f8161c191681555b5050505050600190811b01905550565b808202811582820484141761057c5761057c6115f5565b6000826117bd57634e487b7160e01b600052601260045260246000fd5b500490565b60008083546117d0816115bb565b600182811680156117e857600181146117fd5761182c565b60ff198416875282151583028701945061182c565b8760005260208060002060005b858110156118235781548a82015290840190820161180a565b50505082870194505b5092969550505050505056fea2646970667358221220dba998f42d0254a6b51ef8d4ba4c6387c624262df3e00194c58bad1482abe3a764736f6c63430008180033",
  "linkReferences": {},
  "deployedLinkReferences": {}
}