{
  "_format": "hh-sol-artifact-1",
  "contractName": "TokenVesting",
  "sourceName": "contracts/TokenVesting.sol",
  "abi": [
    {
      "inputs": [
        {
          "internalType": "address",
          "name": "admin",
          "type": "address"
        },
        {
          "internalType": "contract IERC20",
          "name": "token_",
          "type": "address"
        },
        {
          "internalType": "address",
          "name": "treasury_",
          "type": "address"
        }
      ],
      "stateMutability": "nonpayable",
      "type": "constructor"
    },
    {
      "inputs": [],
      "name": "AccessControlBadConfirmation",
      "type": "error"
    },
    {
      "inputs": [
        {
          "internalType": "address",
          "name": "account",
          "type": "address"
        },
        {
          "internalType": "bytes32",
          "name": "neededRole",
          "type": "bytes32"
        }
      ],
      "name": "AccessControlUnauthorizedAccount",
      "type": "error"
    },
    {
      "inputs": [],
      "name": "InvalidSchedule",
      "type": "error"
    },
    {
      "inputs": [],
      "name": "NotCancelable",
      "type": "error"
    },
    {
      "inputs": [],
      "name": "ReentrancyGuardReentrantCall",
      "type": "error"
    },
    {
      "inputs": [
        {
          "internalType": "address",
          "name": "token",
          "type": "address"
        }
      ],
      "name": "SafeERC20FailedOperation",
      "type": "error"
    },
    {
      "inputs": [],
      "name": "ScheduleExists",
      "type": "error"
    },
    {
      "inputs": [],
      "name": "ZeroAddress",
      "type": "error"
    },
    {
      "inputs": [],
      "name": "ZeroAmount",
      "type": "error"
    },
    {
      "anonymous": false,
      "inputs": [
        {
          "indexed": true,
          "internalType": "bytes32",
          "name": "role",
          "type": "bytes32"
        },
        {
          "indexed": true,
          "internalType": "bytes32",
          "name": "previousAdminRole",
          "type": "bytes32"
        },
        {
          "indexed": true,
          "internalType": "bytes32",
          "name": "newAdminRole",
          "type": "bytes32"
        }
      ],
      "name": "RoleAdminChanged",
      "type": "event"
    },
    {
      "anonymous": false,
      "inputs": [
        {
          "indexed": true,
          "internalType": "bytes32",
          "name": "role",
          "type": "bytes32"
        },
        {
          "indexed": true,
          "internalType": "address",
          "name": "account",
          "type": "address"
        },
        {
          "indexed": true,
          "internalType": "address",
          "name": "sender",
          "type": "address"
        }
      ],
      "name": "RoleGranted",
      "type": "event"
    },
    {
      "anonymous": false,
      "inputs": [
        {
          "indexed": true,
          "internalType": "bytes32",
          "name": "role",
          "type": "bytes32"
        },
        {
          "indexed": true,
          "internalType": "address",
          "name": "account",
          "type": "address"
        },
        {
          "indexed": true,
          "internalType": "address",
          "name": "sender",
          "type": "address"
        }
      ],
      "name": "RoleRevoked",
      "type": "event"
    },
    {
      "anonymous": false,
      "inputs": [
        {
          "indexed": true,
          "internalType": "address",
          "name": "beneficiary",
          "type": "address"
        },
        {
          "indexed": false,
          "internalType": "uint256",
          "name": "amount",
          "type": "uint256"
        },
        {
          "indexed": false,
          "internalType": "uint64",
          "name": "start",
          "type": "uint64"
        },
        {
          "indexed": false,
          "internalType": "uint64",
          "name": "cliff",
          "type": "uint64"
        },
        {
          "indexed": false,
          "internalType": "uint64",
          "name": "duration",
          "type": "uint64"
        },
        {
          "indexed": false,
          "internalType": "bool",
          "name": "cancelable",
          "type": "bool"
        }
      ],
      "name": "ScheduleCreated",
      "type": "event"
    },
    {
      "anonymous": false,
      "inputs": [
        {
          "indexed": true,
          "internalType": "address",
          "name": "beneficiary",
          "type": "address"
        },
        {
          "indexed": false,
          "internalType": "uint256",
          "name": "refundAmount",
          "type": "uint256"
        }
      ],
      "name": "ScheduleRevoked",
      "type": "event"
    },
    {
      "anonymous": false,
      "inputs": [
        {
          "indexed": true,
          "internalType": "address",
          "name": "beneficiary",
          "type": "address"
        },
        {
          "indexed": false,
          "internalType": "uint256",
          "name": "amount",
          "type": "uint256"
        }
      ],
      "name": "TokensReleased",
      "type": "event"
    },
    {
      "anonymous": false,
      "inputs": [
        {
          "indexed": true,
          "internalType": "address",
          "name": "treasury",
          "type": "address"
        }
      ],
      "name": "TreasuryUpdated",
      "type": "event"
    },
    {
      "inputs": [],
      "name": "DEFAULT_ADMIN_ROLE",
      "outputs": [
        {
          "internalType": "bytes32",
          "name": "",
          "type": "bytes32"
        }
      ],
      "stateMutability": "view",
      "type": "function"
    },
    {
      "inputs": [
        {
          "internalType": "address",
          "name": "beneficiary",
          "type": "address"
        },
        {
          "internalType": "uint256",
          "name": "amount",
          "type": "uint256"
        },
        {
          "internalType": "uint64",
          "name": "start",
          "type": "uint64"
        },
        {
          "internalType": "uint64",
          "name": "cliffDuration",
          "type": "uint64"
        },
        {
          "internalType": "uint64",
          "name": "duration",
          "type": "uint64"
        },
        {
          "internalType": "bool",
          "name": "cancelable",
          "type": "bool"
        }
      ],
      "name": "createSchedule",
      "outputs": [],
      "stateMutability": "nonpayable",
      "type": "function"
    },
    {
      "inputs": [
        {
          "internalType": "bytes32",
          "name": "role",
          "type": "bytes32"
        }
      ],
      "name": "getRoleAdmin",
      "outputs": [
        {
          "internalType": "bytes32",
          "name": "",
          "type": "bytes32"
        }
      ],
      "stateMutability": "view",
      "type": "function"
    },
    {
      "inputs": [
        {
          "internalType": "bytes32",
          "name": "role",
          "type": "bytes32"
        },
        {
          "internalType": "address",
          "name": "account",
          "type": "address"
        }
      ],
      "name": "grantRole",
      "outputs": [],
      "stateMutability": "nonpayable",
      "type": "function"
    },
    {
      "inputs": [
        {
          "internalType": "bytes32",
          "name": "role",
          "type": "bytes32"
        },
        {
          "internalType": "address",
          "name": "account",
          "type": "address"
        }
      ],
      "name": "hasRole",
      "outputs": [
        {
          "internalType": "bool",
          "name": "",
          "type": "bool"
        }
      ],
      "stateMutability": "view",
      "type": "function"
    },
    {
      "inputs": [
        {
          "internalType": "address",
          "name": "beneficiary",
          "type": "address"
        }
      ],
      "name": "releasableAmount",
      "outputs": [
        {
          "internalType": "uint256",
          "name": "",
          "type": "uint256"
        }
      ],
      "stateMutability": "view",
      "type": "function"
    },
    {
      "inputs": [],
      "name": "release",
      "outputs": [],
      "stateMutability": "nonpayable",
      "type": "function"
    },
    {
      "inputs": [
        {
          "internalType": "bytes32",
          "name": "role",
          "type": "bytes32"
        },
        {
          "internalType": "address",
          "name": "callerConfirmation",
          "type": "address"
        }
      ],
      "name": "renounceRole",
      "outputs": [],
      "stateMutability": "nonpayable",
      "type": "function"
    },
    {
      "inputs": [
        {
          "internalType": "address",
          "name": "beneficiary",
          "type": "address"
        }
      ],
      "name": "revoke",
      "outputs": [],
      "stateMutability": "nonpayable",
      "type": "function"
    },
    {
      "inputs": [
        {
          "internalType": "bytes32",
          "name": "role",
          "type": "bytes32"
        },
        {
          "internalType": "address",
          "name": "account",
          "type": "address"
        }
      ],
      "name": "revokeRole",
      "outputs": [],
      "stateMutability": "nonpayable",
      "type": "function"
    },
    {
      "inputs": [
        {
          "internalType": "address",
          "name": "",
          "type": "address"
        }
      ],
      "name": "schedules",
      "outputs": [
        {
          "internalType": "uint256",
          "name": "totalAmount",
          "type": "uint256"
        },
        {
          "internalType": "uint256",
          "name": "releasedAmount",
          "type": "uint256"
        },
        {
          "internalType": "uint64",
          "name": "start",
          "type": "uint64"
        },
        {
          "internalType": "uint64",
          "name": "cliff",
          "type": "uint64"
        },
        {
          "internalType": "uint64",
          "name": "duration",
          "type": "uint64"
        },
        {
          "internalType": "bool",
          "name": "cancelable",
          "type": "bool"
        },
        {
          "internalType": "bool",
          "name": "revoked",
          "type": "bool"
        }
      ],
      "stateMutability": "view",
      "type": "function"
    },
    {
      "inputs": [
        {
          "internalType": "address",
          "name": "treasury_",
          "type": "address"
        }
      ],
      "name": "setTreasury",
      "outputs": [],
      "stateMutability": "nonpayable",
      "type": "function"
    },
    {
      "inputs": [
        {
          "internalType": "bytes4",
          "name": "interfaceId",
          "type": "bytes4"
        }
      ],
      "name": "supportsInterface",
      "outputs": [
        {
          "internalType": "bool",
          "name": "",
          "type": "bool"
        }
      ],
      "stateMutability": "view",
      "type": "function"
    },
    {
      "inputs": [],
      "name": "token",
      "outputs": [
        {
          "internalType": "contract IERC20",
          "name": "",
          "type": "address"
        }
      ],
      "stateMutability": "view",
      "type": "function"
    },
    {
      "inputs": [],
      "name": "treasury",
      "outputs": [
        {
          "internalType": "address",
          "name": "",
          "type": "address"
        }
      ],
      "stateMutability": "view",
      "type": "function"
    }
  ],
  "bytecode": "0x60a06040523480156200001157600080fd5b50604051620012fb380380620012fb83398101604081905262000034916200018c565b600180556001600160a01b03831615806200005657506001600160a01b038216155b806200006957506001600160a01b038116155b15620000885760405163d92e233d60e01b815260040160405180910390fd5b6001600160a01b03828116608052600280546001600160a01b031916918316919091179055620000ba600084620000c4565b50505050620001e0565b6000828152602081815260408083206001600160a01b038516845290915281205460ff1662000169576000838152602081815260408083206001600160a01b03861684529091529020805460ff19166001179055620001203390565b6001600160a01b0316826001600160a01b0316847f2f8788117e7eff1d82e926ec794901d17c78024a50270940304540a733656f0d60405160405180910390a45060016200016d565b5060005b92915050565b6001600160a01b03811681146200018957600080fd5b50565b600080600060608486031215620001a257600080fd5b8351620001af8162000173565b6020850151909350620001c28162000173565b6040850151909250620001d58162000173565b809150509250925092565b6080516110e362000218600039600081816102d6015281816105d80152818161065a015281816107440152610a4301526110e36000f3fe608060405234801561001057600080fd5b50600436106100f55760003560e01c806380c3780f11610097578063a217fddf11610066578063a217fddf146102a3578063d547741f146102ab578063f0f44260146102be578063fc0c546a146102d157600080fd5b806380c3780f146101cc57806386d1a69f1461027557806391d148541461027d578063985e23751461029057600080fd5b80632f2ff15d116100d35780632f2ff15d1461016657806336568abe1461017b57806361d027b31461018e57806374a8f103146101b957600080fd5b806301ffc9a7146100fa5780631726cbc814610122578063248a9ca314610143575b600080fd5b61010d610108366004610eb7565b6102f8565b60405190151581526020015b60405180910390f35b610135610130366004610f04565b61032f565b604051908152602001610119565b610135610151366004610f1f565b60009081526020819052604090206001015490565b610179610174366004610f38565b6103fe565b005b610179610189366004610f38565b610429565b6002546101a1906001600160a01b031681565b6040516001600160a01b039091168152602001610119565b6101796101c7366004610f04565b610461565b61022e6101da366004610f04565b6003602052600090815260409020805460018201546002909201549091906001600160401b0380821691600160401b8104821691600160801b8204169060ff600160c01b8204811691600160c81b90041687565b6040805197885260208801969096526001600160401b039485169587019590955291831660608601529091166080840152151560a0830152151560c082015260e001610119565b6101796106d7565b61010d61028b366004610f38565b6107ad565b61017961029e366004610f7b565b6107d6565b610135600081565b6101796102b9366004610f38565b610aea565b6101796102cc366004610f04565b610b0f565b6101a17f000000000000000000000000000000000000000000000000000000000000000081565b60006001600160e01b03198216637965db0b60e01b148061032957506301ffc9a760e01b6001600160e01b03198316145b92915050565b6001600160a01b0381166000908152600360209081526040808320815160e08101835281548082526001830154948201949094526002909101546001600160401b0380821693830193909352600160401b810483166060830152600160801b8104909216608082015260ff600160c01b83048116151560a0830152600160c81b909204909116151560c08201529015806103ca57508060c001515b156103d85750600092915050565b60006103e48242610b8c565b90508160200151816103f69190611007565b949350505050565b60008281526020819052604090206001015461041981610c3c565b6104238383610c49565b50505050565b6001600160a01b03811633146104525760405163334bd91960e11b815260040160405180910390fd5b61045c8282610cdb565b505050565b600061046c81610c3c565b610474610d46565b6001600160a01b0382166000908152600360205260409020805415806104a557506002810154600160c81b900460ff165b156104c357604051631b742d9d60e31b815260040160405180910390fd5b6002810154600160c01b900460ff166104ef5760405163ca48dc8360e01b815260040160405180910390fd5b6040805160e081018252825481526001830154602082015260028301546001600160401b0380821693830193909352600160401b810483166060830152600160801b8104909216608082015260ff600160c01b83048116151560a0830152600160c81b909204909116151560c082015260009061056c9042610b8c565b905060008260010154826105809190611007565b905060008284600001546105949190611007565b60028501805460ff60c81b1916600160c81b1790559050811561064357818460010160008282546105c5919061101a565b909155506105ff90506001600160a01b037f0000000000000000000000000000000000000000000000000000000000000000168784610d70565b856001600160a01b03167fc7798891864187665ac6dd119286e44ec13f014527aeeb2b8eb3fd413df931798360405161063a91815260200190565b60405180910390a25b801561068357600254610683906001600160a01b037f00000000000000000000000000000000000000000000000000000000000000008116911683610d70565b856001600160a01b03167f89b2530687b0817986a10f8e5dde78d853db395ac15d1ea677f49015dcb23000826040516106be91815260200190565b60405180910390a2505050506106d360018055565b5050565b6106df610d46565b60006106ea3361032f565b90508060000361070d57604051631f2a200560e01b815260040160405180910390fd5b3360009081526003602052604081206001810180549192849261073190849061101a565b9091555061076b90506001600160a01b037f0000000000000000000000000000000000000000000000000000000000000000163384610d70565b60405182815233907fc7798891864187665ac6dd119286e44ec13f014527aeeb2b8eb3fd413df931799060200160405180910390a250506107ab60018055565b565b6000918252602082815260408084206001600160a01b0393909316845291905290205460ff1690565b60006107e181610c3c565b6001600160a01b0387166108085760405163d92e233d60e01b815260040160405180910390fd5b8560000361082957604051631f2a200560e01b815260040160405180910390fd5b6001600160401b03831615806108505750826001600160401b0316846001600160401b0316115b1561086e57604051631b742d9d60e31b815260040160405180910390fd5b6001600160a01b038716600090815260036020526040902054158015906108b857506001600160a01b038716600090815260036020526040902060020154600160c81b900460ff16155b156108d65760405163a2812bd560e01b815260040160405180910390fd5b60006108e2858761102d565b90506040518060e0016040528088815260200160008152602001876001600160401b03168152602001826001600160401b03168152602001856001600160401b03168152602001841515815260200160001515815250600360008a6001600160a01b03166001600160a01b03168152602001908152602001600020600082015181600001556020820151816001015560408201518160020160006101000a8154816001600160401b0302191690836001600160401b0316021790555060608201518160020160086101000a8154816001600160401b0302191690836001600160401b0316021790555060808201518160020160106101000a8154816001600160401b0302191690836001600160401b0316021790555060a08201518160020160186101000a81548160ff02191690831515021790555060c08201518160020160196101000a81548160ff021916908315150217905550905050610a7b3330897f00000000000000000000000000000000000000000000000000000000000000006001600160a01b0316610dcf909392919063ffffffff16565b604080518881526001600160401b0388811660208301528381168284015286166060820152841515608082015290516001600160a01b038a16917f84b0637882614bb7d85cb0413a36874156b15590ffa39c39c69dbbc3f48c52c6919081900360a00190a25050505050505050565b600082815260208190526040902060010154610b0581610c3c565b6104238383610cdb565b6000610b1a81610c3c565b6001600160a01b038216610b415760405163d92e233d60e01b815260040160405180910390fd5b600280546001600160a01b0319166001600160a01b0384169081179091556040517f7dae230f18360d76a040c81f050aa14eb9d6dc7901b20fc5d855e2a20fe814d190600090a25050565b600082606001516001600160401b0316826001600160401b03161015610bb457506000610329565b600083608001518460400151610bca919061102d565b9050806001600160401b0316836001600160401b031610610bee5750508151610329565b6000846040015184610c009190611054565b6001600160401b0316905084608001516001600160401b0316818660000151610c299190611074565b610c33919061108b565b95945050505050565b610c468133610e08565b50565b6000610c5583836107ad565b610cd3576000838152602081815260408083206001600160a01b03861684529091529020805460ff19166001179055610c8b3390565b6001600160a01b0316826001600160a01b0316847f2f8788117e7eff1d82e926ec794901d17c78024a50270940304540a733656f0d60405160405180910390a4506001610329565b506000610329565b6000610ce783836107ad565b15610cd3576000838152602081815260408083206001600160a01b0386168085529252808320805460ff1916905551339286917ff6391f5c32d9c69d2a47ea670b442974b53935d1edc7fd64eb21e047a839171b9190a4506001610329565b600260015403610d6957604051633ee5aeb560e01b815260040160405180910390fd5b6002600155565b6040516001600160a01b0383811660248301526044820183905261045c91859182169063a9059cbb906064015b604051602081830303815290604052915060e01b6020820180516001600160e01b038381831617835250505050610e46565b6040516001600160a01b0384811660248301528381166044830152606482018390526104239186918216906323b872dd90608401610d9d565b610e1282826107ad565b6106d35760405163e2517d3f60e01b81526001600160a01b0382166004820152602481018390526044015b60405180910390fd5b600080602060008451602086016000885af180610e69576040513d6000823e3d81fd5b50506000513d91508115610e81578060011415610e8e565b6001600160a01b0384163b155b1561042357604051635274afe760e01b81526001600160a01b0385166004820152602401610e3d565b600060208284031215610ec957600080fd5b81356001600160e01b031981168114610ee157600080fd5b9392505050565b80356001600160a01b0381168114610eff57600080fd5b919050565b600060208284031215610f1657600080fd5b610ee182610ee8565b600060208284031215610f3157600080fd5b5035919050565b60008060408385031215610f4b57600080fd5b82359150610f5b60208401610ee8565b90509250929050565b80356001600160401b0381168114610eff57600080fd5b60008060008060008060c08789031215610f9457600080fd5b610f9d87610ee8565b955060208701359450610fb260408801610f64565b9350610fc060608801610f64565b9250610fce60808801610f64565b915060a08701358015158114610fe357600080fd5b809150509295509295509295565b634e487b7160e01b600052601160045260246000fd5b8181038181111561032957610329610ff1565b8082018082111561032957610329610ff1565b6001600160401b0381811683821601908082111561104d5761104d610ff1565b5092915050565b6001600160401b0382811682821603908082111561104d5761104d610ff1565b808202811582820484141761032957610329610ff1565b6000826110a857634e487b7160e01b600052601260045260246000fd5b50049056fea264697066735822122035004f6044d617b2a4cb38d42ce6e0a85bf9b39be746dc62a790d3fd0410f33064736f6c63430008180033",
  "linkReferences": {},
  "deployedLinkReferences": {}
}